:020000040800F2
:10000000181100200501000835190008E90E000844
:1000100031190008D90A0008AB27000800000000C9
:10002000000000000000000000000000CD200008DB
:100030007D0C000800000000CD1E000835240008DB
:100040001F0100081F0100081F0100081F01000810
:100050001F0100081F0100081F0100081F01000800
:100060001F0100081F0100081F0100081F010008F0
:100070001F0100081F0100081F0100081F010008E0
:100080001F0100081F0100081F0100081F010008D0
:100090001F0100081F0100081F0100081F010008C0
:1000A0001F0100081F0100081F0100081F010008B0
:1000B0001F0100081F0100081F0100081F010008A0
:1000C0001F0100081F0100081F0100081F01000890
:1000D0001F0100081D2500081F0100081F0100085E
:1000E0001F0100081F0100081F010008DFF810D0E1
:1000F00000F032FB0048004719310008AFF30080E0
:10010000181100200648804706480047FEE7FEE732
:10011000FEE7FEE7FEE7FEE7FEE7FEE7FEE7FEE7B7
:100120007D240008ED000008D2B201E000F8012BA8
:10013000491EFBD270470022F6E710B513460A4667
:1001400004461946FFF7F0FF204610BD30B480EAA0
:10015000010202F0004530F0004221F0004013D0CF
:1001600090B1C30DD40DC2F31601C0F31600E41A0A
:1001700041F4000140F400027D34914201D3641C3B
:1001800000E04900002C02DA30BC002070474FF438
:1001900000000023914201D3891A034340084FEA2B
:1001A0004101F7D151B1914202D14FF0004105E038
:1001B00002D24FF0010101E06FF0010103EBC450E6
:1001C000284430BC00F0EDB82DE9FE4F81EA03046D
:1001D00004F0004421F0004100944FF0000B23F0A4
:1001E000004350EA01045ED052EA03045BD0C3F33B
:1001F0000A54C1F30A552C44A4F2F3340194A0FB31
:100200000254C1F3130141F48011C3F3130343F407
:10021000801301FB024400FB034E840A970A44EA60
:10022000815447EA8357A4FB076802958D0A05FBB2
:1002300007854FEA932C04FB0C542705029D4FEAD7
:10024000065847EA1637B5EB08056EEB070C870E24
:10025000920E47EA811742EA8312A7FB0201B6EB2E
:100260000B0164EB00042B0D43EA0C335E1844EBE6
:100270001C50DA465146E7FB0201C5F313044FEA6E
:100280000B3343EA14534FEA0432019C43EA06035A
:10029000A4F10C040294009CCDE900B400F0C7F86E
:1002A00003B0BDE8F08F00200146F9E79623002255
:1002B000114600F07FB800F0004230F000400AD054
:1002C000C10D01F56071C0F3160042EA0151C20888
:1002D00040071143704700200146704701F000437A
:1002E00030B421F0004150EA010206D00A0DA2F517
:1002F0006072C1F31301002A02DC30BC0020704799
:10030000440F44EAC104C100E01830BC00EBC25005
:1003100000F047B830B50B460146002020220124EA
:1003200009E021FA02F59D4205D303FA02F5491BC3
:1003300004FA02F52844151EA2F10102F1DC30BDD9
:100340002DE9F05F0546002092469B46884606460A
:10035000814640241BE0284641464746224600F09D
:100360001CFA53465A46C01A914110D311461846FA
:10037000224600F003FA2D1A67EB01084F46224689
:100380000120002100F0FAF917EB00094E41201E70
:10039000A4F10104DFDC484631462A464346BDE865
:1003A000F09F0029A8BF7047401C490008BF20F0FB
:1003B0000100704710B4B0FA80FC00FA0CF050EA6B
:1003C000010404BF10BC704749B1CCF1200421FAEC
:1003D00004F411FA0CF118BF012121430843A3EBE7
:1003E0000C01CB1D4FEA00614FEA102042BF0020F4
:1003F00010BC704700EBC35010440029A4BF10BCD0
:100400007047401C490008BF20F0010010BC704735
:1004100010B5141E73F1000408DA401C41F100010C
:1004200092185B411A4301D120F0010010BD2DE963
:10043000F04D92469B4611B1B1FA81F202E0B0FA5A
:1004400080F22032904600F099F904460F4640EAC7
:100450000A0041EA0B0153465A46084313D011469D
:1004600053EA010019D0C8F14002504600F095F956
:1004700005460E4650465946424600F07FF908436D
:1004800005D0012004E020463946BDE8F08D00206B
:10049000054346EAE0762C4337430A986305E40AAD
:1004A000A0EB08000022FD0A44EA47540A3002D5B6
:1004B00000200146E9E7010510196941DDE9084519
:1004C00000196941BDE8F04DA2E72DE9FE4F8046D5
:1004D00081EA0300C00F0C46009021F0004123F098
:1004E0000045B8EB0200A94105D24046214690469E
:1004F0001C460B46024623F00040104347D0270D10
:10050000C7F30A00C3F30A510290401A0190402831
:100510006BDAC3F3130040F4801B0098924620B1BD
:100520000023D2EB030A63EB0B0B01985946C0F191
:100530004002504600F022F906460D465046594604
:10054000019A00F03AF910EB08006141002487EAB3
:10055000115284EAE7731A4340D0009A62B3019AB9
:10056000012A4FEA075215DC001B61EB02014FF034
:10057000004202EA0752CDE90042001C41F5801119
:1005800032462B46FFF753FF03B0BDE8F08F4046DD
:100590002146F9E7001B61EB0201001C41F58013C5
:1005A00000185B412018A2F5001747EB030140EA51
:1005B000D570B6196D4111E06D084FEA360645EA6F
:1005C000C0754FEA0752001B61EB0201001C41F5A8
:1005D000801149084FEA30000019514132462B463C
:1005E00003B0BDE8F04FFFF713BF009801224000B1
:1005F0000023D0EB020263EBE073009821464FEA40
:10060000E074B8EB000061EB0401E9E783F000431C
:100610005BE781F0004158E72DE9F04D81EA0304E2
:1006200004F0004B21F0004514464FF0000A23F07F
:10063000004150EA050220D054EA01021DD0C5F362
:100640000A570246C5F31303C1F31300C1F30A5658
:1006500040F4801543F48013A7EB0608101BD64620
:1006600008F2FD3873EB050002D308F1010801E040
:1006700092185B41B8F1000F03DA00200146BDE893
:10068000F08D00204FF48011064684460EE0171BC3
:1006900073EB050705D3121B63EB050306434CEA16
:1006A000010C49084FEA300092185B4150EA0107FB
:1006B000EDD152EA030012D082EA040083EA050178
:1006C000084305D0101BAB4106D20122002306E0EF
:1006D00000224FF0004302E06FF0010253101AEBCA
:1006E00006004CEB085110EB0A0041EB0B01BDE892
:1006F000F04DFFF78DBEC1F30A52C1F3130140F272
:10070000FF3341F480119A4202DA0020014670471B
:1007100040F233439A42A2F2334202DC524200F0EA
:100720003CB800F02BB8000030B5041E71F1000495
:1007300004DB4FF00044404264EB0101141E73F1EE
:10074000000405DB1C464FF00043524263EB0403F8
:10075000994208BF904230BD064C074D06E0E06864
:1007600040F0010394E8070098471034AC42F6D3F8
:10077000FFF7C0FCE033000800340008202A04DB47
:10078000203A00FA02F1002070479140C2F12003A4
:1007900020FA03F3194390407047202A04DB203AE3
:1007A00021FA02F00021704721FA02F3D040C2F191
:1007B00020029140084319467047202A06DBCB17D8
:1007C000203A41FA02F043EAE07306E041FA02F30C
:1007D000D040C2F12002914008431946704770B5DD
:1007E0008C1810F8015B15F0070301D110F8013BDC
:1007F0002A1106D110F8012B03E010F8016B01F863
:10080000016B5B1EF9D12B0705D40023521E0DD4BA
:1008100001F8013BFAE710F8013BCB1A921C03E008
:1008200013F8015B01F8015B521EF9D5A142D8D340
:10083000002070BD21B1826842F00102826003E0B5
:10084000826822F001028260704721B1826842F41E
:100850008072826003E0826822F480728260704756
:1008600000B58BB00121084601F03EFB114800F0B5
:1008700041F9114800901148019000200290012098
:1008800003900020049005904FF480700690800043
:100890000790202008900002099000200A906946E5
:1008A000044800F0CDF90121024800F017F90BB01F
:1008B00000BD00001C0002404C2401403804002010
:1008C000014600208A6802F004020AB1012000E01B
:1008D00000207047014600208A6802F008020AB131
:1008E000012000E00020704730B5024600200023C0
:1008F00050680F4C20400D790C6844EA05242043D1
:10090000506090680B4C2040D1E902542C434D7943
:1009100044EA450420439060D06A20F470000C7CC7
:10092000641EE4B2234340EA0350D06230BD0000AD
:10093000FFFEF0FFFDF7F1FFF0B504460D46002085
:100940000021092D11DDE068A5F10A0606EB460736
:10095000072606FA07F18843A5F10A0606EB4606C4
:1009600003FA06F10843E0600CE0206905EB450757
:10097000072606FA07F1884305EB450603FA06F158
:1009800008432061072A0FDA606B561E06EB8607C4
:100990001F2606FA07F18843561E06EB860605FA5F
:1009A00006F10843606322E00D2A0FDA206BD61FA0
:1009B00006EB86071F2606FA07F18843D61F06EBCB
:1009C000860605FA06F10843206310E0E06AA2F10A
:1009D0000D0606EB86071F2606FA07F18843A2F1EB
:1009E0000D0606EB860605FA06F10843E062F0BD47
:1009F000816841F008018160704721B1826842F44A
:100A0000A002826003E0826822F4A0028260704744
:100A1000816841F0040181607047000008B5012140
:100A2000042001F081FA0420ADF8000000208DF8C8
:100A300003006946014800F0BFF908BD0008014005
:100A400010B5FFF7EBFF00F003F8FFF709FF10BD4B
:100A500000B585B00121480201F066FA002000903F
:100A60008DF804008DF805004FF4602002900020FE
:100A7000039001208DF8100069461648FFF734FFF7
:100A80004FF4004001F024FA03230122022111480F
:100A9000FFF752FF01210F48FFF7D7FE01210D4854
:100AA000FFF7C8FE0B48FFF7A3FF00BF0948FFF799
:100AB00011FF0028FAD10748FFF7AAFF00BF054839
:100AC000FFF7FEFE0028FAD101210248FFF795FF4B
:100AD00005B000BD0024014000BFFEE721B102685F
:100AE00042F00102026004E002684FF6FE731A4011
:100AF0000260704701684FF6FE72114001600021EC
:100B0000016041608160C1604B49884208D14A4917
:100B10000839496841F00F01474A083A51608AE0B4
:100B200045491431884208D143490839496841F0A0
:100B3000F001414A083A51607DE03F49283188423E
:100B400008D13D490839496841F470613A4A083A88
:100B5000516070E038493C31884208D13649083943
:100B6000496841F47041344A083A516063E03249BF
:100B70005031884208D130490839496841F4702120
:100B80002D4A083A516056E02B496431884208D119
:100B900029490839496841F47001274A083A5160E7
:100BA00049E025497831884208D123490839496804
:100BB00041F07061204A083A51603CE01F49884288
:100BC00006D1011F096841F00F01021F116032E0D8
:100BD0001A491431884208D11849091F096841F09F
:100BE000F001164A121F116025E01449283188428D
:100BF00008D11249091F096841F470610F4A121F98
:100C0000116018E00D493C31884208D10B49091F99
:100C1000096841F47041094A121F11600BE007494D
:100C20005031884207D10549091F096841F47021F4
:100C3000024A121F11607047080002400804024077
:100C400010B50022026847F6F0739A430C6A8B686D
:100C500023430C6923434C6923438C692343CC69A8
:100C600023434C6A23438C6A23431A430260CB68B4
:100C700043600B6883604B68C36010BD7047000021
:100C800010B54FF480501F49086009E01D490868FD
:100C9000411E1C4A116018B9192000F0F5FC10BD66
:100CA0004FF40031184800F055FC0028EED100BF89
:100CB0000121154800F036FC4FF4805011490860BE
:100CC00009E010490868411E0E4A116018B91A203F
:100CD00000F0DAFCE3E70D490B4800F03BFC00288C
:100CE000EFD0A021084800F0CDFC0849491C064877
:100CF00000F030FC0028DBD00121034800F01EFC8E
:100D00000120CCE73404002000580040010000100E
:100D100000B585B00121880501F0F6F80121082011
:100D200001F002F901208DF8120010208DF8130057
:100D30000220ADF8100004A91C4800F03DF8032083
:100D40008DF812001C208DF813004FF48060ADF870
:100D5000100004A9154800F02FF84FF40060ADF81A
:100D6000100004A9114800F027F80020ADF8040095
:100D70004BF6FF70ADF806000A20ADF808004FF4FE
:100D80008060ADF80A000001ADF80C000848009042
:100D90006946084800F0FCFB0121064800F0C7F84E
:100DA0000221024800F09CF805B000BD000C014093
:100DB000801A0600005800402DE9F0410246002547
:100DC0000026002000230024002791F803C00CF027
:100DD0000F0591F803C00CF0100CBCF1000F03D00C
:100DE00091F802C04CEA050591F800C0BCF1000F73
:100DF00031D0146800202BE04FF0010C0CFA00F306
:100E0000B1F800C00CEA03069E4220D183004FF0E7
:100E10000F0C0CFA03F7BC4305FA03FC4CEA04047C
:100E200091F803C0BCF1280F06D14FF0010C0CFA69
:100E300000FCC2F814C00AE091F803C0BCF1480FEE
:100E400005D14FF0010C0CFA00FCC2F810C0401C98
:100E50000828D1D31460B1F800C0BCF1FF0F34DD15
:100E6000546800202EE000F1080C4FF0010808FA49
:100E70000CF3B1F800C00CEA03069E4221D18300B6
:100E80004FF00F0C0CFA03F7BC4305FA03FC4CEAD5
:100E9000040491F803C0BCF1280F05D100F1080C3F
:100EA00008FA0CF8C2F8148091F803C0BCF1480F9E
:100EB00007D100F1080C4FF0010808FA0CF8C2F84D
:100EC0001080401C0828CED35460BDE8F081024653
:100ED000002093680B400BB1012000E00020704718
:100EE000416170470161704700BFFEE721B1028890
:100EF00042F48062028004E002884FF6FF331A4019
:100F00000280704770B502460024002500230020AF
:100F1000958A138B1B0445EA030626F07F4404EAF6
:100F200001068E4201D1012000E0002070BD21B1F8
:100F3000028842F00102028004E002884FF6FE734C
:100F40001A4002807047000070B504460E461546F0
:100F50004FF480506549086009E064490868411E03
:100F6000624A116018B9122000F08EFB70BD4FF478
:100F700000315F4800F0EEFA0028EED101215C4814
:100F800000F0D0FA4FF480505849086009E0574902
:100F90000868411E554A116018B9132000F074FB0F
:100FA000E4E754495248FFF7ADFF0028EFD0A020F6
:100FB00040EAE41000F0A6014D4800F063FB4FF456
:100FC00080504A49086009E048490868411E474A7C
:100FD000116018B9142000F057FBC7E74649444890
:100FE000FFF790FF0028EFD0E1B2414800F04AFB44
:100FF0004FF480503D49086009E03C490868411EB3
:101000003A4A116018B9152000F03EFBAEE73A49A4
:10101000891C3748FFF776FF0028EED001213448BD
:1010200000F080FA4FF480503049086009E02F4901
:101030000868411E2D4A116018B9162000F024FBE3
:1010400094E72C492A48FFF75DFF0028EFD0A02045
:1010500040EAE41000F0A600411C254800F012FB15
:101060004FF480502149086009E020490868411E7A
:101070001E4A116018B9172000F006FB76E71D49DB
:10108000491C1B48FFF73EFF0028EED026E0012D4B
:1010900007D100211648FFF729FF0121144800F06D
:1010A0004DFA4FF480501149086009E00F49086873
:1010B000411E0E4A116018B9182000F0E5FA55E7F4
:1010C0000C493F310A48FFF71DFF0028EED00848C1
:1010D00000F0D4FA3070761C681E85B2002DD6D18F
:1010E00001210348FFF702FF01203FE734040020FD
:1010F0000058004001000300820007002DE9F0477E
:1011000005460F4614464FF00008C146C246002669
:101110002846E91705EB11710911A5EB011101F042
:10112000FF0ACAF11000C6B22046E11704EB1171A4
:10113000C1F30718E11704EB11710911A4EB0111B8
:1011400001F0FF09BAF1000F28D1B8F1000F07D163
:101150004A463946284600F039F9FFF791FD60E02C
:101160000AE010223946284600F030F9FFF788FDE2
:1011700005F1100085B21037B8F10000A8F10101A7
:1011800001F0FF08EDD1B9F1000F4AD04A463946C7
:10119000284600F01BF9FFF773FD42E0B8F1000F9D
:1011A00007D14A463946284600F010F9FFF768FD96
:1011B00037E0A01B84B22046E11704EB1171C1F3A4
:1011C0000718E11704EB11710911A4EB011101F0EB
:1011D000FF094EB132463946284600F0F7F8FFF7CE
:1011E0004FFDA81985B237440AE010223946284637
:1011F00000F0ECF8FFF744FD05F1100085B2103760
:10120000B8F10000A8F1010101F0FF08EDD1B9F13A
:10121000000F06D04A463946284600F0D7F8FFF7B7
:101220002FFDBDE8F087000070B5044600254FF49F
:1012300080506249086009E060490868411E5F4AC1
:10124000116018B9002000F01FFA70BD4FF4003192
:101250005B4800F07FF90028EED10121584800F0EA
:1012600061F94FF480505549086009E05349086816
:10127000411E524A116018B9012000F005FAE4E756
:1012800050494F48FFF73EFE0028EFD0A02040EA2B
:10129000E41000F0A6014A4800F0F4F94FF4805041
:1012A0004649086009E045490868411E434A116003
:1012B00018B9022000F0E8F9C7E743494048FFF7B2
:1012C00021FE0028EFD0E1B23D4800F0DBF94FF4F9
:1012D00080503A49086009E038490868411E374A99
:1012E000116018B9032000F0CFF9AEE73649891C28
:1012F0003348FFF707FE0028EED00121304800F008
:1013000011F94FF480502D49086009E02B49086815
:10131000411E2A4A116018B9042000F0B5F994E77B
:1013200028492748FFF7EEFD0028EFD0A02040EA2B
:10133000E41000F0A600411C214800F0A3F94FF48E
:1013400080501E49086009E01C490868411E1B4A7C
:10135000116018B9052000F097F976E71949491C82
:101360001748FFF7CFFD0028EED000211448FFF703
:10137000BDFD4FF480501149086009E00F4908682D
:10138000411E0E4A116018B9062000F07DF95CE795
:101390000C493F310A48FFF7B5FD0028EED0084858
:1013A00000F06CF905460121054800F0C7F801215D
:1013B0000348FFF79BFD284647E700003404002060
:1013C00000580040010003008200070070B5044689
:1013D0000D4616464FF480504E49086009E04D49CD
:1013E0000868411E4B4A116018B90C2000F04CF9F6
:1013F00070BD4FF40031484800F0ACF80028EED141
:101400000121454800F08EF84FF4805041490860B2
:1014100009E040490868411E3E4A116018B90D2094
:1014200000F032F9E4E73D493B48FFF76BFD002847
:10143000EFD0A02040EAE41000F0A601364800F00A
:1014400021F94FF480503349086009E031490868B8
:10145000411E304A116018B90E2000F015F9C7E797
:101460002F492D48FFF74EFD0028EFD0E1B22A4862
:1014700000F008F94FF480502649086009E025493A
:101480000868411E234A116018B90F2000F0FCF8CB
:10149000AEE72349891E2048FFF734FD0028EED02F
:1014A0001AE029781C4800F0EDF86D1C4FF48050CC
:1014B0001849086009E017490868411E154A11607B
:1014C00018B9102000F0E0F892E71549891E12487B
:1014D000FFF718FD0028EED0301EA6F10101CEB2B4
:1014E000DFD109E00B490868411E0A4A116018B9AA
:1014F000112000F0C9F87BE70949891C0648FFF76D
:1015000001FD0028EED00121034800F017F801206A
:101510006EE7000034040020005800400100030082
:101520008200070021B1028842F48072028004E048
:1015300002884FF6FF631A400280704721B102888B
:1015400042F40072028004E002884FF6FF531A4012
:10155000028070470CB502460020002301930093DF
:1015600000920B0F019321F07F41019B1BB1009B67
:101570001433009303E0090C009B18330093009B85
:101580001B680B400BB1012000E000200CBD0000E7
:101590002DE9F04385B004460D460026B1460427E8
:1015A000DFF8CC80A6884FF6C0700640684600F091
:1015B000CBFCDDF808802F48B8FBF0F01FFA80F96B
:1015C00046EA0906A68020884FF6FE710840208072
:1015D00000262949286888420CD828684000B8FBB2
:1015E000F0F087B2042F00DA04273E4309F101002E
:1015F000208427E0E8884BF6FF71884206D12868EE
:1016000000EB4000B8FBF0F087B209E0286800EB7F
:10161000C00101EB0010B8FBF0F087B247F480473F
:10162000C7F30B0008B947F0010747F40040064331
:101630004FF4967009FB00F04FF47A7190FBF1F0D3
:10164000401C2084A683208840F00100208026884A
:101650004FF6F5300640A88869890843064326807E
:10166000A88929890843208105B0BDE8F0830000DE
:1016700000127A0040420F00A08601000146088A4D
:10168000C0B270470182704710B50446214602A0DF
:1016900001F0AAF8002010BD3C3C2D454550524FAA
:1016A0004D2D4552524F522D3E3E20493243B5C832
:1016B000B4FDB3ACCAB1216572726F72436F6465D9
:1016C000203D2025640A000010B54FF40051044865
:1016D000FFF7FDFB08B9012010BD0020FCE700006A
:1016E0000010014010B501210348FFF7F0FB08B9D5
:1016F000012010BD0020FCE70008014010B50221C8
:101700000348FFF7E4FB08B9012010BD0020FCE707
:101710000008014070B50546304800EB051420680C
:10172000804700283ED020790A2802DA0A2020715A
:1017300052E02079142803DA2079401C20714BE014
:10174000A07A38B90120A07205EB4501491CC8B246
:1017500000F094F8208900283EDDE0882189884245
:101760000DDAE088401C80B2E0802189884233D1C4
:1017700005EB4501C91CC8B200F080F82CE0E07A06
:10178000002829DD207B401CC0B22073E17A88420A
:1017900022DB0020207305EB4501491CC8B200F094
:1017A0006DF819E020790A2802DD0A20207110E086
:1017B000207918B12079401E20710AE0A07A012812
:1017C00007D10020A07205EB4501891CC8B200F0CA
:1017D00055F80020E080207370BD0000D80C002078
:1017E0000B48807A0A4AD27A904201D10020704791
:1017F0000748807A064A115C1046807A401CC0B2C5
:1018000090720A2801DB002090720846EFE7000082
:10181000080D00200021144A9172D172002018E0B6
:10182000C821124A02EB0012118105210F4A02EB76
:101830000012117100210D4A02EB001291720B4A45
:1018400002EB0012D172094A02EB00121173411C23
:10185000C8B20328E4DB0649044A11600549116156
:101860000549116270470000080D0020D80C0020C7
:10187000C9160008E5160008FD1600080649C97AD1
:10188000054A50541146C97A491CC9B2D1720A2975
:1018900001DB0021D1727047080D002008B501213D
:1018A000142000F041FB04208DF80300C002ADF8C5
:1018B000000069460948FFF77FFA0120ADF80000F3
:1018C00069460748FFF778FA0220ADF8000069463C
:1018D0000348FFF771FAFFF79DFF08BD00100140B4
:1018E0000008014010B5002404E02046FFF712FF75
:1018F000601CC4B2032CF8DB10BD000008B5012148
:10190000082000F011FB01208DF8020010208DF856
:1019100003000001ADF8000069460448FFF74CFAE7
:101920004FF4807001491431086008BD000C01407B
:1019300000BFFEE7704708B54FF4C06000F048F8FC
:1019400025208DF8000000208DF8010001208DF881
:1019500002008DF80300684600F002F808BD0000A0
:1019600070B5002100230F22C47804B3154C2468FD
:1019700004F4E064C4F5E064210AC1F10403CA4040
:10198000447804FA03F184781440214309010E4C91
:101990000678A155047804F01F050124AC400578B1
:1019A0006D11AD0005F1E025C5F8004109E00478AE
:1019B00004F01F050124AC40044D0678761145F86B
:1019C000264070BD0CED00E000E400E080E100E0A6
:1019D00002490143024A1160704700000000FA0505
:1019E0000CED00E010B54FF490610348FEF7A3FB47
:1019F00000F068F910BD00005808002010B504463A
:101A00001CB90021A62000F0EFF9012C03D1002120
:101A1000A72000F0E9F9002010BD10B50021AE208C
:101A200000F0E2F900218D2000F0DEF90021102005
:101A300000F0DAF9002010BD10B50021AF2000F051
:101A4000D3F900218D2000F0CFF90021142000F0FF
:101A5000CBF9002010BD10B504463CB90021C820C8
:101A600000F0C2F90021A12000F0BEF9012C07D13D
:101A70000021C02000F0B8F90021A02000F0B4F946
:101A8000002010BDF0B514460B46CF1701EB577779
:101A9000C7F3C702CF1701EB5777FF10A1EBC707BA
:101AA000FEB20123B340DDB24CB1134B03EBC003D4
:101AB0009B5C2B43104F07EBC007BB541AE00E4B47
:101AC00003EBC0039B5CDB430B4F07EBC007BB542E
:101AD000094B03EBC0039B5C2B43074F07EBC0078D
:101AE000BB54054B03EBC0039B5CDB43024F07EB8E
:101AF000C007BB54F0BD00005808002000B587B0F7
:101B000001210C2000F010FA0121880300F0FCF9FB
:101B10004FF41060ADF8180010208DF81B00032062
:101B20008DF81A0006A96448FFF746F94FF42040E3
:101B3000ADF8180018208DF81B0006A95F48FFF7C4
:101B40003BF94FF48050ADF8180010208DF81B00C1
:101B500006A95A48FFF730F91820ADF81000012007
:101B6000ADF80C000220ADF80A000020ADF8080026
:101B7000ADF812004FF40070ADF80E004FF4404085
:101B8000ADF804004FF48270ADF806000720ADF800
:101B9000140001A94A4800F05BFA4FF4106146486E
:101BA000FFF7A0F94FF480514448FFF79BF901215A
:101BB000434800F033FA4FF480713F48FFF790F943
:101BC000642000F013FC4FF480713B48FFF78AF962
:101BD0000021AE2000F008F90021B02000F004F947
:101BE0000021022000F000F90021102000F0FCF894
:101BF0000021D52000F0F8F80021802000F0F4F852
:101C00000021A82000F0F0F800213F2000F0ECF8BF
:101C10000021D32000F0E8F80021084600F0E4F8A5
:101C20000021402000F0E0F80021AD2000F0DCF8B9
:101C300000218B2000F0D8F80021A12000F0D4F87A
:101C40000021C82000F0D0F80021DA2000F0CCF804
:101C50000021122000F0C8F80021812000F0C4F813
:101C60000021FF2000F0C0F80021D92000F0BCF8CE
:101C700000211F2000F0B8F80021DB2000F0B4F8AC
:101C80000021402000F0B0F80021332000F0ACF833
:101C90000021A62000F0A8F8FFF7A4FE642000F0C1
:101CA000A5FB0021AF2000F09FF8642000F09EFB10
:101CB000002007B000BD000000080140000C0140FA
:101CC0000038004070B500241CE004F1B001C8B237
:101CD000002100F089F80021022000F085F80021A1
:101CE000102000F081F8002508E0084901EBC5014B
:101CF000085D012100F078F8681CC5B2802DF4DB86
:101D0000601CC4B2082CE0DB002070BD5808002025
:101D10002DE9FF4F05460E4617461C46DDF8389064
:101D20004FF0000A0095B3462046E21704EB5272CA
:101D3000D2102146E31704EB5373DB10A4EBC3036B
:101D40000BB1012300E000231A44D4B24FF0000885
:101D500045E0002003903BE00D9810F80A00029047
:101D60000AF101001FFA80FA002001901DE002989C
:101D700000F0010058B1B9F1000F01D1012000E0DD
:101D80000020024631462846FFF77CFE04E04A4622
:101D900031462846FFF776FE029840100290701CEC
:101DA000C6B20198401CC0B2019001980828DEDB41
:101DB000681CC5B20098281AB84204D1009D0BF1E6
:101DC000080000F0FF0B5E460398401CC0B2039071
:101DD0000398B842C0DB08F1010000F0FF08A045FD
:101DE000B7DBBDE8FF8F000070B504460D462DB18E
:101DF0004FF400613148FFF775F804E04FF40061DB
:101E00002E48FFF76DF84FF480512D48FFF768F822
:101E10004FF480302B4908600AE02A490868411EC7
:101E2000284A116020B9002000F030F9C0B270BD1E
:101E30000221254800F001F90028EED002212248B5
:101E400000F0F8F82146204800F000F94FF4803007
:101E50001C4908600AE01B490868411E194A1160C4
:101E600020B9012000F012F9C0B2E0E702211648C3
:101E700000F0E3F80028EED00221134800F0DAF871
:101E80000AE010490868411E0E4A116020B902207C
:101E900000F0FCF8C0B2CAE780210B4800F0CDF892
:101EA0000128EED04FF480510548FFF71BF84FF49E
:101EB00000610248FFF716F80020B8E7000801406B
:101EC000000C01402804002000380040704700004A
:101ED00001460020034A506820F440400843506007
:101EE000704700000010024029B1064A52690243BF
:101EF000044B5A6104E0034A52698243014B5A6120
:101F0000704700000010024029B1064AD26902431E
:101F1000044BDA6104E0034AD2698243014BDA617F
:101F2000704700000010024029B1064A926902433E
:101F3000044B9A6104E0034A92698243014B9A611F
:101F4000704700000010024030B50021002200243C
:101F500000232D4D6D6805F00C0121B1042905D039
:101F6000082923D105E0294D056022E0274D0560B1
:101F70001FE0254D6D6805F47012234D6D6805F462
:101F80008034022505EB92421CB9214D5543056072
:101F90000BE01D4D6D6805F400351DB11C4D55431A
:101FA000056002E0194D5543056002E0174D0560DC
:101FB00000BF00BF144D6D6805F0F0010909154D13
:101FC0006B5C0568DD4045600F4D6D6805F4E061B0
:101FD000090A104D6B5C4568DD4085600A4D6D68EF
:101FE00005F46051C90A0B4D6B5C4568DD40C56066
:101FF000054D6D6805F44041890B074D6B5CC56864
:10200000B5FBF3F5056130BD0010024000127A0007
:1020100000093D00140000202400002021B10288A6
:1020200042F04002028004E002884FF6BF731A407B
:1020300002807047CA43028170470246002013891C
:102040000B400BB1012000E00020704781817047F8
:1020500010B50022028802F441520B884C882343B9
:102060008C882343CC8823430C8923434C89234306
:102070008C892343CC8923431A430280838B4FF2FC
:10208000FF74234083830B8A038210BD10B504467E
:10209000214602A000F0A8FB002010BD3C3C2D4FC3
:1020A0004C45442D4552524F522D3E3E20535049EF
:1020B00020B5C8B4FDB3ACCAB1216572726F72436A
:1020C0006F6465203D2025640A0000007047000011
:1020D00010B54FF400710648FEF704FF00BF4FF43F
:1020E00000710348FEF7FCFE00F0E3FF10BD0000A6
:1020F000000C014010B54FF400710948FEF7F2FEE4
:1021000000F0E0FF4FF400710548FEF7E9FE00BF64
:1021100000BF00BF00BF00BF00BF00BF00BF10BDB9
:10212000000C014070B504460E46154606F08000CE
:1021300010B9FFF7CDFF01E0FFF7DCFF06F040002C
:1021400010B9FFF7C5FF01E0FFF7D4FF06F020004C
:1021500010B9FFF7BDFF01E0FFF7CCFF06F010005C
:1021600010B9FFF7B5FF01E0FFF7C4FF06F0080064
:1021700010B9FFF7ADFF01E0FFF7BCFF06F0040068
:1021800010B9FFF7A5FF01E0FFF7B4FF06F002006A
:1021900010B9FFF79DFF01E0FFF7ACFF06F001006B
:1021A00010B9FFF795FF01E0FFF7A4FF04F08000EE
:1021B00010B9FFF78DFF01E0FFF79CFF04F040002E
:1021C00010B9FFF785FF01E0FFF794FF04F020004E
:1021D00010B9FFF77DFF01E0FFF78CFF04F010005E
:1021E00010B9FFF775FF01E0FFF784FF04F0080066
:1021F00010B9FFF76DFF01E0FFF77CFF04F004006A
:1022000010B9FFF765FF01E0FFF774FF04F002006B
:1022100010B9FFF75DFF01E0FFF76CFF04F001006C
:1022200010B9FFF755FF01E0FFF764FF05F08000EC
:1022300010B9FFF74DFF01E0FFF75CFF05F040002C
:1022400010B9FFF745FF01E0FFF754FF05F020004C
:1022500010B9FFF73DFF01E0FFF74CFF05F010005C
:1022600010B9FFF735FF01E0FFF744FF05F0080064
:1022700010B9FFF72DFF01E0FFF73CFF05F0040068
:1022800010B9FFF725FF01E0FFF734FF05F002006A
:1022900010B9FFF71DFF01E0FFF72CFF05F001006B
:1022A00010B9FFF715FF01E0FFF724FF70BD10B56F
:1022B00000F002F810BD00000CB500200190009065
:1022C0003348006840F480303149086000BF30482E
:1022D000006800F4003000900198401C01900098C4
:1022E00018B90198B0F5A06FF1D12948006800F441
:1022F000003010B10120009001E000200090009813
:10230000012843D12348006840F0100021490860AB
:102310000846006820F0070008600846006840F0A2
:10232000020008601A484068194948600846406839
:1023300048600846406840F480604860084640684D
:1023400020F47C1048600846406840F4E81048607B
:102350000846006840F08070086000BF0C480068C4
:1023600000F000700028F9D00948406820F0030010
:10237000074948600846406840F00200486000BFD6
:102380000348406800F00C000828F9D10CBD00009B
:10239000001002400020024030B50146B1F1807FBC
:1023A00001D3012030BD21F07F40401E4FF0E022DC
:1023B000506150170F22002807DA13071D0E094B32
:1023C00000F00F04241F1D5503E013071C0E064BDD
:1023D0001C5400BF00204FF0E022906107201061E4
:1023E0000020DFE718ED00E000E400E031B5104820
:1023F00000684FF47A71B0FBF1F52846FFF7CCFF87
:10240000002408E000BF4FF0E020006900F48030B5
:102410000028F8D0641C00988442F3D30448006874
:10242000C821B0FBF1F52846FFF7B6FF38BD000024
:102430000000002010B500F051F800F05BF810BD6E
:1024400010B507480068C821B0FBF1F42046FFF73B
:10245000A3FF20B103A000F0C7F900BFFEE710BD45
:10246000000000205379735469636B5F436F6E669D
:1024700069675F4552524F520000000010B5134883
:10248000006840F0010011490860084640681049A2
:1024900008400E494860084600680E4908400B494C
:1024A00008600846006820F48020086008464068FC
:1024B00020F4FE0048604FF41F008860FFF7F7FE2D
:1024C0004FF000600449086010BD00000010024099
:1024D0000000FFF8FFFFF6FE08ED00E0044800688A
:1024E00020B103480068401E0149086070470000A1
:1024F0002C04002010B508480088012805DA064899
:102500000088401C0449088004E00020024908803B
:10251000FFF7E8F910BD00003004002010B540F2CC
:1025200025510A4800F07DF870B1084800F034F9F0
:10253000C4B2214606A000F057F9312C02D1FFF7B2
:102540007BFA01E0FFF769FA10BD00000038014096
:102550000A52656365697665A3BA25630A000000BF
:1025600021B1828942F40052828104E082894DF6D1
:10257000FF731A408281704700B585B001210420A5
:10258000FFF7D2FC01218803FFF7CEFC4FF4007067
:10259000ADF8100018208DF8130003208DF81200FC
:1025A00004A91748FEF708FC4FF48060ADF810004E
:1025B00004208DF8130004A91148FEF7FDFB4FF429
:1025C000E13000900020ADF80400ADF80600ADF851
:1025D0000800ADF80C000C20ADF80A006946094867
:1025E00000F06EF8FFF7A7F9012240F225510548E7
:1025F00000F041F801210348FFF7B2FF05B000BD2C
:10260000000801400038014002460020B1F5007F7B
:1026100000D100BF13880B400BB1012000E0002067
:10262000704770B50246002400230025002040F6C4
:102630006A16B14200D100BFC1F3421501F01F0379
:10264000012606FA03F3012D02D19689334006E0F4
:10265000022D02D1168A334001E0968A33400C12D3
:10266000012606FA04F41688344013B10CB1012097
:1026700000E0002070BDF0B50346002400260025D0
:10268000002040F66A17B94200D100BF1846C1F3D6
:10269000421401F01F06012707FA06F5012C01D1AB
:1026A0000C3004E0022C01D1103000E014301AB1DB
:1026B00007682F43076002E00768AF430760F0BD7B
:1026C0002DE9F04786B005460E460024A24600BF1D
:1026D000A1460027B08900B100BF2F462C8A4CF6D6
:1026E000FF700440F08804432C82AC894EF6F3104E
:1026F0000440B08831890843718908430443AC81A0
:10270000AC8A4FF6FF400440B0890443AC8201A874
:10271000FFF71AFC1F48874202D1DDF810A001E044
:10272000DDF80CA0A88900F4004040B10AEBCA0013
:1027300000EB0A1031684900B0FBF1F807E00AEB42
:10274000CA0000EB0A1031688900B0FBF1F8642080
:10275000B8FBF0F004012009642101FB1089A8896D
:1027600000F4004040B1322000EBC900B0FBF1F0B2
:1027700000F00700044308E0322000EB0910642158
:10278000B0FBF1F000F00F0004432C8106B0BDE86F
:10279000F08700000038014001468888C0F3080037
:1027A0007047C1F308028280704700BFFEE7000057
:1027B00008B501210820FFF7B7FB01208DF80200C2
:1027C00010208DF803004001ADF80000694605486F
:1027D000FEF7F2FA00F0EAFD4FF4007001491431FF
:1027E000086008BD000C01400FB4054B10B503A9EB
:1027F000044A029800F0DAF810BC5DF814FB0000FF
:10280000F53000083C04002002E008C8121F08C18F
:10281000002AFAD170477047002001E001C1121F61
:10282000002AFBD1704700002DE9FF5F82B0002134
:10283000DDE90430020DDDF840B0034318D044F662
:102840001050A2F2FF3242431514119801281FD0F4
:10285000A5EB0B00401C5FEA000A4FF000064E4F4C
:10286000DFF83891B046504615D5CAF1000413E0A0
:10287000119801244AA3012801D16FEA0B010298A3
:10288000119AC0E90031C0E9024206B0BDE8F09FEC
:10289000CBF10000DFE704460021404A491842EB33
:1028A0000450CDE9001012E0E00707D032463B4665
:1028B00040464946FDF788FC8046894632463B46FD
:1028C00010461946FDF780FC06460F466410002CA2
:1028D000EAD1DDE90401DDE90023BAF1000F06DAEF
:1028E000FDF772FC42464B46FDF76EFC05E0FDF736
:1028F00093FE42464B46FDF78FFE04460E460022ED
:10290000284BFDF711FF03D84FF0FF30014607E0D9
:102910000022254B20463146FDF7D7FDFDF7EBFEA3
:10292000102409E0002C0ADB0A220023FDF708FD31
:10293000039B30321A55641E50EA0102F2D1641C26
:10294000039AC4F111031444119A012A03D00122FD
:1029500008430DD10AE0084304D000204FF0110BCA
:10296000119072E7A3EB0B056D1E0DE05B4504DDD6
:102970004FF0000205F1010504E003DA4FF0000218
:10298000A5F10105002AECD002981199C0E90231A5
:10299000C0E9004579E70000000014400000F03F66
:1029A000300000000000F0430000E03F2DE9FF4F41
:1029B00095B09A46884606460025EEE1252877D14F
:1029C00000242746F94A0121039400E0044316F845
:1029D000013F203B01FA03F01042F7D130782A285A
:1029E00011D06FF02F033078A0F13002092A16D8E9
:1029F000039A44F0020402EB820203EB4202104409
:102A0000761C0390EFE758F8042B0392002A03DAB0
:102A1000504244F40054039044F00204761C307891
:102A20002E2816D116F8010F44F004042A280DD0E0
:102A30006FF02F023078A0F13003092B09D807EB93
:102A4000870302EB4303C718761CF3E758F8047BAF
:102A5000761C30786C280FD006DC4C2817D06828FC
:102A60000DD06A2814D104E0742810D07A280FD130
:102A70000DE044F400140AE044F4801401E044F44E
:102A800040147278824202D104F58014761C761CC0
:102A9000307866280BD013DC582877D009DC002862
:102AA00075D04528F6D04628F4D047281AD193E1AE
:102AB00018E0632835D0642879D0652812D18BE1DD
:102AC000702873D008DC6728F1D069286FD06E2891
:102AD0000DD06F2806D1ACE073282CD0752874D0A7
:102AE000782853D05246179990476D1C54E1C4F38F
:102AF0000250022809D003280DD0D8F8001004286D
:102B00000DD00D6008F1040846E1D8F80010EA176E
:102B1000C1E90052F6E7D8F800100D80F2E70D7019
:102B2000F0E718F8041B8DF8001000208DF8010064
:102B3000EB46012003E058F804BB4FF0FF3061077B
:102B40004FF0000102D40DE009F101018946B942BC
:102B50000FDA8145F8DB1BF809100029F4D108E0F1
:102B600009F1010189468142FADB1BF809100029AD
:102B7000F6D103985346A0EB090721463846179A29
:102B800000F080FA284400EB090507E044E008E182
:102B90000DE01BF8010B524617999047B9F1010956
:102BA000F7D2534621463846179AF2E039E00A2117
:102BB000C4F302524FF0000B0091022A06D058F8DD
:102BC000040BC117032A09D00AE023E008F107002B
:102BD00020F00702F2E80201904605E000B2C117BA
:102BE000042A01D140B2C117002906DA0A460021A1
:102BF000404261EB02012D2202E0220504D52B2286
:102C00008DF80420012203E0E20701D02022F7E73B
:102C1000914657E00A2100E010214FF0000B00918F
:102C20000BE010214FF0000B44F004040827009142
:102C300003E008204FF0000B0090C4F30252022A78
:102C400005D058F8040B0021032A08D008E008F149
:102C5000070020F00702F2E80201904603E080B28C
:102C6000042A00D1C0B24FF0000922072AD53278D9
:102C7000702A07D0DDF800C08CF0100C5CEA0B0C59
:102C800005D00EE040228DF80420012208E050EA31
:102C9000010306D030238DF804308DF80520022280
:102CA0009146009B83F0080353EA0B030AD150EAD4
:102CB000010201D1620705D530228DF804204FF0C2
:102CC00001097F1E3278582A04D039A20C920CAA2E
:102CD00002920BE03BA2F9E75B46009AFDF730FB5E
:102CE0000C9B9B5C029A521E0292137050EA0102E6
:102CF000F2D1029804A9081A00F1200B600702D54E
:102D000024F4803400E001275F4502DDA7EB0B00CF
:102D100000E0002000EB0B01009003984944401AAA
:102D20000390E00306D453462146179A039800F017
:102D3000A9F90544002706E001A85246C05D17998D
:102D400090476D1C7F1C4F45F6DBE0030CD55346C6
:102D50002146179A039800F095F9054404E03020C5
:102D60005246179990476D1C0099481E0090002903
:102D7000F5DC08E00298029952460078491C02915D
:102D8000179990476D1CBBF10001ABF1010BF1DC11
:102D90005BE100F065F90544761C307800287FF48B
:102DA0000DAE19B02846BDE8F08F000009280100DB
:102DB00030313233343536373839616263646566B1
:102DC0000000000030313233343536373839414273
:102DD0004344454600000000600700D4062708F180
:102DE000070020F00700F0E80223804603F0004CC3
:102DF0005FEA0C0001D097A009E0200501D596A05C
:102E000005E0E00701D095A001E0AFF24C0013907F
:102E1000307823F0004365280CD006DC452809D023
:102E200046281DD047287FD13BE0662818D0672868
:102E30007AD136E00021112F01DB112000E0781C4F
:102E4000CDE9000104A90CA8FFF7EEFCDDE90D01B6
:102E50000C9A4FF0000B07F10109109200914EE01F
:102E60004FF000400097CDE9011004A90CA8FFF72E
:102E7000DBFCDDE90D020C9B0F994FF0000B914636
:102E80001093009211B9791C00EB0109B7EB09000E
:102E900003D4C0F1FF3B07F10109A9EB0700019042
:102EA00042E0012F00DA01270021112F01DD11205E
:102EB00000E03846CDE9000104A90CA8FFF7B4FCF6
:102EC000DDE90D010C9A00914FF0000BB94610920C
:102ED00021070FD4009A4A4503DA914601E0A9F18F
:102EE0000109B9F1010F05DD109AA9F10101515C49
:102EF0003029F4D0B84202DA10F1040F03DA0121CC
:102F0000CDE9011010E0002803DC8344A9EB0001A7
:102F100002E0411C494500DD8946A0EB0B00401C46
:102F200001904FF000400290200705D401984845D9
:102F300002DB4FF0FF30019000208DF84B0002982B
:102F40000DF14B07B0F1004F25D002200C902B2043
:102F50000D90029800280CDA404202902D200D902E
:102F600007E00A210298FDF7D5F93031029007F801
:102F7000011D0C99481E0C900029F2DC02980028D3
:102F8000EFD1791E0D980870307800F0200040F0E5
:102F9000450007F8020D11A8C01BC01D0290139830
:102FA000007800B1012000EB0901019801EBE0710C
:102FB000029801440398401A401E0390E00306D48F
:102FC00053462146179A039800F05CF8054413987D
:102FD000007818B15246179990476D1CE00323D52D
:102FE00053462146179A039800F04CF805441BE01D
:102FF000BBF1000F07DB0098584504DD10981799C6
:1030000010F80B0001E017993020524690470198C4
:103010000BF1010B401E05F10105019004D12E209A
:103020005246179990476D1CB9F10001A9F10109A9
:10303000DEDC05E017F8010B5246179990476D1C2E
:103040000299481E02900029F4DC53462146179A43
:1030500003989EE62D0000002B00000020000000D9
:103060002DE9F041044600251E461746880404D485
:1030700005E039462020B0476D1C641EF9D528466E
:10308000BDE8F0812DE9F041044600251E4690463A
:10309000C80301D5302700E02027880404D505E0C7
:1030A00041463846B0476D1C641EF9D52846BDE838
:1030B000F081032000E000BF011EA0F10102D0B2A8
:1030C000F9D17047022000E000BF011EA0F101020B
:1030D000D0B2F9D17047002106E0052100BF0A1ED9
:1030E000A1F10103D9B2FAD1021EA0F10100F4D17D
:1030F0007047000070B504460D46E1B20548FFF781
:1031000050FB00BF80210348FFF77EFA0028F9D06A
:10311000204670BD003801401CB500254FF0010964
:10312000FEF7ECFBFFF728FAFEF7B8FBFFF788F98C
:10313000FFF73EFBFDF7ECFDFDF782FC4EA0FFF72D
:1031400053FB53A0FFF750FB2F20FEF76DF8C5B2DD
:10315000C32D09D0294656A0FFF746FB40F2FF32A7
:1031600058490020FDF7CAFFFDF78AFD40F2FF3203
:1031700055490020FDF7E8FEFEF7C0FC0020FEF7F1
:103180003DFC0020FEF767FC00204F4940238022D1
:10319000CDE900100146FEF7BBFDFEF793FD69E0A7
:1031A000FEF71EFB0446002C64D00A2C60D2DFE838
:1031B00004F05F0509171B234F53575B43A0FFF72C
:1031C00013FB56E045A0FFF70FFB89F00109B9F1A9
:1031D000000F02D0FEF730FC01E0FEF71EFC48E0D5
:1031E00041A0FFF701FB44E043A0FFF7FDFA0121F6
:1031F0004548FDF71FFB3CE044A0FFF7F5FA4648C1
:103200000088FDF753F883464FF08B41FCF79EFF93
:103210008246FDF750F84FF06632404BCDE9000191
:10322000FCF7D2FF0746FDF759F806463A480188F1
:103230003BA0FFF7D9FA3046FDF73DF807463A467E
:103240000B4640A0FFF7D0FA47A0FFF7CDFA10E0F9
:1032500047A0FFF7C9FA0CE049A0FFF7C5FA08E05C
:103260004BA0FFF7C1FA04E04CA0FFF7BDFA00E065
:1032700000BF00BF94E700000ACED2CAC74B656CFE
:1032800065652EC4E3BAC353544D3332210A00009E
:103290000A48657265206973204B656C65652E4828
:1032A000656C6C6F2053544D3332210A00000000CE
:1032B0000A454550524F4D5F74203D2030782578A7
:1032C0000A00000028000020400400200A4B455955
:1032D0005F315F444F574E0A000000000A4B4559CA
:1032E0005F315F55500A00000A4B45595F315F4C12
:1032F0004F4E470A000000000A4B45595F325F44B9
:103300004F574E0A00000000002401400A4B455967
:103310005F325F55500A00003804002066660A409C
:103320000D0A205468652063757272656E742041C1
:10333000442076616C7565203D2030782530345806
:10334000200D0A000D0A20546865206375727265AD
:103350006E742041442076616C7565203D202566A1
:103360002056200D0A0000000D0A0D0A0000000082
:103370000A4B45595F325F4C4F4E470A0000000030
:103380000A4B45595F335F444F574E0A0000000017
:103390000A4B45595F335F55500A00000A4B4559A7
:1033A0005F335F4C4F4E470A0000000010B500220B
:1033B00011461046FEF7B6FE002211461046FEF7F3
:1033C000B1FE002211461046FEF7ACFE0022114667
:1033D0001046FEF7A7FE6420FFF77DFE10BD00003B
:1033E000003400080000002040040000DE07000850
:1033F0000036000840040020D80C000018280008FF
:103400001184A24A04680901020304060708090C92
:1034100069100520020406083EFFFF0303F30124A0
:103420000303FF1AC301211812FCFC3333CFCFC3AF
:10343000C3CFCF3C3C0303FCFCC001191FDD3F3F61
:103440003FF3321933013E200E1F1F1010939313C8
:1034500013939390909F200F90906F6FFCFC838349
:10346000FFFFECEC9C9C2814F3F30F0FFFFF8C8CF8
:103470009393ECEC736C6C6C9F80803229301E133C
:103480001310109F33013E181B86869E9E9F9FE659
:10349000E6FFFF9999999E9E818106069F9F676727
:1034A0000707810128099898797978780101101324
:1034B00019192009E0E0E0E7E1E1868629190740D3
:1034C0001E1E9E9EFFFF281AE7E767670101FFFFA8
:1034D0008787676799FFFF81816666F9F91818E6A3
:1034E000E686201C79790606E0E080809E9EFEFE3E
:1034F000F8F8E001010119E1E1E7E78080E7E71C66
:10350000E6E67F010140237979280A1818E7E78762
:10351000879E9E99071819E6E68787FEFE8181E15E
:10352000E19898F8F87E7E8181FFFF79797F7F06A8
:103530003100124080070799990101797986861F29
:103540001F8686F8F8102C88887676F6F6F9F971D9
:1035500071F1F189F7F77F7F71718181F9F9FFFFCF
:10356000F7F70707F9F9060607078787F6F6808059
:10357000F9F90015408E8E8EFFF0F08989808088E1
:10358000888F8F0E0E8F8F7F7F3EFCFC0C0CCC0142
:10359000240C0CFC180AF3F33F3FFCFC0F0F030153
:1035A0001A0C01180F3F3FFFFF33330303C3C3332C
:1035B00033FC3F0E001140C0C0CCCCC0C0FFFF0C9C
:1035C0000CC3C3CFCF3F3F1AFF523ACF0119562148
:1035D00029721C3F3FF0012BC3C37A23C3C3233C92
:1035E0003C280AF0F00C0C03F3F3F3F07E180AFC0D
:1035F000FCCFCFFFFFCCCCF00E0122A201A2100025
:04000005080000ED02
:00000001FF
