:020000040800F2
:1000000000040020050100085B01000853010008FE
:10001000570100084D010008AD0200080000000073
:100020000000000000000000000000005F01000868
:1000300051010008000000005D01000849020008AD
:100040001F0100081F0100081F0100081F01000810
:100050001F0100081F0100081F0100081F01000800
:100060001F0100081F0100081F0100081F010008F0
:100070001F0100081F0100081F0100081F010008E0
:100080001F0100081F0100081F0100081F010008D0
:100090001F0100081F0100081F0100081F010008C0
:1000A0001F0100081F0100081F0100081F010008B0
:1000B0001F0100081F0100081F0100081F010008A0
:1000C0001F0100081F0100081F0100081F01000890
:1000D0001F0100081F0100081F0100081F01000880
:1000E0001F0100081F0100081F010008DFF810D0E1
:1000F00000F01AF800480047CF020008AFF3008074
:10010000000400200648804706480047FEE7FEE757
:10011000FEE7FEE7FEE7FEE7FEE7FEE7FEE7FEE7B7
:100120004D020008ED000008064C074D06E0E068AF
:1001300040F0010394E8070098471034AC42F6D32E
:10014000FFF7D8FFD4020008E402000800BFFEE772
:10015000704700BFFEE700BFFEE77047704770477B
:1001600010B500F001F810BD0CB500200190009012
:100170003348006840F480303149086000BF30489F
:10018000006800F4003000900198401C0190009835
:1001900018B90198B0F5A06FF1D12948006800F4B2
:1001A000003010B10120009001E000200090009884
:1001B000012843D12348006840F01000214908601D
:1001C0000846006820F0070008600846006840F014
:1001D000020008601A4840681949486008464068AB
:1001E00048600846406840F48060486008464068BF
:1001F00020F47C1048600846406840F4E8104860ED
:100200000846006840F08070086000BF0C48006835
:1002100000F000700028F9D00948406820F0030081
:10022000074948600846406840F00200486000BF47
:100230000348406800F00C000828F9D10CBD00000C
:1002400000100240002002407047000010B5134823
:10025000006840F0010011490860084640681049F4
:1002600008400E494860084600680E4908400B499E
:1002700008600846006820F480200860084640684E
:1002800020F4FE0048604FF41F008860FFF768FF0D
:100290004FF000600449086010BD000000100240EB
:1002A0000000FFF8FFFFF6FE08ED00E000BFFEE7EC
:1002B00002E008C8121F08C1002AFAD1704770472F
:1002C000002001E001C1121F002AFBD1704700206D
:1002D00070470000E4020008000000200004000055
:0402E000C002000850
:04000005080000ED02
:00000001FF
