:020000040800F2
:10000000281000200501000855080008DB0500083D
:1000100051080008EF0100081B1000080000000054
:100020000000000000000000000000004D09000872
:10003000F30100080000000057080008A10D0008A7
:100040001F0100081F0100081F0100081F01000810
:100050001F0100081F0100081F0100081F01000800
:100060001F0100081F0100081F0100081F010008F0
:100070001F0100081F0100081F0100081F010008E0
:100080001F0100081F0100081F0100081F010008D0
:100090001F0100081F0100081F0100081F010008C0
:1000A0001F0100081F0100081F0100081F010008B0
:1000B0001F0100081F0100081F0100081F010008A0
:1000C0001F0100081F0100081F0100081F01000890
:1000D0001F010008050E00081F0100081F0100088D
:1000E0001F0100081F0100081F010008DFF810D0E1
:1000F00000F04CF800480047F1180008AFF300800A
:10010000281000200648804706480047FEE7FEE723
:10011000FEE7FEE7FEE7FEE7FEE7FEE7FEE7FEE7B7
:10012000A50D0008ED0000082DE9F05F0546002050
:1001300092469B4688460646814640241BE0284658
:1001400041464746224600F042F853465A46C01AF6
:10015000914110D311461846224600F029F82D1A75
:1001600067EB01084F4622460120002100F020F8ED
:1001700017EB00094E41201EA4F10104DFDC4846C4
:1001800031462A464346BDE8F09F0000064C074D25
:1001900006E0E06840F0010394E807009847103457
:1001A000AC42F6D3FFF7A6FF7C1A00089C1A0008A1
:1001B000202A04DB203A00FA02F100207047914027
:1001C000C2F1200320FA03F3194390407047202A1C
:1001D00004DB203A21FA02F00021704721FA02F3F1
:1001E000D040C2F12002914008431946704700BF39
:1001F000FEE7704710B500244FF4805013490860A3
:100200001AE01348006800F4006020B91048006844
:1002100000F4806008B1012000E0002028B94FF40C
:1002200080500A490860601CC4B20A2C04D1002026
:1002300000F0D4FA002010BD04490868411E034AAA
:1002400011600028DDD10120F5E700001C0000202E
:10025000080C014010B5FFF7CDFF18B910A000F051
:10026000A1FF10BD11A000F09DFF002404E0FF20BD
:1002700013490855601C84B2B4F5806FF7DB4FF466
:1002800080620F49002000F02BFA18B90DA000F091
:1002900089FFE6E710A000F085FF00BFE1E700005E
:1002A0000AD7DCCFDFC3A6210D0A00000ABCECB2DE
:1002B000E2B5BDB4AED0D0454550524F4D210A00F5
:1002C000280000200AB2C1B3FD656570726F6DB37E
:1002D000F6B4EDA3A10D0A000AB2C1B3FD656570C5
:1002E000726F6DB3C9B9A6A3A10D0A0010B501F0D4
:1002F000B1FA4FF400600D49086000240EE04FF49D
:1003000080600A49086001F009FA4FF480600749EB
:10031000091D086001F002FA601CC4B2092CEEDB72
:1003200001F098FA01F0B0FA10BD0000100C014085
:1003300010B5FFF75FFF20B92CA000F033FF0020BD
:1003400010BD2DA000F02EFF002403E02F490C5516
:10035000601C84B2B4F5806FF8DB4FF480622B49E7
:10036000002000F0BDF920B929A000F01BFF0020FB
:10037000E6E72CA000F016FFFFF73CFF4FF4806289
:100380002D49002000F02CF920B92CA000F00AFF24
:100390000020D5E72EA000F005FF00241DE0264830
:1003A000005D1A49095D884209D02348015D2FA0EC
:1003B00000F0F8FE30A000F0F5FE0020C0E71E4877
:1003C000015D36A000F0EEFE04F00F000F2802D110
:1003D00008A000F0E7FE601C84B2B4F5806FDEDB9D
:1003E00030A000F0DFFE0120AAE700000AD7DCCF32
:1003F000DFC3A6210D0A00000ABCECB2E2B5BDB411
:10040000AED0D0454550524F4D210A00280400205F
:100410000AD0B4656570726F6DB3F6B4EDA3A10D2B
:100420000A0000000AD0B4656570726F6DB3C9B977
:10043000A6A3A10D0A000000280800200AB6C16585
:100440006570726F6DB3F6B4EDA3A10D0A000000E4
:100450000AB6C1656570726F6DB3C9B9A6A3ACCA9F
:10046000FDBEDDC8E7CFC2A3BA0D0A000A30782569
:100470003033582000000000B4EDCEF33A4545502B
:10048000524F4DB6C1B3F6D3EBD0B4C8EBB5C4CA26
:10049000FDBEDDB2BBD2BBD6C2000000202530338A
:1004A000580000000A656570726F6DB6C1D0B4B2B5
:1004B000E2CAD4B3C9B9A60D0A0000002DE9F04183
:1004C000024600250026002000230024002791F882
:1004D00003C00CF00F0591F803C00CF0100CBCF138
:1004E000000F03D091F802C04CEA050591F800C056
:1004F000BCF1000F31D0146800202BE04FF0010C4C
:100500000CFA00F3B1F800C00CEA03069E4220D1B9
:1005100083004FF00F0C0CFA03F7BC4305FA03FC01
:100520004CEA040491F803C0BCF1280F06D14FF047
:10053000010C0CFA00FCC2F814C00AE091F803C0E8
:10054000BCF1480F05D14FF0010C0CFA00FCC2F8C9
:1005500010C0401C0828D1D31460B1F800C0BCF111
:10056000FF0F34DD546800202EE000F1080C4FF03E
:10057000010808FA0CF3B1F800C00CEA03069E4229
:1005800021D183004FF00F0C0CFA03F7BC4305FA9E
:1005900003FC4CEA040491F803C0BCF1280F05D118
:1005A00000F1080C08FA0CF8C2F8148091F803C0A6
:1005B000BCF1480F07D100F1080C4FF0010808FA10
:1005C0000CF8C2F81080401C0828CED35460BDE857
:1005D000F081416170470161704700BFFEE7000094
:1005E00070B504460E46154601F034F9A02141EAE3
:1005F000E41101F0A60001F0FFF84FF480503249F9
:1006000008600BE030480068401E2F49086008462B
:10061000006818B9012000F0E1F84EE001F046F959
:100620000028EFD1E0B201F0E7F84FF480502649FE
:1006300008600BE024480068401E23490860084613
:10064000006818B9022000F0C9F836E001F02EF970
:100650000028EFD101F0FEF8A02141EAE41101F0F9
:10066000A601481C01F0C8F84FF4805016490860F4
:100670000BE015480068401E1349086008460068F2
:1006800018B9032000F0AAF817E001F00FF90028CC
:10069000EFD10EE001F08CF83070761C012D04D102
:1006A00001F06EF801F0F0F801E001F01BF8681EAF
:1006B00085B2002DEED1012070BD04A000F072FDC6
:1006C00001F0E2F80020F7E71C0000200A45455041
:1006D000524F4D2052454144204552524F520A003C
:1006E0002DE9F04106460F4690463546002458E075
:1006F0001CB105F00F00002837D101F0C5F84FF408
:1007000080502F49086000BF01F0A4F8A02141EA01
:10071000E51101F0A60001F06FF829480068401EBD
:10072000274908600846006818B9042000F056F808
:100730003EE001F0BBF80028E6D1E8B201F05CF839
:100740004FF480501E4908600BE01D480068401EB1
:100750001B4908600846006818B9052000F03EF8FB
:1007600026E001F0A3F80028EFD1385D01F044F84D
:100770004FF48050124908600BE011480068401E99
:100780000F4908600846006818B9062000F026F8EE
:100790000EE001F08BF80028EFD1681C85B2601CD8
:1007A00084B24445A4DB01F06FF80120BDE8F0817C
:1007B00004A000F0F7FC01F067F80020F6E7000065
:1007C0001C0000200A454550524F4D2057524954B5
:1007D00045204552524F520A0000000010B5044611
:1007E000214602A000F0DEFC002010BD3C3C2D455F
:1007F0004550524F4D2D4552524F522D3E3E200AEC
:10080000493243B5C8B4FDB3ACCAB1216572726F49
:1008100072436F6465203D2025640A0008B50121FC
:10082000082000F019F801208DF8020010208DF842
:1008300003000001ADF8000069460448FFF73EFEE2
:100840004FF4807001491431086008BD000C01406C
:1008500000BFFEE77047704729B1064A926902431C
:10086000044B9A6104E0034A92698243014B9A6106
:10087000704700000010024030B500210022002423
:1008800000232D4D6D6805F00C0121B1042905D020
:10089000082923D105E0294D056022E0274D056098
:1008A0001FE0254D6D6805F47012234D6D6805F449
:1008B0008034022505EB92421CB9214D5543056059
:1008C0000BE01D4D6D6805F400351DB11C4D554301
:1008D000056002E0194D5543056002E0174D0560C3
:1008E00000BF00BF144D6D6805F0F0010909154DFA
:1008F0006B5C0568DD4045600F4D6D6805F4E06197
:10090000090A104D6B5C4568DD4085600A4D6D68D5
:1009100005F46051C90A0B4D6B5C4568DD40C5604C
:10092000054D6D6805F44041890B074D6B5CC5684A
:10093000B5FBF3F5056130BD0010024000127A00EE
:1009400000093D000000002010000020704700005A
:1009500010B54FF400710648FFF73DFE00BF4FF49D
:1009600000710348FFF735FE00F067FE10BD000080
:10097000000C014010B54FF400710948FFF72BFE41
:1009800000F064FE4FF400710548FFF722FE00BF3F
:1009900000BF00BF00BF00BF00BF00BF00BF10BD51
:1009A000000C014070B504460E46154606F0800066
:1009B00010B9FFF7CDFF01E0FFF7DCFF06F04000C4
:1009C00010B9FFF7C5FF01E0FFF7D4FF06F02000E4
:1009D00010B9FFF7BDFF01E0FFF7CCFF06F01000F4
:1009E00010B9FFF7B5FF01E0FFF7C4FF06F00800FC
:1009F00010B9FFF7ADFF01E0FFF7BCFF06F0040000
:100A000010B9FFF7A5FF01E0FFF7B4FF06F0020001
:100A100010B9FFF79DFF01E0FFF7ACFF06F0010002
:100A200010B9FFF795FF01E0FFF7A4FF04F0800085
:100A300010B9FFF78DFF01E0FFF79CFF04F04000C5
:100A400010B9FFF785FF01E0FFF794FF04F02000E5
:100A500010B9FFF77DFF01E0FFF78CFF04F01000F5
:100A600010B9FFF775FF01E0FFF784FF04F00800FD
:100A700010B9FFF76DFF01E0FFF77CFF04F0040001
:100A800010B9FFF765FF01E0FFF774FF04F0020003
:100A900010B9FFF75DFF01E0FFF76CFF04F0010004
:100AA00010B9FFF755FF01E0FFF764FF05F0800084
:100AB00010B9FFF74DFF01E0FFF75CFF05F04000C4
:100AC00010B9FFF745FF01E0FFF754FF05F02000E4
:100AD00010B9FFF73DFF01E0FFF74CFF05F01000F4
:100AE00010B9FFF735FF01E0FFF744FF05F00800FC
:100AF00010B9FFF72DFF01E0FFF73CFF05F0040000
:100B000010B9FFF725FF01E0FFF734FF05F0020001
:100B100010B9FFF71DFF01E0FFF72CFF05F0010002
:100B200010B9FFF715FF01E0FFF724FF70BD10B506
:100B300000F002F810BD00000CB5002001900090FC
:100B40003348006840F480303149086000BF3048C5
:100B5000006800F4003000900198401C019000985B
:100B600018B90198B0F5A06FF1D12948006800F4D8
:100B7000003010B10120009001E0002000900098AA
:100B8000012843D12348006840F010002149086043
:100B90000846006820F0070008600846006840F03A
:100BA000020008601A4840681949486008464068D1
:100BB00048600846406840F48060486008464068E5
:100BC00020F47C1048600846406840F4E810486013
:100BD0000846006840F08070086000BF0C4800685C
:100BE00000F000700028F9D00948406820F00300A8
:100BF000074948600846406840F00200486000BF6E
:100C00000348406800F00C000828F9D10CBD000032
:100C1000001002400020024010B513A000F0C2FAFC
:100C20004FF4E13113A000F0BDFA17A000F0BAFABA
:100C30001CA000F0B7FA22A000F0B4FA27A000F040
:100C4000B1FA2DA000F0AEFA32A000F0ABFA38A055
:100C500000F0A8FA3DA000F0A5FA43A000F0A2FA27
:100C600048A000F09FFA10BD0A504C5A2073656EE0
:100C7000643A0A0020205553415254A3BA256420F7
:100C8000382D4E2D31200A00202020434D442020B5
:100C9000202D2D2D2D2D2D2020202052474220208B
:100CA000200A00002020202031202020202D2D2D62
:100CB0002D2D2D202020205245442020200A0000E8
:100CC0002020202032202020202D2D2D2D2D2D20C4
:100CD0002020475245454E20200A00002020202099
:100CE00033202020202D2D2D2D2D2D202020204281
:100CF0004C554520200A00002020202034202020B0
:100D0000202D2D2D2D2D2D20202059454C4C4F5779
:100D1000200A00002020202035202020202D2D2DED
:100D20002D2D2D202020505552504C45200A0000DA
:100D30002020202036202020202D2D2D2D2D2D204F
:100D40002020204359414E20200A0000202020204E
:100D500037202020202D2D2D2D2D2D2020205748CF
:100D600049544520200A000020202020382020203F
:100D7000202D2D2D2D2D2D2020205247424F4E204D
:100D8000200A00002020202039202020202D2D2D79
:100D90002D2D2D2020205247424F4646200A00008C
:100DA0007047000010B51348006840F00100114979
:100DB000086008464068104908400E4948600846E7
:100DC00000680E4908400B4908600846006820F496
:100DD000802008600846406820F4FE0048604FF418
:100DE0001F008860FFF7A3FE4FF000600449086011
:100DF00010BD0000001002400000FFF8FFFFF6FEEB
:100E000008ED00E010B540F22551064800F065F805
:100E100038B1044800F0F8F8C4B22146014800F0A7
:100E2000F8F810BD0038014021B1828942F4005227
:100E3000828104E082894DF6FF731A4082817047F7
:100E400000B585B001210420FFF706FD01218803CC
:100E5000FFF702FD4FF40070ADF8100018208DF878
:100E6000130003208DF8120004A91348FFF726FB96
:100E70004FF48060ADF8100004208DF8130004A931
:100E80000D48FFF71BFB4FF4E13000900020ADF858
:100E90000400ADF80600ADF80800ADF80C000C2019
:100EA000ADF80A006946054800F042F80121034800
:100EB000FFF7BAFF05B000BD00080140003801404F
:100EC00002460020B1F5007F00D100BF13880B401F
:100ED0000BB1012000E00020704770B502460024ED
:100EE00000230025002040F66A16B14200D100BF61
:100EF000C1F3421501F01F03012606FA03F3012D89
:100F000002D19689334006E0022D02D1168A334081
:100F100001E0968A33400C12012606FA04F4168882
:100F2000344013B10CB1012000E0002070BD00007E
:100F30002DE9F04786B005460E460024A24600BFC4
:100F4000A1460027B08900B100BF2F462C8A4CF67D
:100F5000FF700440F08804432C82AC894EF6F310F5
:100F60000440B08831890843718908430443AC8147
:100F7000AC8A4FF6FF400440B0890443AC8201A81C
:100F8000FFF77AFC1F48874202D1DDF810A001E08C
:100F9000DDF80CA0A88900F4004040B10AEBCA00BB
:100FA00000EB0A1031684900B0FBF1F807E00AEBEA
:100FB000CA0000EB0A1031688900B0FBF1F8642028
:100FC000B8FBF0F004012009642101FB1089A88915
:100FD00000F4004040B1322000EBC900B0FBF1F05A
:100FE00000F00700044308E0322000EB0910642100
:100FF000B0FBF1F000F00F0004432C8106B0BDE817
:10100000F08700000038014001468888C0F30800DE
:101010007047C1F308028280704700BFFEE70000FE
:1010200070B505460C464E48048010E04C4B1A78CB
:101030004C4B19784C4B1878FFF7B4FC284600F05D
:101040001EFB48480088401C00B2464908804548BD
:10105000B0F90000A042E9DD4248048010E0404BB6
:101060001A78404B1978404B1878FFF79BFC2846BC
:1010700000F005FB3A480088401E00B2384908805D
:101080003748B0F900000028E9DA00203449088028
:1010900010E0334B1A78334B1978334B1878FFF73D
:1010A00081FC284600F0EBFA2F480088401C00B273
:1010B0002D4908802C48B0F90000A042E9DD2A48FB
:1010C000048010E0264B1A78264B1978264B1878A6
:1010D000FFF768FC284600F0D2FA22480088401E3C
:1010E00000B2204908801F48B0F900000028E9DA62
:1010F00000201C49088010E0194B1A78194B197808
:10110000194B1878FFF74EFC284600F0B8FA14483F
:101110000088401C00B2124908801148B0F9000054
:10112000A042E9DD0E48048010E00D4B1A780D4B0B
:1011300019780D4B1878FFF735FC284600F09FFA18
:1011400009480088401E00B2074908800648B0F9E7
:1011500000000028E9DA00200349088070BD000083
:1011600018000020160000201400002008B50121FE
:101170000820FFF771FB01208DF8020010208DF888
:1011800003004001ADF8000069460548FFF796F9F5
:1011900000F05AFC4FF4007001491431086008BD9A
:1011A000000C01400FB4054B10B503A9044A029886
:1011B00000F018F810BC5DF814FB0000BD16000824
:1011C0002400002002E008C8121F08C1002AFAD13A
:1011D00070477047002001E001C1121F002AFBD1B7
:1011E000704700002DE9FF4F8DB00F4605460026E1
:1011F00006E025280BD0DDE90F1290476D1C761C08
:1012000028780028F5D111B03046BDE8F08F0024D1
:10121000A246A1460122E94900E0044315F8013F36
:10122000203B02FA03F00842F7D128782A2810D090
:101230006FF02F022878A0F13001092914D80AEBA9
:101240008A0102EB410144F0020400EB010A6D1C2B
:10125000F0E701CF5FEA000A03D544F40054CAF175
:10126000000A44F002046D1C28782E2817D115F8C6
:10127000010F44F004042A280ED06FF02F022878C2
:10128000A0F1300109290AD809EB890102EB4101DB
:1012900000EB01096D1CF2E757F8049B6D1C2878E0
:1012A0006C280FD006DC4C2817D068280DD06A288F
:1012B00014D104E0742810D07A280FD10DE044F442
:1012C00000140AE044F4801401E044F44014697806
:1012D000814202D104F580146D1C6D1C28786E28A3
:1012E0001ED00CDC632830D004DC00288BD05828BA
:1012F00011D19FE0642867D069280CD164E073287D
:101300002DD004DC6F2872D0702804D194E07528A9
:101310006ED078286DD0DDE90F129047761C4BE136
:10132000C4F30250022806D0032809D0042801CFB4
:1013300009D0066040E101CFF117C0E900613BE14F
:1013400001CF068038E1067036E117F8040B8DF8FE
:10135000000000208DF80100EB46012003E057F863
:1013600004BB4FF0FF3061074FF0000102D40DE0E5
:1013700008F10101884649450FDA8045F8DB1BF882
:1013800008100029F4D108E008F1010188468142E3
:10139000FADB1BF808100029F6D1DDE90F23AAEBD0
:1013A00008008146214600F031F9304400EB080680
:1013B00004E0DDE90F121BF8010B9047B8F10108BA
:1013C000F7D221464846F2E00A21C4F302524FF018
:1013D000000B0891022A04D001CFC117032A09D0BB
:1013E0000AE0FF1D27F00707F7E8020108E02CE0FC
:1013F0001EE01FE000B2C117042A01D140B2C1179C
:10140000021E71F1000206DA0023D0EB030063EB49
:1014100001012D2202E0220504D52B228DF8242083
:10142000012203E0E20701D02022F7E7904653E0D3
:101430000A210BE0102109E010214FF0000B44F0CD
:1014400004044FF00809089103E008214FF0000B55
:101450000891C4F30252022A04D001CF0021032ACA
:1014600006D006E0FF1D27F00707F7E8020103E0BA
:1014700080B2042A00D1C0B24FF0000822072BD559
:101480002A78702A07D0DDF820C08CF0100C5CEAB6
:101490000B0C05D00EE040228DF82420012208E03C
:1014A00050EA010306D030238DF824308DF8252032
:1014B00002229046089B83F0080353EA0B030BD1EA
:1014C00050EA010201D1620706D530228DF82420AE
:1014D0004FF00108A9F101092A78582A04D038A24E
:1014E0000B9208AA0A920BE03AA2F9E75B46089A27
:1014F000FEF71AFE0B9B9B5C0A9A521E0A9213700F
:1015000050EA0102F2D10A98ADEB000000F1200B85
:10151000600702D524F4803401E04FF00109D94579
:1015200002DDA9EB0B0000E0002000EB0B014144C1
:101530000890AAEB010AE00306D4DDE90F23214657
:10154000504600F063F806444FF0000908E009A98E
:1015500011F80900DDE90F12904709F10109761C25
:10156000C145F4DBE0030CD5DDE90F2321465046ED
:1015700000F04CF8064404E0DDE90F1230209047FB
:10158000761C0899481E08900029F5DC08E00A98A6
:101590000A990078491C0A91DDE90F129047761CE0
:1015A000BBF10001ABF1010BF1DC21465046DDE956
:1015B0000F2300F019F806446D1C21E609280100EC
:1015C00030313233343536373839616263646566B9
:1015D000000000003031323334353637383941427B
:1015E00043444546000000002DE9F0410446002533
:1015F0001E461746880404D405E039462020B0472B
:101600006D1C641EF9D52846BDE8F0812DE9F04136
:10161000044600251E469046C80301D5302700E049
:101620002027880404D505E041463846B0476D1CA4
:10163000641EF9D52846BDE8F081032000E000BF14
:10164000011EA0F10102D0B2F9D17047022000E0E2
:1016500000BF011EA0F10102D0B2F9D170470021F4
:1016600007E042F6E06100BF0A1EA1F1010399B252
:10167000FAD1021EA0F1010398B2F2D17047002105
:1016800006E0052100BF0A1EA1F10103D9B2FAD17B
:10169000021EA0F10100F4D17047000010B504460D
:1016A00000BF20210448FFF70BFC0028F9D00248B6
:1016B000FFF7AAFC10BD00000038014070B50446D9
:1016C0000D46E1B20548FFF7A4FC00BF80210348A6
:1016D000FFF7F6FB0028F9D0204670BD0038014026
:1016E000FFF7DCBF10B54FF400600B49086000F055
:1016F00015F84FF480600849091F086000F00EF8E3
:101700004FF480600449086000F008F84FF400606E
:101710000149091F086010BD140C0140002001E0C0
:10172000411CC8B20728FBDB7047000008B5012147
:101730000820FFF791F84FF44060ADF80000032057
:101740008DF8020014208DF8030069460B48FEF75F
:10175000B5FE0220ADF8000001208DF80200102037
:101760008DF8030069460548FEF7A8FE02210348EC
:10177000FEF72FFFFEF7BAFD08BD0000000C014088
:1017800010B54FF4006009490860FFF7C7FF4FF438
:10179000806006490860FFF7C1FF4FF4806003498D
:1017A000091D0860FFF7BAFF10BD0000100C0140D2
:1017B00070B50024002518E06006040E4FF4806028
:1017C0000C490860FFF7AAFF0A480838006800F4CF
:1017D000006008B1601CC4B24FF480600549091D67
:1017E0000860FFF79BFF681CC5B2082DE4DB2046AC
:1017F00070BD0000100C014070B50446002524E0C7
:1018000004F0800020B14FF400601149086004E04A
:101810004FF400600E49091D0860FFF77FFF4FF489
:1018200080600B490860FFF779FF4FF4806008493A
:10183000091D0860072D02D14000091F08606006DD
:10184000040EFFF76BFF681CC5B2082DD8DB70BD16
:10185000100C014010B54FF400600A4908604010B8
:101860000860FFF75BFF4FF400600649091D086040
:10187000FFF754FF4FF480600249091D0860FFF72D
:101880004DFF10BD100C014010B54FF4006006492B
:1018900008604010091F0860FFF740FF4FF4006028
:1018A0000149091F086010BD140C014010B54FF428
:1018B00000600E490860FFF731FF4FF480600B496C
:1018C0000860FFF72BFF09480838006800F4006043
:1018D00008B1012400E000244FF480600349091D91
:1018E0000860FFF71BFF204610BD0000100C0140F0
:1018F0000024FEF793FFFFF7A3FAFFF737FCFFF78B
:1019000015FF3CA0FFF74EFC40A0FFF74BFC4FF447
:101910009670FFF7A4FE4FF480714448FEF75BFE1B
:101920004FF49670FFF79BFE4FF480713F48FEF72F
:1019300050FEFEF78FFCFEF7FBFC012805D10022CC
:101940003F211046FFF72EF804E0002211463F2009
:10195000FFF728F8FFF760F94BE03548FFF7C0FEC6
:10196000C4B2214633A0FFF71DFCA4F131000928C1
:101970003BD2DFE800F0050B11171D23292F34009F
:10198000002211463F20FFF70DF831E000223F21F1
:101990001046FFF707F82BE03F2200210846FFF72B
:1019A00001F825E000223F210846FEF7FBFF1FE07B
:1019B0003F2200211046FEF7F5FF19E03F221146B5
:1019C0000020FEF7EFFF13E03F2211461046FEF71E
:1019D000E9FF0DE00F211B48FFF722FB08E0002282
:1019E00011461046FEF7DEFF02E0FFF715F900BFD3
:1019F00000BFB2E70ACED2CAC74B656C65652EC47C
:101A0000E3BAC353544D3332210A00000A486572C9
:101A100065206973204B656C65652E48656C6C6F3D
:101A20002053544D3332210A00000000000C0140C5
:101A3000200000200A52656365697665A3BA2563B4
:101A40000A000000A086010010B5002211461046D1
:101A5000FEF7A8FF002211461046FEF7A3FF002262
:101A600011461046FEF79EFF002211461046FEF773
:101A700099FF6420FFF703FE10BD00009C1A0008C8
:101A80000000002028000000C4110008C41A00084B
:101A90002800002000100000D41100080000000001
:101AA00001020304010203040607080902040608F0
:101AB00000000000FF000000001000000000000017
:041AC0000000000022
:04000005080000ED02
:00000001FF
