:020000040800F2
:100000002804002005010008D90200089D0200080C
:10001000D5020008790100089F0A000800000000CE
:10002000000000000000000000000000D1030008F4
:100030007D01000800000000DB0200082508000820
:100040001F0100081F0100081F0100081F01000810
:100050001F0100081F0100081F0100081F01000800
:100060001F0100081F0100081F0100081F010008F0
:100070001F0100081F0100081F0100081F010008E0
:100080001F0100081F0100081F0100081F010008D0
:100090001F0100081F0100081F0100081F010008C0
:1000A0001F0100081F0100081F0100081F010008B0
:1000B0001F0100081F0100081F0100081F010008A0
:1000C0001F0100081F0100081F0100081F01000890
:1000D0001F010008890800081F0100081F0100080F
:1000E0001F0100081F0100081F010008DFF810D0E1
:1000F00000F030F800480047C90E0008AFF3008058
:10010000280400200648804706480047FEE7FEE72F
:10011000FEE7FEE7FEE7FEE7FEE7FEE7FEE7FEE7B7
:1001200029080008ED00000830B50B460146002004
:100130002022012409E021FA02F59D4205D303FAA9
:1001400002F5491B04FA02F52844151EA2F101022A
:10015000F1DC30BD064C074D06E0E06840F00103DD
:1001600094E8070098471034AC42F6D3FFF7C2FF7B
:10017000481000086810000800BFFEE770472DE92E
:10018000F04102460025002600200023002400271D
:1001900091F803C00CF00F0591F803C00CF0100C9F
:1001A000BCF1000F03D091F802C04CEA050591F8AC
:1001B00000C0BCF1000F31D0146800202BE04FF0DC
:1001C000010C0CFA00F3B1F800C00CEA03069E42E1
:1001D00020D183004FF00F0C0CFA03F7BC4305FA53
:1001E00003FC4CEA040491F803C0BCF1280F06D1CB
:1001F0004FF0010C0CFA00FCC2F814C00AE091F8B0
:1002000003C0BCF1480F05D14FF0010C0CFA00FC03
:10021000C2F810C0401C0828D1D31460B1F800C047
:10022000BCF1FF0F34DD546800202EE000F1080C13
:100230004FF0010808FA0CF3B1F800C00CEA03060D
:100240009E4221D183004FF00F0C0CFA03F7BC4300
:1002500005FA03FC4CEA040491F803C0BCF1280F32
:1002600005D100F1080C08FA0CF8C2F8148091F8D6
:1002700003C0BCF1480F07D100F1080C4FF0010892
:1002800008FA0CF8C2F81080401C0828CED354603D
:10029000BDE8F081416170470161704700BFFEE732
:1002A00008B50121082000F019F801208DF802009E
:1002B00010208DF803000001ADF8000069460448E5
:1002C000FFF75DFF4FF4807001491431086008BDED
:1002D000000C014000BFFEE77047704729B1064A95
:1002E00092690243044B9A6104E0034A9269824393
:1002F000014B9A61704700000010024030B50021A8
:100300000022002400232D4D6D6805F00C0121B161
:10031000042905D0082923D105E0294D056022E0F4
:10032000274D05601FE0254D6D6805F47012234DC3
:100330006D6805F48034022505EB92421CB9214D0D
:10034000554305600BE01D4D6D6805F400351DB18A
:100350001C4D5543056002E0194D5543056002E010
:10036000174D056000BF00BF144D6D6805F0F0012A
:100370000909154D6B5C0568DD4045600F4D6D68E2
:1003800005F4E061090A104D6B5C4568DD4085604D
:100390000A4D6D6805F46051C90A0B4D6B5C4568E8
:1003A000DD40C560054D6D6805F44041890B074D82
:1003B0006B5CC568B5FBF3F5056130BD001002400C
:1003C00000127A0000093D0000000020100000200B
:1003D0007047000010B54FF400710648FFF75CFF4E
:1003E00000BF4FF400710348FFF754FF00F018FD01
:1003F00010BD0000000C014010B54FF40071094819
:10040000FFF74AFF00F015FD4FF400710548FFF7B4
:1004100041FF00BF00BF00BF00BF00BF00BF00BF63
:1004200000BF10BD000C014070B504460E461546D5
:1004300006F0800010B9FFF7CDFF01E0FFF7DCFF09
:1004400006F0400010B9FFF7C5FF01E0FFF7D4FF49
:1004500006F0200010B9FFF7BDFF01E0FFF7CCFF69
:1004600006F0100010B9FFF7B5FF01E0FFF7C4FF79
:1004700006F0080010B9FFF7ADFF01E0FFF7BCFF81
:1004800006F0040010B9FFF7A5FF01E0FFF7B4FF85
:1004900006F0020010B9FFF79DFF01E0FFF7ACFF87
:1004A00006F0010010B9FFF795FF01E0FFF7A4FF88
:1004B00004F0800010B9FFF78DFF01E0FFF79CFF0B
:1004C00004F0400010B9FFF785FF01E0FFF794FF4B
:1004D00004F0200010B9FFF77DFF01E0FFF78CFF6B
:1004E00004F0100010B9FFF775FF01E0FFF784FF7B
:1004F00004F0080010B9FFF76DFF01E0FFF77CFF83
:1005000004F0040010B9FFF765FF01E0FFF774FF86
:1005100004F0020010B9FFF75DFF01E0FFF76CFF88
:1005200004F0010010B9FFF755FF01E0FFF764FF89
:1005300005F0800010B9FFF74DFF01E0FFF75CFF09
:1005400005F0400010B9FFF745FF01E0FFF754FF49
:1005500005F0200010B9FFF73DFF01E0FFF74CFF69
:1005600005F0100010B9FFF735FF01E0FFF744FF79
:1005700005F0080010B9FFF72DFF01E0FFF73CFF81
:1005800005F0040010B9FFF725FF01E0FFF734FF85
:1005900005F0020010B9FFF71DFF01E0FFF72CFF87
:1005A00005F0010010B9FFF715FF01E0FFF724FF88
:1005B00070BD10B500F002F810BD00000CB50020B1
:1005C000019000903348006840F480303149086061
:1005D00000BF3048006800F4003000900198401CD3
:1005E0000190009818B90198B0F5A06FF1D1294891
:1005F000006800F4003010B10120009001E00020FC
:1006000000900098012843D12348006840F0100072
:10061000214908600846006820F007000860084685
:10062000006840F0020008601A48406819494860B4
:100630000846406848600846406840F4806048606A
:100640000846406820F47C1048600846406840F442
:10065000E81048600846006840F08070086000BFFD
:100660000C48006800F000700028F9D00948406884
:1006700020F00300074948600846406840F0020047
:10068000486000BF0348406800F00C000828F9D11A
:100690000CBD0000001002400020024010B513A065
:1006A00000F0C2FA4FF4E13113A000F0BDFA17A038
:1006B00000F0BAFA1CA000F0B7FA22A000F0B4FAD9
:1006C00027A000F0B1FA2DA000F0AEFA32A000F0A1
:1006D000ABFA38A000F0A8FA3DA000F0A5FA43A0BC
:1006E00000F0A2FA48A000F09FFA10BD0A504C5A40
:1006F0002073656E643A0A0020205553415254A37A
:10070000BA256420382D4E2D31200A0020202043A8
:100710004D442020202D2D2D2D2D2D202020205208
:1007200047422020200A00002020202031202020C5
:10073000202D2D2D2D2D2D202020205245442020F0
:10074000200A00002020202032202020202D2D2DC6
:100750002D2D2D202020475245454E20200A0000F7
:100760002020202033202020202D2D2D2D2D2D2028
:10077000202020424C554520200A00002020202027
:1007800034202020202D2D2D2D2D2D2020205945A9
:100790004C4C4F57200A00002020202035202020DC
:1007A000202D2D2D2D2D2D202020505552504C45E3
:1007B000200A00002020202036202020202D2D2D52
:1007C0002D2D2D202020204359414E20200A0000AD
:1007D0002020202037202020202D2D2D2D2D2D20B4
:1007E0002020574849544520200A0000202020207E
:1007F00038202020202D2D2D2D2D2D20202052473A
:10080000424F4E20200A00002020202039202020A6
:10081000202D2D2D2D2D2D2020205247424F464694
:10082000200A00007047000010B51348006840F02F
:1008300001001149086008464068104908400E4907
:100840004860084600680E4908400B4908600846A1
:10085000006820F4802008600846406820F4FE000C
:1008600048604FF41F008860FFF7A3FE4FF0006060
:100870000449086010BD0000001002400000FFF8AD
:10088000FFFFF6FE08ED00E010B540F225510648E6
:1008900000F065F838B1044800F0F8F8C4B2214619
:1008A000014800F0F8F810BD0038014021B18289FC
:1008B00042F40052828104E082894DF6FF731A40AF
:1008C0008281704700B585B001210420FFF706FD45
:1008D00001218803FFF702FD4FF40070ADF810000E
:1008E00018208DF8130003208DF8120004A9134876
:1008F000FFF745FC4FF48060ADF8100004208DF840
:10090000130004A90D48FFF73AFC4FF4E1300090C2
:100910000020ADF80400ADF80600ADF80800ADF811
:100920000C000C20ADF80A006946054800F042F8BA
:1009300001210348FFF7BAFF05B000BD00080140E0
:100940000038014002460020B1F5007F00D100BF11
:1009500013880B400BB1012000E00020704770B5F8
:100960000246002400230025002040F66A16B1420A
:1009700000D100BFC1F3421501F01F03012606FAA2
:1009800003F3012D02D19689334006E0022D02D1F6
:10099000168A334001E0968A33400C12012606FA8B
:1009A00004F41688344013B10CB1012000E000209B
:1009B00070BD00002DE9F04786B005460E460024C4
:1009C000A24600BFA1460027B08900B100BF2F4654
:1009D0002C8A4CF6FF700440F08804432C82AC89CA
:1009E0004EF6F3100440B0883189084371890843FA
:1009F0000443AC81AC8A4FF6FF400440B089044305
:100A0000AC8201A8FFF77AFC1F48874202D1DDF8CB
:100A100010A001E0DDF80CA0A88900F4004040B16E
:100A20000AEBCA0000EB0A1031684900B0FBF1F88C
:100A300007E00AEBCA0000EB0A1031688900B0FB3E
:100A4000F1F86420B8FBF0F004012009642101FBF7
:100A50001089A88900F4004040B1322000EBC900A1
:100A6000B0FBF1F000F00700044308E0322000EB97
:100A700009106421B0FBF1F000F00F0004432C8159
:100A800006B0BDE8F08700000038014001468888C4
:100A9000C0F308007047C1F308028280704700BFAE
:100AA000FEE7000070B505460C464E48048010E095
:100AB0004C4B1A784C4B19784C4B1878FFF7B4FC18
:100AC000284600F0CFF948480088401C00B246494B
:100AD00008804548B0F90000A042E9DD42480480A2
:100AE00010E0404B1A78404B1978404B1878FFF7CC
:100AF0009BFC284600F0B6F93A480088401E00B238
:100B0000384908803748B0F900000028E9DA0020A9
:100B10003449088010E0334B1A78334B1978334B43
:100B20001878FFF781FC284600F09CF92F480088D0
:100B3000401C00B22D4908802C48B0F90000A042AA
:100B4000E9DD2A48048010E0264B1A78264B1978F4
:100B5000264B1878FFF768FC284600F083F92248F6
:100B60000088401E00B2204908801F48B0F90000EC
:100B70000028E9DA00201C49088010E0194B1A7897
:100B8000194B1978194B1878FFF74EFC284600F0DE
:100B900069F914480088401C00B2124908801148C5
:100BA000B0F90000A042E9DD0E48048010E00D4BD2
:100BB0001A780D4B19780D4B1878FFF735FC28463D
:100BC00000F050F909480088401E00B2074908802B
:100BD0000648B0F900000028E9DA0020034908803F
:100BE00070BD000018000020160000201400002036
:100BF00008B501210820FFF771FB01208DF80200E4
:100C000010208DF803004001ADF80000694605484A
:100C1000FFF7B5FA00F0FEF94FF400700149143106
:100C2000086008BD000C01400FB4054B10B503A9C6
:100C3000044A029800F018F810BC5DF814FB00009C
:100C4000A10E00082000002002E008C8121F08C101
:100C5000002AFAD170477047002001E001C1121F3D
:100C6000002AFBD1704700002DE9FF4F8BB09A4658
:100C70000F460546002606E025280BD052460D9962
:100C800090476D1C761C28780028F5D10FB03046AF
:100C9000BDE8F08F0024A0460122604900E0044333
:100CA00015F8013F203B02FA03F00842F7D12878FB
:100CB0002E2817D115F8010F44F004042A280ED06D
:100CC0006FF02F022878A0F1300109290AD808EB2B
:100CD000880102EB410100EB01086D1CF2E757F8B7
:100CE000048B6D1C287869283ED006DC0028CDD006
:100CF00063280BD0642804D136E0732810D07528FF
:100D00004BD052460D999047761C85E017F8040B9E
:100D10008DF8000000208DF80100E946012003E075
:100D200057F8049B4FF0FF3061074FF0000401D4E7
:100D30000AE0641C44450DDA8442FADB19F8041019
:100D40000029F6D106E0641C8442FCDB19F804108B
:100D50000029F8D1264404E019F8010B52460D99F8
:100D60009047641EF8D257E001CF4FF00A0B0028DD
:100D700002DA40422D2102E0210504D52B218DF815
:100D80002410012103E0E10705D02021F7E70DF150
:100D9000200908910CE00021F9E701CF4FF00A0B80
:100DA000F9E75946FFF7C0F901F1300209F8012DC2
:100DB0000028F6D1ADEB090000F1200B600701D44B
:100DC0004FF00108D84502DDA8EB0B0000E0002041
:100DD0008046002406E009A85246005D0D99904720
:100DE000641C761C08988442F5DB04E030205246EF
:100DF0000D999047761CB8F10001A8F10108F5DCC7
:100E000005E019F8010B52460D999047761CBBF18D
:100E10000001ABF1010BF4DC6D1C34E70928010083
:100E2000032000E000BF011EA0F10102D0B2F9D101
:100E30007047022000E000BF011EA0F10102D0B205
:100E4000F9D17047002107E042F6E06100BF0A1EB9
:100E5000A1F1010399B2FAD1021EA0F1010398B2E7
:100E6000F2D17047002106E0052100BF0A1EA1F162
:100E70000103D9B2FAD1021EA0F10100F4D17047EA
:100E800010B5044600BF20210448FFF75BFD002891
:100E9000F9D00248FFF7FAFD10BD0000003801400C
:100EA00070B504460D46E1B20548FFF7F4FD00BFFA
:100EB00080210348FFF746FD0028F9D0204670BD89
:100EC00000380140FFF7DCBF1FB539A30FCB8DE819
:100ED0000F000024FFF7E4F9FFF7F4FCFFF788FEAA
:100EE00037A0FFF7A1FE3CA0FFF79EFE4FF49670DF
:100EF000FFF7A8FF4FF480713F48FFF7CDF94FF49B
:100F00009670FFF79FFF4FF480713B48FFF7C2F9DF
:100F1000FFF7C4FB4BE03948FFF7D4FFC4B22146CA
:100F200037A0FFF781FEA4F1310009283BD2DFE8AA
:100F300000F0050B11171D23292F34000022114644
:100F40003F20FFF771FA31E000223F211046FFF702
:100F50006BFA2BE03F2200210846FFF765FA25E0F7
:100F600000223F210846FFF75FFA1FE03F220021E1
:100F70001046FFF759FA19E03F2211460020FFF70B
:100F800053FA13E03F2211461046FFF74DFA0DE0E9
:100F90000F211F48FFF786FD08E00022114610468A
:100FA000FFF742FA02E0FFF779FB00BF00BFB2E7AC
:100FB000FFEEDDCCBBAA9988776655443322110039
:100FC0000ACED2CAC74B656C65652EC4E3BAC3535B
:100FD000544D3332210A00000A4865726520697356
:100FE000204B656C65652E48656C6C6F2053544DC5
:100FF0003332210A00000000000C01401C000020D8
:101000000A52656365697665A3BA25630A00000024
:10101000A086010010B5002211461046FFF704FA21
:10102000002211461046FFF7FFF900221146104634
:10103000FFF7FAF9002211461046FFF7F5F9642090
:10104000FFF710FF10BD000068100008000000202E
:1010500024000000480C00088C1000082400002028
:1010600004040000580C0008000000000102030402
:101070000102030406070809020406080000000034
:0C108000FF000000000000000000000065
:04000005080000ED02
:00000001FF
