:020000040800F2
:100000003804002005010008010C000879080008E8
:10001000FD0B0008550700083B1300080000000016
:10002000000000000000000000000000F90C0008C3
:100030005907000800000000030C000861100008C8
:100040001F0100081F0100081F0100081F01000810
:100050001F0100081F0100081F0100081F01000800
:100060001F0100081F0100081F0100081F010008F0
:100070001F0100081F0100081F0100081F010008E0
:100080001F0100081F0100081F0100081F010008D0
:100090001F0100081F0100081F0100081F010008C0
:1000A0001F0100081F0100081F0100081F010008B0
:1000B0001F0100081F0100081F0100081F010008A0
:1000C0001F0100081F0100081F0100081F01000890
:1000D0001F010008251100081F0100081F0100086A
:1000E0001F0100081F0100081F010008DFF810D0E1
:1000F00000F00EFB00480047851E0008AFF30080AB
:10010000380400200648804706480047FEE7FEE71F
:10011000FEE7FEE7FEE7FEE7FEE7FEE7FEE7FEE7B7
:10012000C5100008ED0000082DE9FE4F804681EA69
:100130000300C00F0C46009021F0004123F0004561
:10014000B8EB0200A94105D24046214690461C4624
:100150000B46024623F00040104347D0270DC7F35B
:100160000A00C3F30A510290401A019040286BDA4A
:10017000C3F3130040F4801B0098924620B1002383
:10018000D2EB030A63EB0B0B01985946C0F1400216
:10019000504600F066F906460D4650465946019A0B
:1001A00000F06EF910EB08006141002487EA11525B
:1001B00084EAE7731A4340D0009A62B3019A012A95
:1001C0004FEA075215DC001B61EB02014FF00042C1
:1001D00002EA0752CDE90042001C41F58011324687
:1001E0002B4600F0A5F903B0BDE8F08F404621464C
:1001F000F9E7001B61EB0201001C41F580130018B8
:100200005B412018A2F5001747EB030140EAD570C7
:10021000B6196D4111E06D084FEA360645EAC07522
:100220004FEA0752001B61EB0201001C41F58011EF
:1002300049084FEA30000019514132462B4603B0BD
:10024000BDE8F04F00F065B900980122400000239E
:10025000D0EB020263EBE073009821464FEAE074B2
:10026000B8EB000061EB0401E9E783F000435BE7D2
:1002700081F0004158E72DE9F04D81EA030404F0D4
:10028000004B21F0004514464FF0000A23F00041D6
:1002900050EA050220D054EA01021DD0C5F30A57E6
:1002A0000246C5F31303C1F31300C1F30A5640F429
:1002B000801543F48013A7EB0608101BD64608F2FE
:1002C000FD3873EB050002D308F1010801E0921834
:1002D0005B41B8F1000F03DA00200146BDE8F08D64
:1002E00000204FF48011064684460EE0171B73EB86
:1002F000050705D3121B63EB050306434CEA010C0B
:1003000049084FEA300092185B4150EA0107EDD1ED
:1003100052EA030012D082EA040083EA050108438E
:1003200005D0101BAB4106D20122002306E00022BB
:100330004FF0004302E06FF0010253101AEB060089
:100340004CEB085110EB0A0041EB0B01BDE8F04DFE
:1003500000F0DFB80EB5C10F80EAE0700844CA07AC
:10036000002140F233438DE80E000A460B4600F0B0
:10037000DFF803B000BD00F0004230F000400AD0CA
:10038000C10D01F56071C0F3160042EA0151C208C7
:1003900040071143704700200146704701F00043B9
:1003A00030B421F0004150EA010206D00A0DA2F556
:1003B0006072C1F31301002A02DC30BC00207047D8
:1003C000440F44EAC104C100E01830BC00EBC25045
:1003D00000F068B830B50B46014600202022012409
:1003E00009E021FA02F59D4205D303FA02F5491B03
:1003F00004FA02F52844151EA2F10102F1DC30BD19
:100400002DE9F05F0546002092469B468846064649
:10041000814640241BE0284641464746224600F0DC
:1004200089F953465A46C01A914110D311461846CD
:10043000224600F016F82D1A67EB01084F462246B7
:100440000120002100F00DF817EB00094E41201E9D
:10045000A4F10104DFDC484631462A464346BDE8A4
:10046000F09F202A04DB203A00FA02F100207047B6
:100470009140C2F1200320FA03F3194390407047E2
:10048000202A06DBCB17203A41FA02F043EAE07358
:1004900006E041FA02F3D040C2F120029140084345
:1004A000194670470029A8BF7047401C490008BF83
:1004B00020F00100704710B4B0FA80FC00FA0CF094
:1004C00050EA010404BF10BC704749B1CCF12004CC
:1004D00021FA04F411FA0CF118BF01212143084359
:1004E000A3EB0C01CB1D4FEA00614FEA102042BF85
:1004F000002010BC704700EBC35010440029A4BF7B
:1005000010BC7047401C490008BF20F0010010BC1F
:10051000704710B5141E73F1000408DA401C41F155
:10052000000192185B411A4301D120F0010010BD77
:100530002DE9F04D92469B4611B1B1FA81F202E0ED
:10054000B0FA80F220329046FFF78BFF04460F4648
:1005500040EA0A0041EA0B0153465A46084313D0C9
:10056000114653EA010019D0C8F14002504600F08C
:10057000E1F805460E46504659464246FFF771FFE0
:10058000084305D0012004E020463946BDE8F08D3F
:100590000020054346EAE0762C4337430A9863057A
:1005A000E40AA0EB08000022FD0A44EA47540A309E
:1005B00002D500200146E9E7010510196941DDE98E
:1005C000084500196941BDE8F04DA2E72DE9FE4F4D
:1005D00081EA030404F0004421F0004100944FF04C
:1005E000000B23F0004350EA01045ED052EA0304FA
:1005F0005BD0C3F30A54C1F30A552C44A4F2F3347C
:100600000194A0FB0254C1F3130141F48011C3F320
:10061000130343F4801301FB024400FB034E840ADE
:10062000970A44EA815447EA8357A4FB0768029576
:100630008D0A05FB07854FEA932C04FB0C54270514
:10064000029D4FEA065847EA1637B5EB08056EEBF0
:10065000070C870E920E47EA811742EA8312A7FB26
:100660000201B6EB0B0164EB00042B0D43EA0C33E3
:100670005E1844EB1C50DA465146E7FB0201C5F315
:1006800013044FEA0B3343EA14534FEA0432019C3C
:1006900043EA0603A4F10C040294009CCDE900B4E3
:1006A000FFF746FF03B0BDE8F08F00200146F9E7F1
:1006B000C1F30A52C1F3130140F2FF3341F4801138
:1006C0009A4202DA00200146704740F233439A42D0
:1006D000A2F2334202DC524200F02CB8FFF7C1BE56
:1006E00030B5041E71F1000404DB4FF000444042B9
:1006F00064EB0101141E73F1000405DB1C464FF08E
:100700000043524263EB0403994208BF904230BD5C
:10071000064C074D06E0E06840F0010394E807004E
:1007200098471034AC42F6D3FFF7E4FC6020000891
:1007300080200008202A04DB203A21FA02F0002160
:10074000704721FA02F3D040C2F1200291400843E1
:100750001946704700BFFEE770472DE9F041024699
:1007600000250026002000230024002791F803C064
:100770000CF00F0591F803C00CF0100CBCF1000F49
:1007800003D091F802C04CEA050591F800C0BCF115
:10079000000F31D0146800202BE04FF0010C0CFA50
:1007A00000F3B1F800C00CEA03069E4220D183009A
:1007B0004FF00F0C0CFA03F7BC4305FA03FC4CEAAC
:1007C000040491F803C0BCF1280F06D14FF0010CCE
:1007D0000CFA00FCC2F814C00AE091F803C0BCF1A6
:1007E000480F05D14FF0010C0CFA00FCC2F810C004
:1007F000401C0828D1D31460B1F800C0BCF1FF0F31
:1008000034DD546800202EE000F1080C4FF00108A0
:1008100008FA0CF3B1F800C00CEA03069E4221D19D
:1008200083004FF00F0C0CFA03F7BC4305FA03FCEE
:100830004CEA040491F803C0BCF1280F05D100F183
:10084000080C08FA0CF8C2F8148091F803C0BCF147
:10085000480F07D100F1080C4FF0010808FA0CF816
:10086000C2F81080401C0828CED35460BDE8F08147
:10087000416170470161704700BFFEE710B5044653
:10088000214602A000F078FD002010BD3C3C2D4D1B
:100890005055363035302D4552524F522D3E3E2068
:1008A0000A493243B5C8B4FDB3ACCAB1216572720E
:1008B0006F72436F6465203D2025640A0A000000C2
:1008C00008B50121082000F09DF901208DF80200F3
:1008D00010208DF803000001ADF8000069460448BF
:1008E000FFF73BFF4FF4807001491431086008BDE9
:1008F000000C01401CB50446062269463B2000F06E
:1009000089F89DF801009DF8001040EA012000B22E
:1009100020809DF803009DF8021040EA012000B2FB
:1009200060809DF805009DF8041040EA012000B2A7
:10093000A0801CBD1CB5044606226946432000F079
:1009400069F89DF801009DF8001040EA012000B20E
:1009500020809DF803009DF8021040EA012000B2BB
:1009600060809DF805009DF8041040EA012000B267
:10097000A0801CBD08B500200090012269467520AA
:1009800000F048F89DF80000682804D0054800F001
:10099000F3FC002008BD9DF8001003A000F0ECFC63
:1009A0000120F7E7142000080A4D50553630353045
:1009B000204944203D2030782532580D0A0000009F
:1009C00010B580216B2000F0BFF80A2000F024FB56
:1009D00000216B2000F0B8F804211A2000F0B4F8D0
:1009E0000921192000F0B0F818211B2000F0ACF804
:1009F00000211C2000F0A8F80021232000F0A4F81A
:100A00000021382000F0A0F801216B2000F09CF8B4
:100A100010BD00002DE9F04107460C46164601F0D6
:100A2000EBF9D02001F0BEF90BE02B480068401E26
:100A3000294908600846006818B90120FFF71EFF21
:100A400042E001F001FA0028EFD1384601F0AAF99E
:100A50000BE021480068401E1F49086008460068F6
:100A600018B90220FFF70AFF2EE001F0EDF9002887
:100A7000EFD101F0C1F9D12001F094F90BE0164853
:100A80000068401E144908600846006818B9032031
:100A9000FFF7F4FE18E001F0D7F90028EFD10025A8
:100AA00006E0012001F056F92070641C681CC5B2F4
:100AB000701EA842F5DC002001F04CF9207001F016
:100AC000B3F90120BDE8F08104A000F055FC01F06D
:100AD000ABF90020F6E700002C0000200A4D50552D
:100AE000363035302052454144204552524F520A4B
:100AF000000000002DE9F84F82460222694641209D
:100B0000FFF788FF9DF801009DF8001040EA0120E2
:100B10000FFA80FB5846FFF71DFC80460022074B6A
:100B2000FFF7A9FB0646064A064BFFF7FDFA044607
:100B3000FFF734FCCAF80000BDE8F88F00407540AC
:100B4000A4703D0AD743424070B505460C4601F0FB
:100B500053F9D02001F026F90BE021480068401E2F
:100B60001F4908600846006818B90420FFF786FE90
:100B70002FE001F069F90028EFD1284601F012F9C1
:100B80000BE017480068401E1549086008460068D9
:100B900018B90520FFF772FE1BE001F055F9002897
:100BA000EFD1204601F0FEF80BE00D480068401E32
:100BB0000B4908600846006818B90620FFF75EFE7A
:100BC00007E001F041F90028EFD101F02DF90120F3
:100BD00070BD04A000F0D0FB01F026F90020F7E77B
:100BE0002C0000200A4D50553630353020575249E0
:100BF0005445204552524F520A00000000BFFEE704
:100C00007047704729B1064A92690243044B9A61C2
:100C100004E0034A92698243014B9A6170470000E5
:100C20000010024030B500210022002400232D4D89
:100C30006D6805F00C0121B1042905D0082923D1E4
:100C400005E0294D056022E0274D05601FE0254D98
:100C50006D6805F47012234D6D6805F4803402252B
:100C600005EB92421CB9214D554305600BE01D4D2B
:100C70006D6805F400351DB11C4D5543056002E05B
:100C8000194D5543056002E0174D056000BF00BFD8
:100C9000144D6D6805F0F0010909154D6B5C056890
:100CA000DD4045600F4D6D6805F4E061090A104DA7
:100CB0006B5C4568DD4085600A4D6D6805F46051E8
:100CC000C90A0B4D6B5C4568DD40C560054D6D681C
:100CD00005F44041890B074D6B5CC568B5FBF3F526
:100CE000056130BD0010024000127A0000093D008D
:100CF00014000020240000207047000010B54FF4BD
:100D000000710648FFF7B6FD00BF4FF400710348BD
:100D1000FFF7AEFD00F095FF10BD0000000C014094
:100D200010B54FF400710948FFF7A4FD00F092FFE1
:100D30004FF400710548FFF79BFD00BF00BF00BFE7
:100D400000BF00BF00BF00BF00BF10BD000C0140CE
:100D500070B504460E46154606F0800010B9FFF740
:100D6000CDFF01E0FFF7DCFF06F0400010B9FFF710
:100D7000C5FF01E0FFF7D4FF06F0200010B9FFF730
:100D8000BDFF01E0FFF7CCFF06F0100010B9FFF740
:100D9000B5FF01E0FFF7C4FF06F0080010B9FFF748
:100DA000ADFF01E0FFF7BCFF06F0040010B9FFF74C
:100DB000A5FF01E0FFF7B4FF06F0020010B9FFF74E
:100DC0009DFF01E0FFF7ACFF06F0010010B9FFF74F
:100DD00095FF01E0FFF7A4FF04F0800010B9FFF7D2
:100DE0008DFF01E0FFF79CFF04F0400010B9FFF712
:100DF00085FF01E0FFF794FF04F0200010B9FFF732
:100E00007DFF01E0FFF78CFF04F0100010B9FFF741
:100E100075FF01E0FFF784FF04F0080010B9FFF749
:100E20006DFF01E0FFF77CFF04F0040010B9FFF74D
:100E300065FF01E0FFF774FF04F0020010B9FFF74F
:100E40005DFF01E0FFF76CFF04F0010010B9FFF750
:100E500055FF01E0FFF764FF05F0800010B9FFF7D0
:100E60004DFF01E0FFF75CFF05F0400010B9FFF710
:100E700045FF01E0FFF754FF05F0200010B9FFF730
:100E80003DFF01E0FFF74CFF05F0100010B9FFF740
:100E900035FF01E0FFF744FF05F0080010B9FFF748
:100EA0002DFF01E0FFF73CFF05F0040010B9FFF74C
:100EB00025FF01E0FFF734FF05F0020010B9FFF74E
:100EC0001DFF01E0FFF72CFF05F0010010B9FFF74F
:100ED00015FF01E0FFF724FF70BD10B500F002F828
:100EE00010BD00000CB50020019000903348006850
:100EF00040F480303149086000BF3048006800F499
:100F0000003000900198401C0190009818B9019899
:100F1000B0F5A06FF1D12948006800F4003010B19D
:100F20000120009001E0002000900098012843D1AA
:100F30002348006840F01000214908600846006816
:100F400020F0070008600846006840F002000860D2
:100F50001A48406819494860084640684860084691
:100F6000406840F4806048600846406820F47C1087
:100F700048600846406840F4E81048600846006849
:100F800040F08070086000BF0C48006800F00070FE
:100F90000028F9D00948406820F00300074948605C
:100FA0000846406840F00200486000BF03484068BF
:100FB00000F00C000828F9D10CBD00000010024020
:100FC0000020024030B50146B1F1807F01D30120FD
:100FD00030BD21F07F40401E4FF0E022506150179D
:100FE0000F22002807DA13071D0E094B00F00F042B
:100FF000241F1D5503E013071C0E064B1C5400BF95
:1010000000204FF0E0229061072010610020DFE710
:1010100018ED00E000E400E031B5104800684FF43E
:101020007A71B0FBF1F52846FFF7CCFF002408E009
:1010300000BF4FF0E020006900F480300028F8D0B5
:10104000641C00988442F3D304480068C821B0FBB4
:10105000F1F52846FFF7B6FF38BD0000000000207C
:1010600000200CE0074931F8101031B1054931F882
:101070001010491E034A22F81010411CC8B2022861
:10108000F0DB70472800002010B507480068C82131
:10109000B0FBF1F42046FFF795FF20B103A000F06C
:1010A0006BF900BFFEE710BD0000002053797354B8
:1010B00069636B5F436F6E6669675F4552524F525B
:1010C0000000000010B51348006840F0010011490D
:1010D000086008464068104908400E4948600846C4
:1010E00000680E4908400B4908600846006820F473
:1010F000802008600846406820F4FE0048604FF4F5
:101100001F008860FFF7E9FE4FF0006004490860A7
:1011100010BD0000001002400000FFF8FFFFF6FEC7
:1011200008ED00E010B540F22551064800F065F8E2
:1011300038B1044800F0F8F8C4B22146014800F084
:10114000F8F810BD0038014021B1828942F4005204
:10115000828104E082894DF6FF731A4082817047D4
:1011600000B585B001210420FFF74CFD0121880363
:10117000FFF748FD4FF40070ADF8100018208DF80F
:10118000130003208DF8120004A91348FFF7E5FAB5
:101190004FF48060ADF8100004208DF8130004A90E
:1011A0000D48FFF7DAFA4FF4E13000900020ADF877
:1011B0000400ADF80600ADF80800ADF80C000C20F6
:1011C000ADF80A006946054800F042F801210348DD
:1011D000FFF7BAFF05B000BD00080140003801402C
:1011E00002460020B1F5007F00D100BF13880B40FC
:1011F0000BB1012000E00020704770B502460024CA
:1012000000230025002040F66A16B14200D100BF3D
:10121000C1F3421501F01F03012606FA03F3012D65
:1012200002D19689334006E0022D02D1168A33405E
:1012300001E0968A33400C12012606FA04F416885F
:10124000344013B10CB1012000E0002070BD00005B
:101250002DE9F04786B005460E460024A24600BFA1
:10126000A1460027B08900B100BF2F462C8A4CF65A
:10127000FF700440F08804432C82AC894EF6F310D2
:101280000440B08831890843718908430443AC8124
:10129000AC8A4FF6FF400440B0890443AC8201A8F9
:1012A000FFF7C0FC1F48874202D1DDF810A001E023
:1012B000DDF80CA0A88900F4004040B10AEBCA0098
:1012C00000EB0A1031684900B0FBF1F807E00AEBC7
:1012D000CA0000EB0A1031688900B0FBF1F8642005
:1012E000B8FBF0F004012009642101FB1089A889F2
:1012F00000F4004040B1322000EBC900B0FBF1F037
:1013000000F00700044308E0322000EB09106421DC
:10131000B0FBF1F000F00F0004432C8106B0BDE8F3
:10132000F08700000038014001468888C0F30800BB
:101330007047C1F308028280704700BFFEE70000DB
:1013400008B501210820FFF75DFC01208DF802009F
:1013500010208DF803004001ADF8000069460548F3
:10136000FFF7FBF900F03CFE4FF400700149143127
:10137000086008BD000C01400FB4054B10B503A96F
:10138000044A029800F0DAF810BC5DF814FB000083
:10139000851C00083000002002E008C8121F08C1A8
:1013A000002AFAD170477047002001E001C1121FE6
:1013B000002AFBD1704700002DE9FF5F82B00021B9
:1013C000DDE90430020DDDF840B0034318D044F6E7
:1013D0001050A2F2FF3242431514119801281FD079
:1013E000A5EB0B00401C5FEA000A4FF000064E4FD1
:1013F000DFF83891B046504615D5CAF1000413E025
:10140000119801244AA3012801D16FEA0B01029827
:10141000119AC0E90031C0E9024206B0BDE8F09F70
:10142000CBF10000DFE704460021404A491842EBB7
:101430000450CDE9001012E0E00707D032463B46E9
:1014400040464946FFF7C2F88046894632463B4649
:1014500010461946FFF7BAF806460F466410002CEE
:10146000EAD1DDE90401DDE90023BAF1000F06DA73
:10147000FFF7ACF842464B46FFF7A8F805E0FEF749
:10148000FAFE42464B46FEF7F6FE04460E460022A2
:10149000284BFFF725F903D84FF0FF30014607E04E
:1014A0000022254B20463146FEF73EFEFFF700F9AD
:1014B000102409E0002C0ADB0A220023FEF7A0FF1B
:1014C000039B30321A55641E50EA0102F2D1641CAB
:1014D000039AC4F111031444119A012A03D0012282
:1014E00008430DD10AE0084304D000204FF0110B4F
:1014F000119072E7A3EB0B056D1E0DE05B4504DD5B
:101500004FF0000205F1010504E003DA4FF000029C
:10151000A5F10105002AECD002981199C0E9023129
:10152000C0E9004579E70000000014400000F03FEA
:10153000300000000000F0430000E03F2DE9FF4FC5
:1015400095B09A46884606460025EEE1252877D1D3
:1015500000242746F94A0121039400E0044316F8C9
:10156000013F203B01FA03F01042F7D130782A28DE
:1015700011D06FF02F033078A0F13002092A16D86D
:10158000039A44F0020402EB820203EB420210448D
:10159000761C0390EFE758F8042B0392002A03DA35
:1015A000504244F40054039044F00204761C307816
:1015B0002E2816D116F8010F44F004042A280DD065
:1015C0006FF02F023078A0F13003092B09D807EB18
:1015D000870302EB4303C718761CF3E758F8047B34
:1015E000761C30786C280FD006DC4C2817D0682881
:1015F0000DD06A2814D104E0742810D07A280FD1B5
:101600000DE044F400140AE044F4801401E044F4D2
:1016100040147278824202D104F58014761C761C44
:10162000307866280BD013DC582877D009DC0028E6
:1016300075D04528F6D04628F4D047281AD193E132
:1016400018E0632835D0642879D0652812D18BE161
:10165000702873D008DC6728F1D069286FD06E2815
:101660000DD06F2806D1ACE073282CD0752874D02B
:10167000782853D05246179990476D1C54E1C4F313
:101680000250022809D003280DD0D8F800100428F1
:101690000DD00D6008F1040846E1D8F80010EA17F3
:1016A000C1E90052F6E7D8F800100D80F2E70D709E
:1016B000F0E718F8041B8DF8001000208DF80100E9
:1016C000EB46012003E058F804BB4FF0FF30610700
:1016D0004FF0000102D40DE009F101018946B94241
:1016E0000FDA8145F8DB1BF809100029F4D108E076
:1016F00009F1010189468142FADB1BF80910002932
:10170000F6D103985346A0EB090721463846179AAD
:1017100000F080FA284400EB090507E044E008E106
:101720000DE01BF8010B524617999047B9F10109DA
:10173000F7D2534621463846179AF2E039E00A219B
:10174000C4F302524FF0000B0091022A06D058F861
:10175000040BC117032A09D00AE023E008F10700AF
:1017600020F00702F2E80201904605E000B2C1173E
:10177000042A01D140B2C117002906DA0A46002125
:10178000404261EB02012D2202E0220504D52B220A
:101790008DF80420012203E0E20701D02022F7E7C0
:1017A000914657E00A2100E010214FF0000B009114
:1017B0000BE010214FF0000B44F0040408270091C7
:1017C00003E008204FF0000B0090C4F30252022AFD
:1017D00005D058F8040B0021032A08D008E008F1CE
:1017E000070020F00702F2E80201904603E080B211
:1017F000042A00D1C0B24FF0000922072AD532785E
:10180000702A07D0DDF800C08CF0100C5CEA0B0CDD
:1018100005D00EE040228DF80420012208E050EAB5
:10182000010306D030238DF804308DF80520022204
:101830009146009B83F0080353EA0B030AD150EA58
:10184000010201D1620705D530228DF804204FF046
:1018500001097F1E3278582A04D039A20C920CAAB2
:1018600002920BE03BA2F9E75B46009AFEF7C8FD47
:101870000C9B9B5C029A521E0292137050EA01026A
:10188000F2D1029804A9081A00F1200B600702D5D2
:1018900024F4803400E001275F4502DDA7EB0B0054
:1018A00000E0002000EB0B01009003984944401A2F
:1018B0000390E00306D453462146179A039800F09C
:1018C000A9F90544002706E001A85246C05D179912
:1018D00090476D1C7F1C4F45F6DBE0030CD553464B
:1018E0002146179A039800F095F9054404E030204A
:1018F0005246179990476D1C0099481E0090002988
:10190000F5DC08E00298029952460078491C0291E1
:10191000179990476D1CBBF10001ABF1010BF1DC95
:101920005BE100F065F90544761C307800287FF40F
:101930000DAE19B02846BDE8F08F0000092801005F
:101940003031323334353637383961626364656635
:1019500000000000303132333435363738394142F7
:101960004344454600000000600700D4062708F104
:10197000070020F00700F0E80223804603F0004C47
:101980005FEA0C0001D097A009E0200501D596A0E0
:1019900005E0E00701D095A001E0AFF24C00139004
:1019A000307823F0004365280CD006DC452809D0A8
:1019B00046281DD047287FD13BE0662818D06728ED
:1019C0007AD136E00021112F01DB112000E0781CD4
:1019D000CDE9000104A90CA8FFF7EEFCDDE90D013B
:1019E0000C9A4FF0000B07F10109109200914EE0A4
:1019F0004FF000400097CDE9011004A90CA8FFF7B3
:101A0000DBFCDDE90D020C9B0F994FF0000B9146BA
:101A10001093009211B9791C00EB0109B7EB090092
:101A200003D4C0F1FF3B07F10109A9EB07000190C6
:101A300042E0012F00DA01270021112F01DD1120E2
:101A400000E03846CDE9000104A90CA8FFF7B4FC7A
:101A5000DDE90D010C9A00914FF0000BB946109290
:101A600021070FD4009A4A4503DA914601E0A9F113
:101A70000109B9F1010F05DD109AA9F10101515CCD
:101A80003029F4D0B84202DA10F1040F03DA012150
:101A9000CDE9011010E0002803DC8344A9EB00012C
:101AA00002E0411C494500DD8946A0EB0B00401CCB
:101AB00001904FF000400290200705D4019848455E
:101AC00002DB4FF0FF30019000208DF84B000298B0
:101AD0000DF14B07B0F1004F25D002200C902B20C8
:101AE0000D90029800280CDA404202902D200D90B3
:101AF00007E00A210298FEF76DFC3031029007F8EA
:101B0000011D0C99481E0C900029F2DC0298002857
:101B1000EFD1791E0D980870307800F0200040F069
:101B2000450007F8020D11A8C01BC01D02901398B4
:101B3000007800B1012000EB0901019801EBE07190
:101B4000029801440398401A401E0390E00306D413
:101B500053462146179A039800F05CF80544139801
:101B6000007818B15246179990476D1CE00323D5B1
:101B700053462146179A039800F04CF805441BE0A1
:101B8000BBF1000F07DB0098584504DD109817994A
:101B900010F80B0001E01799302052469047019849
:101BA0000BF1010B401E05F10105019004D12E201F
:101BB0005246179990476D1CB9F10001A9F101092E
:101BC000DEDC05E017F8010B5246179990476D1CB3
:101BD0000299481E02900029F4DC53462146179AC8
:101BE00003989EE62D0000002B000000200000005E
:101BF0002DE9F041044600251E461746880404D40A
:101C000005E039462020B0476D1C641EF9D52846F2
:101C1000BDE8F0812DE9F041044600251E469046BE
:101C2000C80301D5302700E02027880404D505E04B
:101C300041463846B0476D1C641EF9D52846BDE8BC
:101C4000F081032000E000BF011EA0F10102D0B22C
:101C5000F9D17047022000E000BF011EA0F101028F
:101C6000D0B2F9D17047002106E0052100BF0A1E5D
:101C7000A1F10103D9B2FAD1021EA0F10100F4D101
:101C80007047000070B504460D46E1B20548FFF705
:101C900050FB00BF80210348FFF7A2FA0028F9D0CB
:101CA000204670BD0038014010B580200949086009
:101CB00000F012F840200749091F086000F00CF8F6
:101CC00040200449086000F007F880200149091FFE
:101CD000086010BD140C0140002001E0411CC8B296
:101CE0000728FBDB7047000008B501210820FEF73C
:101CF00089FFC020ADF8000003208DF802001420F9
:101D00008DF8030069460848FEF727FD2020ADF84E
:101D1000000001208DF8020014208DF803006946B0
:101D20000148FEF71AFD08BD000C014010B58020E7
:101D300007490860FFF7D0FF402005490860FFF71A
:101D4000CBFF40200249091D0860FFF7C5FF10BD09
:101D5000100C014070B505460024002616E0600610
:101D6000040E40200E490860FFF7B6FF0C48083803
:101D7000006800F0800008B1601CC4B2402008492F
:101D8000091D0860FFF7A8FF701CC6B2082EE6DB2D
:101D900015B9FFF7CBFF01E0FFF786FF204670BDC6
:101DA000100C014070B50446002520E004F08000CE
:101DB00018B180200F49086003E080200D49091DFB
:101DC0000860FFF789FF40200A490860FFF784FF99
:101DD00040200849091D0860072D02D18020091FF5
:101DE00008606006040EFFF777FF681CC5B2082D77
:101DF000DCDB70BD100C014010B580200949086083
:101E000040200860FFF768FF80200649091D086030
:101E1000FFF762FF40200349091D0860FFF75CFFE0
:101E200010BD0000100C014010B58020054908606D
:101E30004020091F0860FFF74FFF80200149091F5C
:101E4000086010BD140C014010B580200C490860DA
:101E5000FFF742FF40200A490860FFF73DFF0848AE
:101E60000838006800F0800008B1012400E0002478
:101E700040200349091D0860FFF72EFF204610BDD2
:101E8000100C014086B00024FEF71AFDFFF768F938
:101E9000FFF756FAFFF7F8F8FFF726FFFEF790FD79
:101EA0002AA0FFF769FA2FA0FFF766FAFEF762FD96
:101EB000012840D13EE03348008880B92CB100228F
:101EC0003F211046FEF744FF04E000221146104671
:101ED000FEF73EFFC8202B49088084F00104294802
:101EE0004088002826D104A8FEF704FDBDF914306F
:101EF000BDF91220BDF9101023A0FFF73DFA02A88A
:101F0000FEF718FDBDF90C30BDF90A20BDF9081027
:101F100022A0FFF731FA01A8FEF7ECFD0198FEF7C9
:101F20002AFA05462A460B4621A0FFF725FA142077
:101F300014494880BFE722A0FFF71EFA002211468D
:101F40003F20FEF705FF00BFFEE700000ACED2CA21
:101F5000C74B656C65652EC4E3BAC353544D333229
:101F6000210A00000A48657265206973204B656C80
:101F700065652E48656C6C6F2053544D3332210AD1
:101F80000000000028000020BCD3CBD9B6C8A3BAFB
:101F900025386425386425386400000009CDD3C293
:101FA000DDD2C72538642538642538640000000078
:101FB00009CEC2B6C825382E32660D0A00000000D0
:101FC0000D0AC3BBD3D0BCECB2E2B5BD4D50553603
:101FD000303530B4ABB8D0C6F7A3A10D0A0000006D
:101FE00010B5002211461046FEF7B2FE002211463F
:101FF0001046FEF7ADFE002211461046FEF7A8FE81
:10200000002211461046FEF7A3FE6420FFF72BFEC8
:1020100010BD00000A4D50553630353020646563E0
:10202000746563746564206572726F72210D0ABCF9
:10203000ECB2E2B2BBB5BD4D505536303530C4A31D
:10204000BFE9A3ACC7EBBCECB2E9C4A3BFE9D3EBD7
:10205000BFAAB7A2B0E5B5C4BDD3CFDF0000000072
:1020600080200008000000203400000098130008C1
:10207000B42000083400002004040000A813000865
:1020800000A24A0400000000000000000102030456
:10209000060708090000000001020304010203040E
:1020A00006070809020406080000000000000100FD
:0420B000000000002C
:04000005080000ED02
:00000001FF
