:020000040800F2
:1000000008040020050100087902000871020008B8
:10001000750200084D010008CD0500080000000031
:100020000000000000000000000000009D02000829
:1000300051010008000000007B020008690500086B
:100040001F0100081F0100081F0100081F01000810
:100050001F0100081F0100081F0100081F01000800
:100060001F0100081F0100081F0100081F010008F0
:100070001F0100081F0100081F0100081F010008E0
:100080001F0100081F0100081F0100081F010008D0
:100090001F0100081F0100081F0100081F010008C0
:1000A0001F0100081F0100081F0100081F010008B0
:1000B0001F0100081F0100081F0100081F010008A0
:1000C0001F0100081F0100081F0100081F01000890
:1000D0001F0100081F0100081F0100081F01000880
:1000E0001F0100081F0100081F010008DFF810D0E1
:1000F00000F01AF800480047B3070008AFF300808B
:10010000080400200648804706480047FEE7FEE74F
:10011000FEE7FEE7FEE7FEE7FEE7FEE7FEE7FEE7B7
:100120006D050008ED000008064C074D06E0E0688C
:1001300040F0010394E8070098471034AC42F6D32E
:10014000FFF7D8FF2C0800084C08000800BFFEE7A6
:1001500070472DE9F04102460025002600200023CB
:100160000024002791F803C00CF00F0591F803C09C
:100170000CF0100CBCF1000F03D091F802C04CEA57
:10018000050591F800C0BCF1000F31D014680020C3
:100190002BE04FF0010C0CFA00F3B1F800C00CEAB0
:1001A00003069E4220D183004FF00F0C0CFA03F798
:1001B000BC4305FA03FC4CEA040491F803C0BCF10B
:1001C000280F06D14FF0010C0CFA00FCC2F814C045
:1001D0000AE091F803C0BCF1480F05D14FF0010CC3
:1001E0000CFA00FCC2F810C0401C0828D1D31460DF
:1001F000B1F800C0BCF1FF0F34DD546800202EE0E0
:1002000000F1080C4FF0010808FA0CF3B1F800C037
:100210000CEA03069E4221D183004FF00F0C0CFA2A
:1002200003F7BC4305FA03FC4CEA040491F803C04D
:10023000BCF1280F05D100F1080C08FA0CF8C2F83F
:10024000148091F803C0BCF1480F07D100F1080CED
:100250004FF0010808FA0CF8C2F81080401C08287A
:10026000CED35460BDE8F0814161704701617047B1
:1002700000BFFEE700BFFEE77047704729B1064A9E
:1002800092690243044B9A6104E0034A92698243F3
:10029000014B9A6170470000001002407047000057
:1002A00010B54FF400710648FFF7E0FF00BF4FF4B0
:1002B00000710348FFF7D8FF00F05BFA10BD0000A3
:1002C000000C014010B54FF400710948FFF7CEFF54
:1002D00000F058FA4FF400710548FFF7C5FF00BF62
:1002E00000BF00BF00BF00BF00BF00BF00BF10BD08
:1002F000000C014070B504460E46154606F080001D
:1003000010B9FFF7CDFF01E0FFF7DCFF06F040007A
:1003100010B9FFF7C5FF01E0FFF7D4FF06F020009A
:1003200010B9FFF7BDFF01E0FFF7CCFF06F01000AA
:1003300010B9FFF7B5FF01E0FFF7C4FF06F00800B2
:1003400010B9FFF7ADFF01E0FFF7BCFF06F00400B6
:1003500010B9FFF7A5FF01E0FFF7B4FF06F00200B8
:1003600010B9FFF79DFF01E0FFF7ACFF06F00100B9
:1003700010B9FFF795FF01E0FFF7A4FF04F080003C
:1003800010B9FFF78DFF01E0FFF79CFF04F040007C
:1003900010B9FFF785FF01E0FFF794FF04F020009C
:1003A00010B9FFF77DFF01E0FFF78CFF04F01000AC
:1003B00010B9FFF775FF01E0FFF784FF04F00800B4
:1003C00010B9FFF76DFF01E0FFF77CFF04F00400B8
:1003D00010B9FFF765FF01E0FFF774FF04F00200BA
:1003E00010B9FFF75DFF01E0FFF76CFF04F00100BB
:1003F00010B9FFF755FF01E0FFF764FF05F080003B
:1004000010B9FFF74DFF01E0FFF75CFF05F040007A
:1004100010B9FFF745FF01E0FFF754FF05F020009A
:1004200010B9FFF73DFF01E0FFF74CFF05F01000AA
:1004300010B9FFF735FF01E0FFF744FF05F00800B2
:1004400010B9FFF72DFF01E0FFF73CFF05F00400B6
:1004500010B9FFF725FF01E0FFF734FF05F00200B8
:1004600010B9FFF71DFF01E0FFF72CFF05F00100B9
:1004700010B9FFF715FF01E0FFF724FF70BD10B5BD
:1004800000F002F810BD00000CB5002001900090B3
:100490003348006840F480303149086000BF30487C
:1004A000006800F4003000900198401C0190009812
:1004B00018B90198B0F5A06FF1D12948006800F48F
:1004C000003010B10120009001E000200090009861
:1004D000012843D12348006840F0100021490860FA
:1004E0000846006820F0070008600846006840F0F1
:1004F000020008601A484068194948600846406888
:1005000048600846406840F480604860084640689B
:1005100020F47C1048600846406840F4E8104860C9
:100520000846006840F08070086000BF0C48006812
:1005300000F000700028F9D00948406820F003005E
:10054000074948600846406840F00200486000BF24
:100550000348406800F00C000828F9D10CBD0000E9
:1005600000100240002002407047000010B5134800
:10057000006840F0010011490860084640681049D1
:1005800008400E494860084600680E4908400B497B
:1005900008600846006820F480200860084640682B
:1005A00020F4FE0048604FF41F008860FFF767FFEB
:1005B0004FF000600449086010BD000000100240C8
:1005C0000000FFF8FFFFF6FE08ED00E000BFFEE7C9
:1005D00070B505460C464E48048010E04C4B1A7826
:1005E0004C4B19784C4B1878FFF784FE284600F0E6
:1005F000D2F848480088401C00B246490880454867
:10060000B0F90000A042E9DD4248048010E0404B10
:100610001A78404B1978404B1878FFF76BFE284644
:1006200000F0B9F83A480088401E00B23849088006
:100630003748B0F900000028E9DA00203449088082
:1006400010E0334B1A78334B1978334B1878FFF797
:1006500051FE284600F09FF82F480088401C00B249
:100660002D4908802C48B0F90000A042E9DD2A4855
:10067000048010E0264B1A78264B1978264B187800
:10068000FFF738FE284600F086F822480088401E12
:1006900000B2204908801F48B0F900000028E9DABC
:1006A00000201C49088010E0194B1A78194B197862
:1006B000194B1878FFF71EFE284600F06CF8144816
:1006C0000088401C00B2124908801148B0F90000AF
:1006D000A042E9DD0E48048010E00D4B1A780D4B66
:1006E00019780D4B1878FFF705FE284600F053F8EF
:1006F00009480088401E00B2074908800648B0F942
:1007000000000028E9DA00200349088070BD0000DD
:1007100004000020020000200000002008B5012194
:100720000820FFF7ABFD01208DF8020010208DF8A6
:1007300003004001ADF8000069460548FFF709FDD8
:1007400000F05BF84FF4007001491431086008BDF7
:10075000000C014002E008C8121F08C1002AFAD1AB
:1007600070477047002001E001C1121F002AFBD131
:100770007047032000E000BF011EA0F10102D0B2CB
:10078000F9D17047022000E000BF011EA0F1010274
:10079000D0B2F9D17047002106E0052100BF0A1E42
:1007A000A1F10103D9B2FAD1021EA0F10100F4D1E6
:1007B0007047FFF7B3FF3F2211460020FFF79AFD75
:1007C00000223F211046FFF795FD00223F210846F9
:1007D000FFF790FD002211463F20FFF78BFDC82058
:1007E000FFF7D9FF08E044F62060FFF7D4FF1F2190
:1007F0004CF25030FFF7ECFEF5E710B50022114641
:100800001046FFF777FD002211461046FFF772FDF4
:10081000002211461046FFF76DFD002211461046DA
:10082000FFF768FD6420FFF7B6FF10BD4C08000815
:1008300000000020080000005407000854080008C9
:100840000800002000040000640700080000000009
:04085000FF000000A5
:04000005080000ED02
:00000001FF
