:020000040800F2
:100000001011002005010008250F0008D904000880
:10001000210F000869020008D31B0008000000003F
:10002000000000000000000000000000F5140008BF
:100030006D02000800000000DD1300085D180008D4
:100040001F0100081F0100081F0100081F01000810
:100050001F0100081F0100081F0100081F01000800
:100060001F0100081F0100081F0100081F010008F0
:100070001F0100081F0100081F0100081F010008E0
:100080001F0100081F0100081F0100081F010008D0
:100090001F0100081F0100081F0100081F010008C0
:1000A0001F0100081F0100081F0100081F010008B0
:1000B0001F0100081F0100081F0100081F010008A0
:1000C0001F0100081F0100081F0100081F01000890
:1000D0001F010008451900081F0100081F01000842
:1000E0001F0100081F0100081F010008DFF810D0E1
:1000F00000F05EF8004800470D210008AFF30080D3
:10010000101100200648804706480047FEE7FEE73A
:10011000FEE7FEE7FEE7FEE7FEE7FEE7FEE7FEE7B7
:10012000A5180008ED000008D2B201E000F8012B8C
:10013000491EFBD270470022F6E710B513460A4667
:1001400004461946FFF7F0FF204610BD2DE9F05F89
:100150000546002092469B46884606468146402436
:100160001BE0284641464746224600F042F85346E7
:100170005A46C01A914110D311461846224600F043
:1001800029F82D1A67EB01084F462246012000216D
:1001900000F020F817EB00094E41201EA4F10104E5
:1001A000DFDC484631462A464346BDE8F09F000062
:1001B000064C074D06E0E06840F0010394E80700B4
:1001C00098471034AC42F6D3FFF794FF142300088D
:1001D00034230008202A04DB203A00FA02F1002030
:1001E00070479140C2F1200320FA03F31943904075
:1001F0007047202A04DB203A21FA02F000217047E0
:1002000021FA02F3D040C2F120029140084319467E
:10021000704770B58C1810F8015B15F0070301D119
:1002200010F8013B2A1106D110F8012B03E010F859
:10023000016B01F8016B5B1EF9D12B0705D400237C
:10024000521E0DD401F8013BFAE710F8013BCB1A1E
:10025000921C03E013F8015B01F8015B521EF9D513
:10026000A142D8D3002070BD00BFFEE77047000058
:1002700010B54FF480501F49086009E01D49086817
:10028000411E1C4A116018B9192000F0F5FC10BD80
:100290004FF40031184800F055FC0028EED100BFA3
:1002A0000121154800F036FC4FF4805011490860D8
:1002B00009E010490868411E0E4A116018B91A2059
:1002C00000F0DAFCE3E70D490B4800F03BFC0028A6
:1002D000EFD0A021084800F0CDFC0849491C064891
:1002E00000F030FC0028DBD00121034800F01EFCA8
:1002F0000120CCE73004002000580040010000102D
:1003000000B585B00121880501F06AF801210820B7
:1003100001F076F801208DF8120010208DF81300FE
:100320000220ADF8100004A91C4800F03DF803209D
:100330008DF812001C208DF813004FF48060ADF88A
:10034000100004A9154800F02FF84FF40060ADF834
:10035000100004A9114800F027F80020ADF80400AF
:100360004BF6FF70ADF806000A20ADF808004FF418
:100370008060ADF80A000001ADF80C00084800905C
:100380006946084800F0FCFB0121064800F0C7F868
:100390000221024800F09CF805B000BD000C0140AD
:1003A000801A0600005800402DE9F0410246002561
:1003B0000026002000230024002791F803C00CF041
:1003C0000F0591F803C00CF0100CBCF1000F03D026
:1003D00091F802C04CEA050591F800C0BCF1000F8D
:1003E00031D0146800202BE04FF0010C0CFA00F320
:1003F000B1F800C00CEA03069E4220D183004FF002
:100400000F0C0CFA03F7BC4305FA03FC4CEA040496
:1004100091F803C0BCF1280F06D14FF0010C0CFA83
:1004200000FCC2F814C00AE091F803C0BCF1480F08
:1004300005D14FF0010C0CFA00FCC2F810C0401CB2
:100440000828D1D31460B1F800C0BCF1FF0F34DD2F
:10045000546800202EE000F1080C4FF0010808FA63
:100460000CF3B1F800C00CEA03069E4221D18300D0
:100470004FF00F0C0CFA03F7BC4305FA03FC4CEAEF
:10048000040491F803C0BCF1280F05D100F1080C59
:1004900008FA0CF8C2F8148091F803C0BCF1480FB8
:1004A00007D100F1080C4FF0010808FA0CF8C2F867
:1004B0001080401C0828CED35460BDE8F08102466D
:1004C000002093680B400BB1012000E00020704732
:1004D000416170470161704700BFFEE721B10288AA
:1004E00042F48062028004E002884FF6FF331A4033
:1004F0000280704770B502460024002500230020CA
:10050000958A138B1B0445EA030626F07F4404EA10
:1005100001068E4201D1012000E0002070BD21B112
:10052000028842F00102028004E002884FF6FE7366
:100530001A4002807047000070B504460E4615460A
:100540004FF480506549086009E064490868411E1D
:10055000624A116018B9122000F08EFB70BD4FF492
:1005600000315F4800F0EEFA0028EED101215C482E
:1005700000F0D0FA4FF480505849086009E057491C
:100580000868411E554A116018B9132000F074FB29
:10059000E4E754495248FFF7ADFF0028EFD0A02010
:1005A00040EAE41000F0A6014D4800F063FB4FF470
:1005B00080504A49086009E048490868411E474A96
:1005C000116018B9142000F057FBC7E746494448AA
:1005D000FFF790FF0028EFD0E1B2414800F04AFB5E
:1005E0004FF480503D49086009E03C490868411ECD
:1005F0003A4A116018B9152000F03EFBAEE73A49BF
:10060000891C3748FFF776FF0028EED001213448D7
:1006100000F080FA4FF480503049086009E02F491B
:100620000868411E2D4A116018B9162000F024FBFD
:1006300094E72C492A48FFF75DFF0028EFD0A0205F
:1006400040EAE41000F0A600411C254800F012FB2F
:100650004FF480502149086009E020490868411E94
:100660001E4A116018B9172000F006FB76E71D49F5
:10067000491C1B48FFF73EFF0028EED026E0012D65
:1006800007D100211648FFF729FF0121144800F087
:100690004DFA4FF480501149086009E00F4908688D
:1006A000411E0E4A116018B9182000F0E5FA55E70E
:1006B0000C493F310A48FFF71DFF0028EED00848DB
:1006C00000F0D4FA3070761C681E85B2002DD6D1A9
:1006D00001210348FFF702FF01203FE7300400201B
:1006E0000058004001000300820007002DE9F04798
:1006F00005460F4614464FF00008C146C246002684
:100700002846E91705EB11710911A5EB011101F05C
:10071000FF0ACAF11000C6B22046E11704EB1171BE
:10072000C1F30718E11704EB11710911A4EB0111D2
:1007300001F0FF09BAF1000F28D1B8F1000F07D17D
:100740004A463946284600F039F9FFF791FD60E046
:100750000AE010223946284600F030F9FFF788FDFC
:1007600005F1100085B21037B8F10000A8F10101C1
:1007700001F0FF08EDD1B9F1000F4AD04A463946E1
:10078000284600F01BF9FFF773FD42E0B8F1000FB7
:1007900007D14A463946284600F010F9FFF768FDB0
:1007A00037E0A01B84B22046E11704EB1171C1F3BE
:1007B0000718E11704EB11710911A4EB011101F005
:1007C000FF094EB132463946284600F0F7F8FFF7E8
:1007D0004FFDA81985B237440AE010223946284651
:1007E00000F0ECF8FFF744FD05F1100085B210377A
:1007F000B8F10000A8F1010101F0FF08EDD1B9F155
:10080000000F06D04A463946284600F0D7F8FFF7D1
:100810002FFDBDE8F087000070B5044600254FF4B9
:1008200080506249086009E060490868411E5F4ADB
:10083000116018B9002000F01FFA70BD4FF40031AC
:100840005B4800F07FF90028EED10121584800F004
:1008500061F94FF480505549086009E05349086830
:10086000411E524A116018B9012000F005FAE4E770
:1008700050494F48FFF73EFE0028EFD0A02040EA45
:10088000E41000F0A6014A4800F0F4F94FF480505B
:100890004649086009E045490868411E434A11601D
:1008A00018B9022000F0E8F9C7E743494048FFF7CC
:1008B00021FE0028EFD0E1B23D4800F0DBF94FF413
:1008C00080503A49086009E038490868411E374AB3
:1008D000116018B9032000F0CFF9AEE73649891C42
:1008E0003348FFF707FE0028EED00121304800F022
:1008F00011F94FF480502D49086009E02B49086830
:10090000411E2A4A116018B9042000F0B5F994E795
:1009100028492748FFF7EEFD0028EFD0A02040EA45
:10092000E41000F0A600411C214800F0A3F94FF4A8
:1009300080501E49086009E01C490868411E1B4A96
:10094000116018B9052000F097F976E71949491C9C
:100950001748FFF7CFFD0028EED000211448FFF71D
:10096000BDFD4FF480501149086009E00F49086847
:10097000411E0E4A116018B9062000F07DF95CE7AF
:100980000C493F310A48FFF7B5FD0028EED0084872
:1009900000F06CF905460121054800F0C7F8012177
:1009A0000348FFF79BFD284647E70000300400207E
:1009B00000580040010003008200070070B50446A3
:1009C0000D4616464FF480504E49086009E04D49E7
:1009D0000868411E4B4A116018B90C2000F04CF910
:1009E00070BD4FF40031484800F0ACF80028EED15B
:1009F0000121454800F08EF84FF4805041490860CD
:100A000009E040490868411E3E4A116018B90D20AE
:100A100000F032F9E4E73D493B48FFF76BFD002861
:100A2000EFD0A02040EAE41000F0A601364800F024
:100A300021F94FF480503349086009E031490868D2
:100A4000411E304A116018B90E2000F015F9C7E7B1
:100A50002F492D48FFF74EFD0028EFD0E1B22A487C
:100A600000F008F94FF480502649086009E0254954
:100A70000868411E234A116018B90F2000F0FCF8E5
:100A8000AEE72349891E2048FFF734FD0028EED049
:100A90001AE029781C4800F0EDF86D1C4FF48050E6
:100AA0001849086009E017490868411E154A116095
:100AB00018B9102000F0E0F892E71549891E124895
:100AC000FFF718FD0028EED0301EA6F10101CEB2CE
:100AD000DFD109E00B490868411E0A4A116018B9C4
:100AE000112000F0C9F87BE70949891C0648FFF787
:100AF00001FD0028EED00121034800F017F8012085
:100B00006EE70000300400200058004001000300A0
:100B10008200070021B1028842F48072028004E062
:100B200002884FF6FF631A400280704721B10288A5
:100B300042F40072028004E002884FF6FF531A402C
:100B4000028070470CB502460020002301930093F9
:100B500000920B0F019321F07F41019B1BB1009B81
:100B60001433009303E0090C009B18330093009B9F
:100B70001B680B400BB1012000E000200CBD000001
:100B80002DE9F04385B004460D460026B146042702
:100B9000DFF8CC80A6884FF6C0700640684600F0AB
:100BA0003FFCDDF808802F48B8FBF0F01FFA80F911
:100BB00046EA0906A68020884FF6FE71084020808C
:100BC00000262949286888420CD828684000B8FBCC
:100BD000F0F087B2042F00DA04273E4309F1010048
:100BE000208427E0E8884BF6FF71884206D1286808
:100BF00000EB4000B8FBF0F087B209E0286800EB9A
:100C0000C00101EB0010B8FBF0F087B247F4804759
:100C1000C7F30B0008B947F0010747F4004006434B
:100C20004FF4967009FB00F04FF47A7190FBF1F0ED
:100C3000401C2084A683208840F001002080268864
:100C40004FF6F5300640A888698908430643268098
:100C5000A88929890843208105B0BDE8F0830000F8
:100C600000127A0040420F00A08601000146088A67
:100C7000C0B270470182704710B50446214602A0F9
:100C800000F0C6FF002010BD3C3C2D454550524FA2
:100C90004D2D4552524F522D3E3E20493243B5C84C
:100CA000B4FDB3ACCAB1216572726F72436F6465F3
:100CB000203D2025640A000010B54FF4005104487F
:100CC000FFF7FDFB08B9012010BD0020FCE7000084
:100CD0000010014010B501210348FFF7F0FB08B9EF
:100CE000012010BD0020FCE70008014010B50221E2
:100CF0000348FFF7E4FB08B9012010BD0020FCE722
:100D00000008014070B50546304800EB0514206826
:100D1000804700283ED020790A2802DA0A20207174
:100D200052E02079142803DA2079401C20714BE02E
:100D3000A07A38B90120A07205EB4501491CC8B260
:100D400000F094F8208900283EDDE088218988425F
:100D50000DDAE088401C80B2E0802189884233D1DE
:100D600005EB4501C91CC8B200F080F82CE0E07A20
:100D7000002829DD207B401CC0B22073E17A884224
:100D800022DB0020207305EB4501491CC8B200F0AE
:100D90006DF819E020790A2802DD0A20207110E0A0
:100DA000207918B12079401E20710AE0A07A01282C
:100DB00007D10020A07205EB4501891CC8B200F0E4
:100DC00055F80020E080207370BD0000D00C00209A
:100DD0000B48807A0A4AD27A904201D100207047AB
:100DE0000748807A064A115C1046807A401CC0B2DF
:100DF00090720A2801DB002090720846EFE700009D
:100E0000000D00200021144A9172D172002018E0D8
:100E1000C821124A02EB0012118105210F4A02EB90
:100E20000012117100210D4A02EB001291720B4A5F
:100E300002EB0012D172094A02EB00121173411C3D
:100E4000C8B20328E4DB0649044A11600549116170
:100E50000549116270470000000D0020D00C0020F1
:100E6000B90C0008D50C0008ED0C00080649C97A39
:100E7000054A50541146C97A491CC9B2D1720A298F
:100E800001DB0021D1727047000D002008B501215F
:100E9000142000F0B5FA04208DF80300C002ADF86C
:100EA000000069460948FFF77FFA0120ADF800000D
:100EB00069460748FFF778FA0220ADF80000694656
:100EC0000348FFF771FAFFF79DFF08BD00100140CE
:100ED0000008014010B5002404E02046FFF712FF8F
:100EE000601CC4B2032CF8DB10BD000008B5012162
:100EF000082000F085FA01208DF8020010208DF8FE
:100F000003000001ADF8000069460448FFF74CFA01
:100F10004FF4807001491431086008BD000C014095
:100F200000BFFEE7704708B54FF4A06000F046F838
:100F300025208DF8000001208DF801008DF80200B9
:100F40008DF80300684600F001F808BD70B5002177
:100F500000230F22C47804B3154C246804F4E06421
:100F6000C4F5E064210AC1F10403CA40447804FADC
:100F700003F184781440214309010E4C0678A155F1
:100F8000047804F01F050124AC4005786D11AD0014
:100F900005F1E025C5F8004109E0047804F01F05DB
:100FA0000124AC40044D0678761145F8264070BD0A
:100FB0000CED00E000E400E080E100E002490143C4
:100FC000024A1160704700000000FA050CED00E0D5
:100FD00010B54FF490610348FFF7ADF800F028F921
:100FE00010BD00005008002010B504461CB90021B7
:100FF000A62000F0AFF9012C03D10021A72000F0BA
:10100000A9F910BD10B50021AE2000F0A3F9002110
:101010008D2000F09FF90021102000F09BF910BDF9
:1010200010B50021AF2000F095F900218D2000F0CF
:1010300091F90021142000F08DF910BD10B504467F
:101040003CB90021C82000F085F90021A12000F062
:1010500081F9012C07D10021C02000F07BF900218B
:10106000A02000F077F910BDF0B514460B46CF175D
:1010700001EB5777C7F3C702CF1701EB5777FF1084
:10108000A1EBC707FEB20123B340DDB24CB1134B55
:1010900003EBC0039B5C2B43104F07EBC007BB5413
:1010A0001AE00E4B03EBC0039B5CDB430B4F07EBDB
:1010B000C007BB54094B03EBC0039B5C2B43074F9A
:1010C00007EBC007BB54054B03EBC0039B5CDB4342
:1010D000024F07EBC007BB54F0BD000050080020D2
:1010E00008B501210C2000F08BF94FF41060ADF829
:1010F000000010208DF8030003208DF802006946DF
:101100004948FFF751F94FF43040ADF80000694607
:101110004648FFF749F94FF410614348FFF7DAF901
:101120004FF430414148FFF7D5F94FF480713E4804
:10113000FFF7CEF9642000F06DFB4FF480713A4860
:10114000FFF7C8F90021AE2000F004F90021B0201B
:1011500000F000F90021022000F0FCF8002110202E
:1011600000F0F8F80021D52000F0F4F800218020EC
:1011700000F0F0F80021A82000F0ECF800213F205A
:1011800000F0E8F80021D32000F0E4F80021084640
:1011900000F0E0F80021402000F0DCF80021AD2054
:1011A00000F0D8F800218B2000F0D4F80021A12015
:1011B00000F0D0F80021C82000F0CCF80021DA209F
:1011C00000F0C8F80021122000F0C4F800218120AE
:1011D00000F0C0F80021FF2000F0BCF80021D92069
:1011E00000F0B8F800211F2000F0B4F80021DB2047
:1011F00000F0B0F80021402000F0ACF800213320CE
:1012000000F0A8F80021A62000F0A4F8FFF7E0FE07
:10121000642000F0FFFA0021AF2000F09BF864206A
:1012200000F0F8FA08BD000000080140000C014081
:1012300070B500241CE004F1B001C8B2002100F038
:1012400089F80021022000F085F80021102000F02C
:1012500081F8002508E0084901EBC501085D01217E
:1012600000F078F8681CC5B2802DF4DB601CC4B2B5
:10127000082CE0DB70BD0000500800202DE9FF4F76
:1012800005460E4617461C46DDF838904FF0000A1A
:101290000095B3462046E21704EB5272D210214665
:1012A000E31704EB5373DB10A4EBC3030BB101236F
:1012B00000E000231A44D4B24FF0000845E00020BB
:1012C00003903BE00D9810F80A0002900AF101002B
:1012D0001FFA80FA002001901DE0029800F0010042
:1012E00058B1B9F1000F01D1012000E00020024601
:1012F00031462846FFF7B8FE04E04A463146284604
:10130000FFF7B2FE029840100290701CC6B201981E
:10131000401CC0B2019001980828DEDB681CC5B2F1
:101320000098281AB84204D1009D0BF1080000F083
:10133000FF0B5E460398401CC0B203900398B8426E
:10134000C0DB08F1010000F0FF08A045B7DBBDE8F5
:10135000FF8F000070B504460E462EB14FF40061B9
:101360001C48FFF7B7F804E04FF400611948FFF795
:10137000AFF84FF480511848FFF7AAF800251BE09A
:101380004FF400511448FFF7A3F804F0800028B18F
:101390004FF400411048FFF79DF804E04FF400417E
:1013A0000D48FFF795F84FF400510B48FFF792F8FE
:1013B0006006040E681CC5B2082DE1DB4FF48051B5
:1013C0000548FFF787F84FF400610248FFF782F8FD
:1013D00070BD000000080140000C01407047000093
:1013E00029B1064AD2690243044BDA6104E0034A98
:1013F000D2698243014BDA6170470000001002405D
:1014000029B1064A92690243044B9A6104E0034AF7
:1014100092698243014B9A617047000000100240BC
:1014200030B500210022002400232D4D6D6805F009
:101430000C0121B1042905D0082923D105E0294D4B
:10144000056022E0274D05601FE0254D6D6805F41D
:101450007012234D6D6805F48034022505EB92422D
:101460001CB9214D554305600BE01D4D6D6805F419
:1014700000351DB11C4D5543056002E0194D554323
:10148000056002E0174D056000BF00BF144D6D6898
:1014900005F0F0010909154D6B5C0568DD404560FC
:1014A0000F4D6D6805F4E061090A104D6B5C4568ED
:1014B000DD4085600A4D6D6805F46051C90A0B4D29
:1014C0006B5C4568DD40C560054D6D6805F44041C5
:1014D000890B074D6B5CC568B5FBF3F5056130BD45
:1014E0000010024000127A0000093D0014000020A4
:1014F000240000207047000010B54FF4007106482A
:10150000FEF7E8FF00BF4FF400710348FEF7E0FF6D
:1015100000F0C9FD10BD0000000C014010B54FF4F3
:1015200000710948FEF7D6FF00F0C6FD4FF40071C8
:101530000548FEF7CDFF00BF00BF00BF00BF00BFE2
:1015400000BF00BF00BF10BD000C014070B50446D5
:101550000E46154606F0800010B9FFF7CDFF01E0FA
:10156000FFF7DCFF06F0400010B9FFF7C5FF01E010
:10157000FFF7D4FF06F0200010B9FFF7BDFF01E030
:10158000FFF7CCFF06F0100010B9FFF7B5FF01E040
:10159000FFF7C4FF06F0080010B9FFF7ADFF01E048
:1015A000FFF7BCFF06F0040010B9FFF7A5FF01E04C
:1015B000FFF7B4FF06F0020010B9FFF79DFF01E04E
:1015C000FFF7ACFF06F0010010B9FFF795FF01E04F
:1015D000FFF7A4FF04F0800010B9FFF78DFF01E0D2
:1015E000FFF79CFF04F0400010B9FFF785FF01E012
:1015F000FFF794FF04F0200010B9FFF77DFF01E032
:10160000FFF78CFF04F0100010B9FFF775FF01E041
:10161000FFF784FF04F0080010B9FFF76DFF01E049
:10162000FFF77CFF04F0040010B9FFF765FF01E04D
:10163000FFF774FF04F0020010B9FFF75DFF01E04F
:10164000FFF76CFF04F0010010B9FFF755FF01E050
:10165000FFF764FF05F0800010B9FFF74DFF01E0D0
:10166000FFF75CFF05F0400010B9FFF745FF01E010
:10167000FFF754FF05F0200010B9FFF73DFF01E030
:10168000FFF74CFF05F0100010B9FFF735FF01E040
:10169000FFF744FF05F0080010B9FFF72DFF01E048
:1016A000FFF73CFF05F0040010B9FFF725FF01E04C
:1016B000FFF734FF05F0020010B9FFF71DFF01E04E
:1016C000FFF72CFF05F0010010B9FFF715FF01E04F
:1016D000FFF724FF70BD10B500F002F810BD000048
:1016E0000CB50020019000903348006840F4803031
:1016F0003149086000BF3048006800F400300090B5
:101700000198401C0190009818B90198B0F5A06F9D
:10171000F1D12948006800F4003010B10120009098
:1017200001E0002000900098012843D12348006880
:1017300040F01000214908600846006820F00700CA
:1017400008600846006840F0020008601A484068D7
:10175000194948600846406848600846406840F4B7
:10176000806048600846406820F47C104860084665
:10177000406840F4E81048600846006840F0807017
:10178000086000BF0C48006800F000700028F9D025
:101790000948406820F0030007494860084640684F
:1017A00040F00200486000BF0348406800F00C00B1
:1017B0000828F9D10CBD00000010024000200240B2
:1017C00030B50146B1F1807F01D3012030BD21F059
:1017D0007F40401E4FF0E022506150170F2200283A
:1017E00007DA13071D0E094B00F00F04241F1D55C7
:1017F00003E013071C0E064B1C5400BF00204FF0E3
:10180000E0229061072010610020DFE718ED00E082
:1018100000E400E031B5104800684FF47A71B0FB85
:10182000F1F52846FFF7CCFF002408E000BF4FF099
:10183000E020006900F480300028F8D0641C009893
:101840008442F3D304480068C821B0FBF1F5284670
:10185000FFF7B6FF38BD00000000002010B500F013
:1018600051F800F05BF810BD10B507480068C821BA
:10187000B0FBF1F42046FFF7A3FF20B103A000F076
:10188000C7F900BFFEE710BD000000205379735474
:1018900069636B5F436F6E6669675F4552524F5273
:1018A0000000000010B51348006840F00100114925
:1018B000086008464068104908400E4948600846DC
:1018C00000680E4908400B4908600846006820F48B
:1018D000802008600846406820F4FE0048604FF40D
:1018E0001F008860FFF7F7FE4FF0006004490860B2
:1018F00010BD0000001002400000FFF8FFFFF6FEE0
:1019000008ED00E00448006820B103480068401E6C
:1019100001490860704700002804002010B50848FD
:101920000088012805DA06480088401C0449088020
:1019300004E0002002490880FFF7CCFA10BD000047
:101940002C04002010B540F225510A4800F07DF823
:1019500070B1084800F034F9C4B2214606A000F086
:1019600057F9312C02D1FFF75BFB01E0FFF74AFB8F
:1019700010BD0000003801400A5265636569766554
:10198000A3BA25630A00000021B1828942F4005203
:10199000828104E082894DF6FF731A40828170478C
:1019A00000B585B001210420FFF72AFD012188033D
:1019B000FFF726FD4FF40070ADF8100018208DF8E9
:1019C000130003208DF8120004A91748FEF7ECFC61
:1019D0004FF48060ADF8100004208DF8130004A9C6
:1019E0001148FEF7E1FC4FF4E13000900020ADF823
:1019F0000400ADF80600ADF80800ADF80C000C20AE
:101A0000ADF80A006946094800F06EF8FFF78BFA56
:101A1000012240F22551054800F041F80121034818
:101A2000FFF7B2FF05B000BD0008014000380140DB
:101A300002460020B1F5007F00D100BF13880B40A3
:101A40000BB1012000E00020704770B50246002471
:101A500000230025002040F66A16B14200D100BFE5
:101A6000C1F3421501F01F03012606FA03F3012D0D
:101A700002D19689334006E0022D02D1168A334006
:101A800001E0968A33400C12012606FA04F4168807
:101A9000344013B10CB1012000E0002070BDF0B55E
:101AA0000346002400260025002040F66A17B942AC
:101AB00000D100BF1846C1F3421401F01F060127F0
:101AC00007FA06F5012C01D10C3004E0022C01D1FB
:101AD000103000E014301AB107682F43076002E0AD
:101AE0000768AF430760F0BD2DE9F04786B00546B3
:101AF0000E460024A24600BFA1460027B08900B1CF
:101B000000BF2F462C8A4CF6FF700440F088044337
:101B10002C82AC894EF6F3100440B088318908431A
:101B2000718908430443AC81AC8A4FF6FF400440FE
:101B3000B0890443AC8201A8FFF772FC1F488742BA
:101B400002D1DDF810A001E0DDF80CA0A88900F4B6
:101B5000004040B10AEBCA0000EB0A1031684900AE
:101B6000B0FBF1F807E00AEBCA0000EB0A1031689D
:101B70008900B0FBF1F86420B8FBF0F00401200903
:101B8000642101FB1089A88900F4004040B1322093
:101B900000EBC900B0FBF1F000F00700044308E0DF
:101BA000322000EB09106421B0FBF1F000F00F00CF
:101BB00004432C8106B0BDE8F087000000380140E6
:101BC00001468888C0F308007047C1F3080282808C
:101BD000704700BFFEE7000008B501210820FFF7AD
:101BE0000FFC01208DF8020010208DF80300400149
:101BF000ADF8000069460548FEF7D6FB00F070FB23
:101C00004FF4007001491431086008BD000C014018
:101C10000FB4054B10B503A9044A029800F018F858
:101C200010BC5DF814FB0000E9200008340400201B
:101C300002E008C8121F08C1002AFAD17047704795
:101C4000002001E001C1121F002AFBD170470000F3
:101C50002DE9FF4F8DB00F460546002606E02528EA
:101C60000BD0DDE90F1290476D1C761C28780028F8
:101C7000F5D111B03046BDE8F08F0024A246A14650
:101C80000122E94900E0044315F8013F203B02FA34
:101C900003F00842F7D128782A2810D06FF02F02DD
:101CA0002878A0F13001092914D80AEB8A0102EB47
:101CB000410144F0020400EB010A6D1CF0E701CF82
:101CC0005FEA000A03D544F40054CAF1000A44F064
:101CD00002046D1C28782E2817D115F8010F44F046
:101CE00004042A280ED06FF02F022878A0F13001CA
:101CF00009290AD809EB890102EB410100EB01092E
:101D00006D1CF2E757F8049B6D1C28786C280FD0E7
:101D100006DC4C2817D068280DD06A2814D104E0BE
:101D2000742810D07A280FD10DE044F400140AE092
:101D300044F4801401E044F440146978814202D1F3
:101D400004F580146D1C6D1C28786E281ED00CDCE8
:101D5000632830D004DC00288BD0582811D19FE0B4
:101D6000642867D069280CD164E073282DD004DC86
:101D70006F2872D0702804D194E075286ED078282E
:101D80006DD0DDE90F129047761C4BE1C4F3025091
:101D9000022806D0032809D0042801CF09D0066004
:101DA00040E101CFF117C0E900613BE101CF0680BE
:101DB00038E1067036E117F8040B8DF800000020BA
:101DC0008DF80100EB46012003E057F804BB4FF00B
:101DD000FF3061074FF0000102D40DE008F101016E
:101DE000884649450FDA8045F8DB1BF808100029C2
:101DF000F4D108E008F1010188468142FADB1BF8C2
:101E000008100029F6D1DDE90F23AAEB080081466E
:101E1000214600F031F9304400EB080604E0DDE92A
:101E20000F121BF8010B9047B8F10108F7D22146B9
:101E30004846F2E00A21C4F302524FF0000B089129
:101E4000022A04D001CFC117032A09D00AE0FF1DDE
:101E500027F00707F7E8020108E02CE01EE01FE08A
:101E600000B2C117042A01D140B2C117021E71F19C
:101E7000000206DA0023D0EB030063EB01012D2200
:101E800002E0220504D52B228DF82420012203E054
:101E9000E20701D02022F7E7904653E00A210BE049
:101EA000102109E010214FF0000B44F004044FF022
:101EB0000809089103E008214FF0000B0891C4F3D2
:101EC0000252022A04D001CF0021032A06D006E0E4
:101ED000FF1D27F00707F7E8020103E080B2042A9C
:101EE00000D1C0B24FF0000822072BD52A78702A03
:101EF00007D0DDF820C08CF0100C5CEA0B0C05D08C
:101F00000EE040228DF82420012208E050EA01036F
:101F100006D030238DF824308DF8252002229046FB
:101F2000089B83F0080353EA0B030BD150EA01022C
:101F300001D1620706D530228DF824204FF0010828
:101F4000A9F101092A78582A04D038A20B9208AACC
:101F50000A920BE03AA2F9E75B46089AFEF7F6F818
:101F60000B9B9B5C0A9A521E0A92137050EA010264
:101F7000F2D10A98ADEB000000F1200B600702D50A
:101F800024F4803401E04FF00109D94502DDA9EBCA
:101F90000B0000E0002000EB0B0141440890AAEB8D
:101FA000010AE00306D4DDE90F232146504600F084
:101FB00063F806444FF0000908E009A911F8090088
:101FC000DDE90F12904709F10109761CC145F4DBE8
:101FD000E0030CD5DDE90F232146504600F04CF814
:101FE000064404E0DDE90F1230209047761C089982
:101FF000481E08900029F5DC08E00A980A99007844
:10200000491C0A91DDE90F129047761CBBF10001D3
:10201000ABF1010BF1DC21465046DDE90F2300F066
:1020200019F806446D1C21E60928010030313233CD
:102030003435363738396162636465660000000004
:1020400030313233343536373839414243444546EE
:10205000000000002DE9F041044600251E46174609
:10206000880404D405E039462020B0476D1C641E66
:10207000F9D52846BDE8F0812DE9F0410446002558
:102080001E469046C80301D5302700E0202788046B
:1020900004D505E041463846B0476D1C641EF9D5AD
:1020A0002846BDE8F081032000E000BF011EA0F13A
:1020B0000102D0B2F9D17047022000E000BF011E3A
:1020C000A0F10102D0B2F9D17047002106E005214C
:1020D00000BF0A1EA1F10103D9B2FAD1021EA0F17C
:1020E0000100F4D17047000070B504460D46E1B21E
:1020F0000548FFF76AFD00BF80210348FFF798FC01
:102100000028F9D0204670BD003801401CB50025DC
:102110000126FEF7EBFEFFF743FCFEF7B7FEFFF7E5
:10212000A3FBFFF759FDFEF7EBF837A0FFF770FDB3
:102130003BA0FFF76DFD2F20FEF76EFBC5B2C32D50
:1021400009D029463EA0FFF763FD40F2FF32414926
:102150000020FEF7CBFAFEF78BF840F2FF323E4943
:102160000020FEF7E9F9FEF7BBFF0020FEF73CFF79
:102170000020FEF763FF0020374940238022CDE98D
:1021800000100146FFF77AF8FFF752F83BE0FEF740
:102190001FFE0446002C36D00A2C32D2DFE804F0B1
:1021A00031050915191D2125292D2CA0FFF730FD1A
:1021B00028E02EA0FFF72CFD86F0010616B1FEF7F1
:1021C0002FFF01E0FEF71EFF1CE02BA0FFF720FD14
:1021D00018E02DA0FFF71CFD14E02FA0FFF718FD5D
:1021E00010E030A0FFF714FD0CE032A0FFF710FD67
:1021F00008E034A0FFF70CFD04E035A0FFF708FD70
:1022000000E000BF00BFC2E70ACED2CAC74B656C70
:1022100065652EC4E3BAC353544D3332210A00001E
:102220000A48657265206973204B656C65652E48A8
:10223000656C6C6F2053544D3332210A000000004E
:102240000A454550524F4D5F74203D203078257827
:102250000A00000028000020380400200A4B4559DD
:102260005F315F444F574E0A000000000A4B45594A
:102270005F315F55500A00000A4B45595F315F4C92
:102280004F4E470A000000000A4B45595F325F4439
:102290004F574E0A000000000A4B45595F325F5508
:1022A000500A00000A4B45595F325F4C4F4E470AB7
:1022B000000000000A4B45595F335F444F574E0AF8
:1022C000000000000A4B45595F335F55500A00007B
:1022D0000A4B45595F335F4C4F4E470A00000000E0
:1022E00010B5002211461046FFF730F900221146C2
:1022F0001046FFF72BF9002211461046FFF726F98A
:10230000002211461046FFF721F96420FFF7DDFE99
:1023100010BD000034230008000000203804000035
:10232000120200083425000838040020D80C0000F0
:10233000401C00081184A24A046809010203040633
:102340000708090C69100520020406083EFFFF0378
:1023500003F301240303FF1AC301211812FCFC3309
:1023600033CFCFC3C3CFCF3C3C0303FCFCC0011928
:102370001FDD3F3F3FF3321933013E200E1F1F1078
:102380001093931313939390909F200F90906F6FDF
:10239000FCFC8383FFFFECEC9C9C2814F3F30F0FF1
:1023A000FFFF8C8C9393ECEC736C6C6C9F80803291
:1023B00029301E131310109F33013E181B86869E72
:1023C0009E9F9FE6E6FFFF9999999E9E8181060652
:1023D0009F9F67670707810128099898797978781E
:1023E0000101101319192009E0E0E0E7E1E1868618
:1023F000291907401E1E9E9EFFFF281AE7E7676700
:102400000101FFFF8787676799FFFF81816666F992
:10241000F91818E6E686201C79790606E0E0808047
:102420009E9EFEFEF8F8E001010119E1E1E7E78078
:1024300080E7E71CE6E67F010140237979280A1846
:1024400018E7E787879E9E99071819E6E68787FEB3
:10245000FE8181E1E19898F8F87E7E8181FFFF7925
:10246000797F7F0631001240800707999901017931
:102470007986861F1F8686F8F8102C88887676F66F
:10248000F6F9F97171F1F189F7F77F7F7171818147
:10249000F9F9FFFFF7F70707F9F906060707878736
:1024A000F6F68080F9F90015408E8E8EFFF0F089E7
:1024B00089808088888F8F0E0E8F8F7F7F3EFCFCF7
:1024C0000C0CCC01240C0CFC180AF3F33F3FFCFC71
:1024D0000F0F03011A0C01180F3F3FFFFF333303A7
:1024E00003C3C33333FC3F0E001140C0C0CCCCC08B
:1024F000C0FFFF0C0CC3C3CFCF3F3F1AFF523ACFF0
:102500000119562129721C3F3FF0012BC3C37A23C6
:10251000C3C3233C3C280AF0F00C0C03F3F3F3F0A4
:102520007E180AFCFCCFCFFFFFCCCCF00E01296255
:042530001000000097
:04000005080000ED02
:00000001FF
