:020000040800F2
:100000007804002005010008310500089D02000861
:100010002D0500084D010008C50B00080000000078
:100020000000000000000000000000002906000899
:1000300051010008000000003305000849090008CC
:100040001F0100081F0100081F0100081F01000810
:100050001F0100081F0100081F0100081F01000800
:100060001F0100081F0100081F0100081F010008F0
:100070001F0100081F0100081F0100081F010008E0
:100080001F0100081F0100081F0100081F010008D0
:100090001F0100081F0100081F0100081F010008C0
:1000A0001F0100081F0100081F0100081F010008B0
:1000B0001F0100081F0100081F0100081F010008A0
:1000C0001F0100081F0100081F0100081F01000890
:1000D0001F0100081F0100081F0100081F01000880
:1000E0001F0100081F0100081F010008DFF810D0E1
:1000F00000F01AF800480047010E0008AFF3008036
:10010000780400200648804706480047FEE7FEE7DF
:10011000FEE7FEE7FEE7FEE7FEE7FEE7FEE7FEE7B7
:1001200091090008ED000008064C074D06E0E06864
:1001300040F0010394E8070098471034AC42F6D32E
:10014000FFF7D8FF98100008B810000800BFFEE7BE
:100150007047000001B504490098086000BF0248DC
:1001600000680028FBD108BD300000202DE9F041D7
:10017000024600250026002000230024002791F8D5
:1001800003C00CF00F0591F803C00CF0100CBCF18B
:10019000000F03D091F802C04CEA050591F800C0A9
:1001A000BCF1000F31D0146800202BE04FF0010C9F
:1001B0000CFA00F3B1F800C00CEA03069E4220D10D
:1001C00083004FF00F0C0CFA03F7BC4305FA03FC55
:1001D0004CEA040491F803C0BCF1280F06D14FF09B
:1001E000010C0CFA00FCC2F814C00AE091F803C03C
:1001F000BCF1480F05D14FF0010C0CFA00FCC2F81D
:1002000010C0401C0828D1D31460B1F800C0BCF164
:10021000FF0F34DD546800202EE000F1080C4FF091
:10022000010808FA0CF3B1F800C00CEA03069E427C
:1002300021D183004FF00F0C0CFA03F7BC4305FAF1
:1002400003FC4CEA040491F803C0BCF1280F05D16B
:1002500000F1080C08FA0CF8C2F8148091F803C0F9
:10026000BCF1480F07D100F1080C4FF0010808FA63
:100270000CF8C2F81080401C0828CED35460BDE8AA
:10028000F0810246002093680B400BB1012000E092
:1002900000207047416170470161704700BFFEE771
:1002A00010B54FF400510448FFF7EBFF08B90120E7
:1002B00010BD0020FCE700000010014010B5012136
:1002C0000348FFF7DEFF08B9012010BD0020FCE75E
:1002D0000008014010B502210348FFF7D2FF08B91A
:1002E000012010BD0020FCE70008014070B5054664
:1002F000304800EB05142068804700283ED0207964
:100300000A2802DA0A20207152E02079142803DA40
:100310002079401C20714BE0A07A38B90120A072EE
:1003200005EB4501491CC8B200F094F8208900286B
:100330003EDDE088218988420DDAE088401C80B2E9
:10034000E0802189884233D105EB4501C91CC8B240
:1003500000F080F82CE0E07A002829DD207B401CAA
:10036000C0B22073E17A884222DB0020207305EBC3
:100370004501491CC8B200F06DF819E020790A283F
:1003800002DD0A20207110E0207918B12079401E8A
:1003900020710AE0A07A012807D10020A07205EBA5
:1003A0004501891CC8B200F055F80020E080207398
:1003B00070BD00003C0000200B48807A0A4AD27AC7
:1003C000904201D1002070470748807A064A115CAC
:1003D0001046807A401CC0B290720A2801DB0020CF
:1003E00090720846EFE700006C0000200021144ADC
:1003F0009172D172002018E0C821124A02EB00125B
:10040000118105210F4A02EB0012117100210D4AE2
:1004100002EB001291720B4A02EB0012D172094AF0
:1004200002EB00121173411CC8B20328E4DB064939
:10043000044A1160054911610549116270470000C5
:100440006C0000203C000020A1020008BD02000852
:10045000D50200080649C97A054A50541146C97A9E
:10046000491CC9B2D1720A2901DB0021D17270473F
:100470006C00002008B50121142000F05BF8042076
:100480008DF80300C002ADF8000069460948FFF787
:100490006DFE0120ADF8000069460748FFF766FED3
:1004A0000220ADF8000069460348FFF75FFEFFF742
:1004B0009DFF08BD001001400008014010B5002458
:1004C00004E02046FFF712FF601CC4B2032CF8DBE7
:1004D00010BD000010B5074B03EB00131981054B4D
:1004E00003EB0013DA720023024C04EB00142373B5
:1004F00010BD00003C00002008B50121082000F0DC
:1005000019F801208DF8020010208DF80300000179
:10051000ADF8000069460448FFF728FE4FF48070EC
:1005200001491431086008BD000C014000BFFEE71E
:100530007047704729B1064A92690243044B9A6199
:1005400004E0034A92698243014B9A6170470000BC
:100550000010024030B500210022002400232D4D60
:100560006D6805F00C0121B1042905D0082923D1BB
:1005700005E0294D056022E0274D05601FE0254D6F
:100580006D6805F47012234D6D6805F48034022502
:1005900005EB92421CB9214D554305600BE01D4D02
:1005A0006D6805F400351DB11C4D5543056002E032
:1005B000194D5543056002E0174D056000BF00BFAF
:1005C000144D6D6805F0F0010909154D6B5C056867
:1005D000DD4045600F4D6D6805F4E061090A104D7E
:1005E0006B5C4568DD4085600A4D6D6805F46051BF
:1005F000C90A0B4D6B5C4568DD40C560054D6D68F3
:1006000005F44041890B074D6B5CC568B5FBF3F5FC
:10061000056130BD0010024000127A0000093D0063
:1006200014000020240000207047000010B54FF493
:1006300000710648FFF730FE00BF4FF40071034819
:10064000FFF728FE00F0AAFB10BD0000000C0140DF
:1006500010B54FF400710948FFF71EFE00F0A7FB2C
:100660004FF400710548FFF715FE00BF00BF00BF43
:1006700000BF00BF00BF00BF00BF10BD000C0140A5
:1006800070B504460E46154606F0800010B9FFF717
:10069000CDFF01E0FFF7DCFF06F0400010B9FFF7E7
:1006A000C5FF01E0FFF7D4FF06F0200010B9FFF707
:1006B000BDFF01E0FFF7CCFF06F0100010B9FFF717
:1006C000B5FF01E0FFF7C4FF06F0080010B9FFF71F
:1006D000ADFF01E0FFF7BCFF06F0040010B9FFF723
:1006E000A5FF01E0FFF7B4FF06F0020010B9FFF725
:1006F0009DFF01E0FFF7ACFF06F0010010B9FFF726
:1007000095FF01E0FFF7A4FF04F0800010B9FFF7A8
:100710008DFF01E0FFF79CFF04F0400010B9FFF7E8
:1007200085FF01E0FFF794FF04F0200010B9FFF708
:100730007DFF01E0FFF78CFF04F0100010B9FFF718
:1007400075FF01E0FFF784FF04F0080010B9FFF720
:100750006DFF01E0FFF77CFF04F0040010B9FFF724
:1007600065FF01E0FFF774FF04F0020010B9FFF726
:100770005DFF01E0FFF76CFF04F0010010B9FFF727
:1007800055FF01E0FFF764FF05F0800010B9FFF7A7
:100790004DFF01E0FFF75CFF05F0400010B9FFF7E7
:1007A00045FF01E0FFF754FF05F0200010B9FFF707
:1007B0003DFF01E0FFF74CFF05F0100010B9FFF717
:1007C00035FF01E0FFF744FF05F0080010B9FFF71F
:1007D0002DFF01E0FFF73CFF05F0040010B9FFF723
:1007E00025FF01E0FFF734FF05F0020010B9FFF725
:1007F0001DFF01E0FFF72CFF05F0010010B9FFF726
:1008000015FF01E0FFF724FF70BD10B500F002F8FE
:1008100010BD00000CB50020019000903348006826
:1008200040F480303149086000BF3048006800F46F
:10083000003000900198401C0190009818B9019870
:10084000B0F5A06FF1D12948006800F4003010B174
:100850000120009001E0002000900098012843D181
:100860002348006840F010002149086008460068ED
:1008700020F0070008600846006840F002000860A9
:100880001A48406819494860084640684860084668
:10089000406840F4806048600846406820F47C105E
:1008A00048600846406840F4E81048600846006820
:1008B00040F08070086000BF0C48006800F00070D5
:1008C0000028F9D00948406820F003000749486033
:1008D0000846406840F00200486000BF0348406896
:1008E00000F00C000828F9D10CBD000000100240F7
:1008F0000020024030B50146B1F1807F01D30120D4
:1009000030BD21F07F40401E4FF0E0225061501773
:100910000F22002807DA13071D0E094B00F00F0401
:10092000241F1D5503E013071C0E064B1C5400BF6B
:1009300000204FF0E0229061072010610020DFE7E7
:1009400018ED00E000E400E010B500F051F800F010
:100950005BF810BD10B507480068C821B0FBF1F482
:100960002046FFF7C7FF20B103A000F0EFF900BF5A
:10097000FEE710BD000000205379735469636B5F7C
:10098000436F6E6669675F4552524F520000000028
:1009900010B51348006840F001001149086008468E
:1009A0004068104908400E494860084600680E49F2
:1009B00008400B4908600846006820F48020086061
:1009C0000846406820F4FE0048604FF41F0088602D
:1009D000FFF71BFF4FF000600449086010BD0000E6
:1009E000001002400000FFF8FFFFF6FE08ED00E0F7
:1009F0000448006820B103480068401E01490860AF
:100A0000704700003000002010B508480088012819
:100A100005DA06480088401C0449088004E00020EC
:100A200002490880FFF74AFD10BD00003400002095
:100A300021B1828942F40052828104E082894DF61C
:100A4000FF731A408281704700B585B001210420F0
:100A5000FFF770FD01218803FFF76CFD4FF4007074
:100A6000ADF8100018208DF8130003208DF8120047
:100A700004A91348FFF77AFB4FF48060ADF810002B
:100A800004208DF8130004A90D48FFF76FFB4FF405
:100A9000E13000900020ADF80400ADF80600ADF89C
:100AA0000800ADF80C000C20ADF80A0069460548B6
:100AB00000F018F801210348FFF7BAFF05B000BDA8
:100AC000000801400038014002460020B1F5007FD7
:100AD00000D100BF13880B400BB1012000E00020C3
:100AE000704700002DE9F04786B005460E46002409
:100AF000A24600BFA1460027B08900B100BF2F4623
:100B00002C8A4CF6FF700440F08804432C82AC8998
:100B10004EF6F3100440B0883189084371890843C8
:100B20000443AC81AC8A4FF6FF400440B0890443D3
:100B3000AC8201A8FFF70EFD1F48874202D1DDF805
:100B400010A001E0DDF80CA0A88900F4004040B13D
:100B50000AEBCA0000EB0A1031684900B0FBF1F85B
:100B600007E00AEBCA0000EB0A1031688900B0FB0D
:100B7000F1F86420B8FBF0F004012009642101FBC6
:100B80001089A88900F4004040B1322000EBC90070
:100B9000B0FBF1F000F00700044308E0322000EB66
:100BA00009106421B0FBF1F000F00F0004432C8128
:100BB00006B0BDE8F087000000380140C1F308022C
:100BC0008280704700BFFEE770B505460C464E4870
:100BD000048010E04C4B1A784C4B19784C4B187829
:100BE000FFF74EFD284600F0EBF848480088401C0F
:100BF00000B2464908804548B0F90000A042E9DD4E
:100C00004248048010E0404B1A78404B1978404B22
:100C10001878FFF735FD284600F0D2F83A480088EA
:100C2000401E00B2384908803748B0F9000000285B
:100C3000E9DA00203449088010E0334B1A78334B4E
:100C40001978334B1878FFF71BFD284600F0B8F8E9
:100C50002F480088401C00B22D4908802C48B0F96C
:100C60000000A042E9DD2A48048010E0264B1A78F3
:100C7000264B1978264B1878FFF702FD284600F01E
:100C80009FF822480088401E00B2204908801F4873
:100C9000B0F900000028E9DA00201C49088010E0C3
:100CA000194B1A78194B1978194B1878FFF7E8FC8B
:100CB000284600F085F814480088401C00B212490C
:100CC00008801148B0F90000A042E9DD0E48048018
:100CD00010E00D4B1A780D4B19780D4B1878FFF773
:100CE000CFFC284600F06CF809480088401E00B28E
:100CF000074908800648B0F900000028E9DA00201A
:100D00000349088070BD00002C0000202A0000204C
:100D10002800002008B501210820FFF70BFC012066
:100D20008DF8020010208DF803004001ADF800009E
:100D300069460548FFF71AFA00F094F94FF400707D
:100D400001491431086008BD000C0140014A024904
:100D500000F013B8DD0D00083800002002E008C8DC
:100D6000121F08C1002AFAD170477047002001E025
:100D700001C1121F002AFBD170472DE9F041164630
:100D80000F460446002503E03946B047641C6D1C3D
:100D900020780028F8D12846BDE8F081032000E043
:100DA00000BF011EA0F10102D0B2F9D170470220AC
:100DB00000E000BF011EA0F10102D0B2F9D17047DE
:100DC000002106E0052100BF0A1EA1F10103D9B2EE
:100DD000FAD1021EA0F10100F4D1704770B50446AB
:100DE0000D46E1B20548FFF7E9FE00BF8021034848
:100DF000FFF76AFE0028F9D0204670BD0038014098
:100E000000250026FFF778FBFFF784FFFFF71CFEA5
:100E1000FFF730FBFFF79EFD4FF4807052490860EA
:100E20000220FFF797F94FF480704F49091D0860C1
:100E30004EA0FFF78BFF51A0FFF788FF53A0FFF7ED
:100E400085FF2822C8210220FFF744FB8BE0FFF733
:100E5000B3FA0446002C2FD00A2C2BD2DFE804F082
:100E60002A05090D12161A1E22264EA0FFF76EFF44
:100E700021E050A0FFF76AFF1DE051A0FFF766FFD9
:100E8000012618E052A0FFF761FF14E054A0FFF71D
:100E90005DFF10E055A0FFF759FF0CE057A0FFF7EA
:100EA00055FF08E059A0FFF751FF04E05AA0FFF7F3
:100EB0004DFF00E000BF00BF96BB022C38D1681C7C
:100EC000C5B2062D00DD0125072D2AD2DFE805F089
:100ED00029040A10161C2200002211463F20FFF7A9
:100EE000CFFB24E000223F211046FFF7C9FB1EE0A4
:100EF0003F2200210846FFF7C3FB18E000223F21F4
:100F00000846FFF7BDFB12E03F2200211046FFF725
:100F1000B7FB0CE03F2211460020FFF7B1FB06E0D3
:100F200006E0002211461046FFF7AAFB00BF1AE0B8
:100F3000012E05D10F213C48FFF746FE002612E0A6
:100F4000052C08D10848001F006880F4807006490D
:100F5000091F086007E0082C05D134A0FFF7F6FE52
:100F600038A0FFF7F3FE72E7100C01400A4B313A4C
:100F7000BFD8D6C65753323831320A000A4B323AFC
:100F8000BFD8D6C64D4F544F520A00000A4B333AD1
:100F9000BFD8D6C6B4AEBFDAB7A2CBCDCAFDBEDDD0
:100FA0000A0000000A4B45595F315F444F574E0A13
:100FB000000000000A4B45595F315F55500A0000A0
:100FC0000A4B45595F315F4C4F4E470A0000000005
:100FD0000A4B45595F325F444F574E0A00000000EC
:100FE0000A4B45595F325F55500A00000A4B45597C
:100FF0005F325F4C4F4E470A000000000A4B4559D4
:101000005F335F444F574E0A000000000A4B4559BA
:101010005F335F55500A00000A4B45595F335F4C00
:101020004F4E470A00000000A08601000ACED2CA37
:10103000C74B656C65652EC4E3BAC353544D333258
:10104000210A00000A48657265206973204B656CAF
:1010500065652E48656C6C6F2053544D3332210A00
:101060000000000010B5002211461046FFF708FBF3
:10107000002211461046FFF703FB002211461046DE
:10108000FFF7FEFA002211461046FFF7F9FA642036
:10109000FFF796FE10BD0000B81000080000002009
:1010A0003C0000005C0D0008F41000083C0000202B
:1010B0003C0400006C0D000800A24A04000000007F
:1010C00000000000010203040607080900000000F8
:1010D00001020304010203040607080902040608CA
:1010E00000000000FF000000000000000000000001
:0410F00000000000FC
:04000005080000ED02
:00000001FF
