:020000040800F2
:1000000038040020050100084D1100080B0A000803
:1000100049110008550700085F190008000000009A
:100020000000000000000000000000001D13000898
:100030005907000800000000051200088516000896
:100040001F0100081F0100081F0100081F01000810
:100050001F0100081F0100081F0100081F01000800
:100060001F0100081F0100081F0100081F010008F0
:100070001F0100081F0100081F0100081F010008E0
:100080001F0100081F0100081F0100081F010008D0
:100090001F0100081F0100081F0100085D0700087C
:1000A0001F0100081F0100081F0100081F010008B0
:1000B0001F0100081F0100081F0100081F010008A0
:1000C0001F0100081F0100081F0100081F01000890
:1000D0001F010008491700081F0100081F01000840
:1000E0001F0100081F0100081F010008DFF810D0E1
:1000F00000F00EFB00480047CD220008AFF300805F
:10010000380400200648804706480047FEE7FEE71F
:10011000FEE7FEE7FEE7FEE7FEE7FEE7FEE7FEE7B7
:10012000E9160008ED0000082DE9FE4F804681EA3F
:100130000300C00F0C46009021F0004123F0004561
:10014000B8EB0200A94105D24046214690461C4624
:100150000B46024623F00040104347D0270DC7F35B
:100160000A00C3F30A510290401A019040286BDA4A
:10017000C3F3130040F4801B0098924620B1002383
:10018000D2EB030A63EB0B0B01985946C0F1400216
:10019000504600F066F906460D4650465946019A0B
:1001A00000F06EF910EB08006141002487EA11525B
:1001B00084EAE7731A4340D0009A62B3019A012A95
:1001C0004FEA075215DC001B61EB02014FF00042C1
:1001D00002EA0752CDE90042001C41F58011324687
:1001E0002B4600F0A5F903B0BDE8F08F404621464C
:1001F000F9E7001B61EB0201001C41F580130018B8
:100200005B412018A2F5001747EB030140EAD570C7
:10021000B6196D4111E06D084FEA360645EAC07522
:100220004FEA0752001B61EB0201001C41F58011EF
:1002300049084FEA30000019514132462B4603B0BD
:10024000BDE8F04F00F065B900980122400000239E
:10025000D0EB020263EBE073009821464FEAE074B2
:10026000B8EB000061EB0401E9E783F000435BE7D2
:1002700081F0004158E72DE9F04D81EA030404F0D4
:10028000004B21F0004514464FF0000A23F00041D6
:1002900050EA050220D054EA01021DD0C5F30A57E6
:1002A0000246C5F31303C1F31300C1F30A5640F429
:1002B000801543F48013A7EB0608101BD64608F2FE
:1002C000FD3873EB050002D308F1010801E0921834
:1002D0005B41B8F1000F03DA00200146BDE8F08D64
:1002E00000204FF48011064684460EE0171B73EB86
:1002F000050705D3121B63EB050306434CEA010C0B
:1003000049084FEA300092185B4150EA0107EDD1ED
:1003100052EA030012D082EA040083EA050108438E
:1003200005D0101BAB4106D20122002306E00022BB
:100330004FF0004302E06FF0010253101AEB060089
:100340004CEB085110EB0A0041EB0B01BDE8F04DFE
:1003500000F0DFB80EB5C10F80EAE0700844CA07AC
:10036000002140F233438DE80E000A460B4600F0B0
:10037000DFF803B000BD00F0004230F000400AD0CA
:10038000C10D01F56071C0F3160042EA0151C208C7
:1003900040071143704700200146704701F00043B9
:1003A00030B421F0004150EA010206D00A0DA2F556
:1003B0006072C1F31301002A02DC30BC00207047D8
:1003C000440F44EAC104C100E01830BC00EBC25045
:1003D00000F068B830B50B46014600202022012409
:1003E00009E021FA02F59D4205D303FA02F5491B03
:1003F00004FA02F52844151EA2F10102F1DC30BD19
:100400002DE9F05F0546002092469B468846064649
:10041000814640241BE0284641464746224600F0DC
:1004200089F953465A46C01A914110D311461846CD
:10043000224600F016F82D1A67EB01084F462246B7
:100440000120002100F00DF817EB00094E41201E9D
:10045000A4F10104DFDC484631462A464346BDE8A4
:10046000F09F202A04DB203A00FA02F100207047B6
:100470009140C2F1200320FA03F3194390407047E2
:10048000202A06DBCB17203A41FA02F043EAE07358
:1004900006E041FA02F3D040C2F120029140084345
:1004A000194670470029A8BF7047401C490008BF83
:1004B00020F00100704710B4B0FA80FC00FA0CF094
:1004C00050EA010404BF10BC704749B1CCF12004CC
:1004D00021FA04F411FA0CF118BF01212143084359
:1004E000A3EB0C01CB1D4FEA00614FEA102042BF85
:1004F000002010BC704700EBC35010440029A4BF7B
:1005000010BC7047401C490008BF20F0010010BC1F
:10051000704710B5141E73F1000408DA401C41F155
:10052000000192185B411A4301D120F0010010BD77
:100530002DE9F04D92469B4611B1B1FA81F202E0ED
:10054000B0FA80F220329046FFF78BFF04460F4648
:1005500040EA0A0041EA0B0153465A46084313D0C9
:10056000114653EA010019D0C8F14002504600F08C
:10057000E1F805460E46504659464246FFF771FFE0
:10058000084305D0012004E020463946BDE8F08D3F
:100590000020054346EAE0762C4337430A9863057A
:1005A000E40AA0EB08000022FD0A44EA47540A309E
:1005B00002D500200146E9E7010510196941DDE98E
:1005C000084500196941BDE8F04DA2E72DE9FE4F4D
:1005D00081EA030404F0004421F0004100944FF04C
:1005E000000B23F0004350EA01045ED052EA0304FA
:1005F0005BD0C3F30A54C1F30A552C44A4F2F3347C
:100600000194A0FB0254C1F3130141F48011C3F320
:10061000130343F4801301FB024400FB034E840ADE
:10062000970A44EA815447EA8357A4FB0768029576
:100630008D0A05FB07854FEA932C04FB0C54270514
:10064000029D4FEA065847EA1637B5EB08056EEBF0
:10065000070C870E920E47EA811742EA8312A7FB26
:100660000201B6EB0B0164EB00042B0D43EA0C33E3
:100670005E1844EB1C50DA465146E7FB0201C5F315
:1006800013044FEA0B3343EA14534FEA0432019C3C
:1006900043EA0603A4F10C040294009CCDE900B4E3
:1006A000FFF746FF03B0BDE8F08F00200146F9E7F1
:1006B000C1F30A52C1F3130140F2FF3341F4801138
:1006C0009A4202DA00200146704740F233439A42D0
:1006D000A2F2334202DC524200F02CB8FFF7C1BE56
:1006E00030B5041E71F1000404DB4FF000444042B9
:1006F00064EB0101141E73F1000405DB1C464FF08E
:100700000043524263EB0403994208BF904230BD5C
:10071000064C074D06E0E06840F0010394E807004E
:1007200098471034AC42F6D3FFF7E4FCF0240008FD
:1007300010250008202A04DB203A21FA02F00021CB
:10074000704721FA02F3D040C2F1200291400843E1
:100750001946704700BFFEE77047000008B500204B
:100760000090202000F01EF8012811D101226946D6
:100770003A2000F0ACFC9DF8000000F0100020B121
:1007800000200090012003490870202000F004F8A8
:1007900008BD00002C0000200149086070470000DF
:1007A00014040140014600200022074B1B6803EAA5
:1007B0000102054B14331B680B4013B10AB1012031
:1007C00000E00020704700000004014000212349A0
:1007D0008279002A3AD00A46126803689A430B4687
:1007E0001A600A1D126803689A430B1D1A60027989
:1007F00011440A6803681A430A60184A08321268EA
:1008000003689A43154B08331A601A1D126803686F
:100810009A43124B0C331A604279102A0ED11A1FD8
:10082000126803681A430D4B08331A601A1D1268C8
:1008300003681A43094B0C331A600DE007494279EB
:1008400011440A6803681A430A6005E002791144FA
:100850000A6803689A430A60704700000004014078
:1008600030B500228B071C0F0F2303FA04F20B4B49
:100870008C1053F824309343084C8D1044F82530E5
:1008800023468C1053F824308C07240F00FA04F40C
:100890002343024C8D1044F8253030BD0800014040
:1008A0000EB500F054FC0121082000F0BDFC04202E
:1008B0008DF80B002020ADF8080002A90A4800F0CE
:1008C00015F805210120FFF7CBFF2020009008201C
:1008D0008DF8050000208DF8040001208DF8060039
:1008E0006846FFF773FF0EBD000C01402DE9F04193
:1008F000024600250026002000230024002791F84E
:1009000003C00CF00F0591F803C00CF0100CBCF103
:10091000000F03D091F802C04CEA050591F800C021
:10092000BCF1000F31D0146800202BE04FF0010C17
:100930000CFA00F3B1F800C00CEA03069E4220D185
:1009400083004FF00F0C0CFA03F7BC4305FA03FCCD
:100950004CEA040491F803C0BCF1280F06D14FF013
:10096000010C0CFA00FCC2F814C00AE091F803C0B4
:10097000BCF1480F05D14FF0010C0CFA00FCC2F895
:1009800010C0401C0828D1D31460B1F800C0BCF1DD
:10099000FF0F34DD546800202EE000F1080C4FF00A
:1009A000010808FA0CF3B1F800C00CEA03069E42F5
:1009B00021D183004FF00F0C0CFA03F7BC4305FA6A
:1009C00003FC4CEA040491F803C0BCF1280F05D1E4
:1009D00000F1080C08FA0CF8C2F8148091F803C072
:1009E000BCF1480F07D100F1080C4FF0010808FADC
:1009F0000CF8C2F81080401C0828CED35460BDE823
:100A0000F081416170470161704700BFFEE721B18D
:100A1000028842F48062028004E002884FF6FF33CD
:100A20001A400280704770B502460024002500235A
:100A30000020958A138B1B0445EA030626F07F44A9
:100A400004EA01068E4201D1012000E0002070BDC1
:100A500021B1028842F00102028004E002884FF6D0
:100A6000FE731A400280704721B1028842F48072FE
:100A7000028004E002884FF6FF631A40028070474C
:100A800021B1028842F40072028004E002884FF62D
:100A9000FF531A40028070470CB502460020002325
:100AA0000193009300920B0F019321F07F41019B72
:100AB0001BB1009B1433009303E0090C009B183317
:100AC0000093009B1B680B400BB1012000E000204D
:100AD0000CBD00002DE9F04385B004460D4600260C
:100AE000B1460427DFF8CC80A6884FF6C0700640D8
:100AF000684600F0A9FBDDF808802F48B8FBF0F04D
:100B00001FFA80F946EA0906A68020884FF6FE7192
:100B10000840208000262949286888420CD8286887
:100B20004000B8FBF0F087B2042F00DA04273E4300
:100B300009F10100208427E0E8884BF6FF71884224
:100B400006D1286800EB4000B8FBF0F087B209E05E
:100B5000286800EBC00101EB0010B8FBF0F087B291
:100B600047F48047C7F30B0008B947F0010747F483
:100B7000004006434FF4967009FB00F04FF47A7181
:100B800090FBF1F0401C2084A683208840F00100F7
:100B9000208026884FF6F5300640A88869890843EA
:100BA00006432680A88929890843208105B0BDE82D
:100BB000F083000000127A0040420F00A08601007E
:100BC0000146088AC0B2704712B141F0010102E04B
:100BD0004FF6FE7319400182704701827047000092
:100BE00010B50446214602A000F0D8FE002010BD3A
:100BF0003C3C2D4D5055363035302D4552524F52DC
:100C00002D3E3E200A493243B5C8B4FDB3ACCAB14B
:100C1000216572726F72436F6465203D2025640AFE
:100C20000A00000008B50121082000F0FDFA0120AB
:100C30008DF8020010208DF803000001ADF80000CF
:100C400069460448FFF752FE4FF4807001491431A1
:100C5000086008BD000C01401CB504460622694628
:100C60003B2000F034FA9DF801009DF8001040EAA6
:100C7000012000B220809DF803009DF8021040EA98
:100C8000012000B260809DF805009DF8041040EA44
:100C9000012000B2A0801CBD1CB504460622694696
:100CA000432000F014FA9DF801009DF8001040EA7E
:100CB000012000B220809DF803009DF8021040EA58
:100CC000012000B260809DF805009DF8041040EA04
:100CD000012000B2A0801CBD08B5002000900122B8
:100CE0006946752000F0F3F99DF80000682804D0EB
:100CF000054800F053FE002008BD9DF8001003A039
:100D000000F04CFE0120F7E7902400083C3C2D4DFC
:100D10005055363035302D494E464F2D3E3E204DF4
:100D2000505536303530204944203D20307825322A
:100D3000580A000070B505460E4614464FF4803040
:100D40005D4908600AE05C490868411E5A4A116022
:100D500020B90020FFF744FFC0B270BD4FF400314E
:100D60005648FFF799FE0028EDD101215348FFF7BF
:100D70007BFE4FF48030504908600AE04E49086815
:100D8000411E4D4A116020B90120FFF729FFC0B272
:100D9000E3E74B494948FFF746FE0028EED0002222
:100DA000D0214648FFF710FF4FF4803042490860D9
:100DB0000AE041490868411E3F4A116020B90220FB
:100DC000FFF70EFFC0B2C8E73E493C48FFF72BFED5
:100DD0000028EED031463948FFF7FFFE4FF480304F
:100DE000354908600AE034490868411E324A1160FA
:100DF00020B90320FFF7F4FEC0B2AEE73149891CE9
:100E00002E48FFF710FE0028EDD001212B48FFF7F8
:100E10002BFE4FF48030284908600AE02649086814
:100E2000411E254A116020B90420FFF7D9FEC0B247
:100E300093E723492148FFF7F6FD0028EED0012271
:100E4000D0211E48FFF7C0FE4FF480301A490860D9
:100E50000AE019490868411E174A116020B90520A7
:100E6000FFF7BEFEC0B278E71549491C1348FFF7EB
:100E7000DAFD0028EDD016E0012C07D100210F4843
:100E8000FFF7C5FD01210D48FFF7FAFD0C493F3181
:100E90000A48FFF7C8FD30B10848FFF791FE2870F7
:100EA0006D1C601E84B2002CE6D101210348FFF7BF
:100EB000AEFD012051E7000030000020005400404A
:100EC000010003008200070070B504460D464FF490
:100ED0008030434908600AE041490868411E404AA1
:100EE000116020B90620FFF77BFEC0B270BD4FF441
:100EF00000313C48FFF7D0FD0028EDD101213948F1
:100F0000FFF7B2FD4FF48030354908600AE03449FC
:100F10000868411E324A116020B90720FFF760FEC1
:100F2000C0B2E3E730492F48FFF77DFD0028EED03F
:100F30000022D0212B48FFF747FE4FF4803028498C
:100F400008600AE026490868411E254A116020B958
:100F50000820FFF745FEC0B2C8E724492148FFF743
:100F600062FD0028EED029461E48FFF736FE4FF4FA
:100F700080301B4908600AE019490868411E184A78
:100F8000116020B90920FFF72BFEC0B2AEE7174968
:100F9000891E1448FFF747FD0028EDD0214611486F
:100FA000FFF71BFE4FF480300D4908600AE00C4942
:100FB0000868411E0A4A116020B90A20FFF710FE96
:100FC000C0B293E70949891C0648FFF72CFD0028A9
:100FD000EDD001210348FFF753FD012086E7000013
:100FE0003000002000540040010003008200070090
:100FF00000B585B00121480500F006F9012108205F
:1010000000F012F903208DF812001C208DF8130057
:101010004020ADF8100004A91348FFF767FC8020BA
:10102000ADF8100004A91048FFF760FC0020ADF8EF
:1010300004004BF6FF70ADF806000A20ADF808007A
:101040004FF48060ADF80A000001ADF80C000748CD
:10105000009069460648FFF73DFD01210448FFF76F
:10106000F7FC05B000BD0000000C0140801A06002E
:101070000054004010B580216B2000F05DF80A207C
:1010800000F0DCFA00216B2000F056F804211A2051
:1010900000F052F80921192000F04EF818211B2009
:1010A00000F04AF800211C2000F046F8F821232027
:1010B00000F042F88021372000F03EF8102138205F
:1010C00000F03AF801216B2000F036F810BD70B541
:1010D00004460D461646324621462846FFF72AFEAC
:1010E00070BD00002DE9F84F82460222694641207A
:1010F000FFF7EDFF9DF801009DF8001040EA012088
:101100000FFA80FB5846FFF725F980460022074B6F
:10111000FFF7B1F80646064A064BFFF705F8044606
:10112000FFF73CF9CAF80000BDE8F88F00407540B1
:10113000A4703D0AD743424070B504460D4621468F
:101140002846FFF7C1FE70BD00BFFEE7704708B537
:101150000121084600F068F84FF4C06000F048F83C
:1011600000208DF801008DF8020001208DF80300A9
:1011700017208DF80000684600F002F808BD000056
:1011800070B5002100230F22C47804B3154C2468E5
:1011900004F4E064C4F5E064210AC1F10403CA4028
:1011A000447804FA03F184781440214309010E4C79
:1011B0000678A155047804F01F050124AC40057899
:1011C0006D11AD0005F1E025C5F8004109E0047896
:1011D00004F01F050124AC40044D0678761145F853
:1011E000264070BD0CED00E000E400E080E100E08E
:1011F00002490143024A1160704700000000FA05ED
:101200000CED00E07047000029B1064AD2690243A4
:10121000044BDA6104E0034AD2698243014BDA618C
:10122000704700000010024029B1064A926902434B
:10123000044B9A6104E0034A92698243014B9A612C
:10124000704700000010024030B500210022002449
:1012500000232D4D6D6805F00C0121B1042905D046
:10126000082923D105E0294D056022E0274D0560BE
:101270001FE0254D6D6805F47012234D6D6805F46F
:101280008034022505EB92421CB9214D554305607F
:101290000BE01D4D6D6805F400351DB11C4D554327
:1012A000056002E0194D5543056002E0174D0560E9
:1012B00000BF00BF144D6D6805F0F0010909154D20
:1012C0006B5C0568DD4045600F4D6D6805F4E061BD
:1012D000090A104D6B5C4568DD4085600A4D6D68FC
:1012E00005F46051C90A0B4D6B5C4568DD40C56073
:1012F000054D6D6805F44041890B074D6B5CC56871
:10130000B5FBF3F5056130BD0010024000127A0014
:1013100000093D0014000020240000207047000058
:1013200010B54FF400710648FFF76DFB00BF4FF496
:1013300000710348FFF765FB00F095FF10BD00004A
:10134000000C014010B54FF400710948FFF75BFB3A
:1013500000F092FF4FF400710548FFF752FB00BF09
:1013600000BF00BF00BF00BF00BF00BF00BF10BD77
:10137000000C014070B504460E46154606F080008C
:1013800010B9FFF7CDFF01E0FFF7DCFF06F04000EA
:1013900010B9FFF7C5FF01E0FFF7D4FF06F020000A
:1013A00010B9FFF7BDFF01E0FFF7CCFF06F010001A
:1013B00010B9FFF7B5FF01E0FFF7C4FF06F0080022
:1013C00010B9FFF7ADFF01E0FFF7BCFF06F0040026
:1013D00010B9FFF7A5FF01E0FFF7B4FF06F0020028
:1013E00010B9FFF79DFF01E0FFF7ACFF06F0010029
:1013F00010B9FFF795FF01E0FFF7A4FF04F08000AC
:1014000010B9FFF78DFF01E0FFF79CFF04F04000EB
:1014100010B9FFF785FF01E0FFF794FF04F020000B
:1014200010B9FFF77DFF01E0FFF78CFF04F010001B
:1014300010B9FFF775FF01E0FFF784FF04F0080023
:1014400010B9FFF76DFF01E0FFF77CFF04F0040027
:1014500010B9FFF765FF01E0FFF774FF04F0020029
:1014600010B9FFF75DFF01E0FFF76CFF04F001002A
:1014700010B9FFF755FF01E0FFF764FF05F08000AA
:1014800010B9FFF74DFF01E0FFF75CFF05F04000EA
:1014900010B9FFF745FF01E0FFF754FF05F020000A
:1014A00010B9FFF73DFF01E0FFF74CFF05F010001A
:1014B00010B9FFF735FF01E0FFF744FF05F0080022
:1014C00010B9FFF72DFF01E0FFF73CFF05F0040026
:1014D00010B9FFF725FF01E0FFF734FF05F0020028
:1014E00010B9FFF71DFF01E0FFF72CFF05F0010029
:1014F00010B9FFF715FF01E0FFF724FF70BD10B52D
:1015000000F002F810BD00000CB500200190009022
:101510003348006840F480303149086000BF3048EB
:10152000006800F4003000900198401C0190009881
:1015300018B90198B0F5A06FF1D12948006800F4FE
:10154000003010B10120009001E0002000900098D0
:10155000012843D12348006840F010002149086069
:101560000846006820F0070008600846006840F060
:10157000020008601A4840681949486008464068F7
:1015800048600846406840F480604860084640680B
:1015900020F47C1048600846406840F4E810486039
:1015A0000846006840F08070086000BF0C48006882
:1015B00000F000700028F9D00948406820F00300CE
:1015C000074948600846406840F00200486000BF94
:1015D0000348406800F00C000828F9D10CBD000059
:1015E000001002400020024030B50146B1F1807F7A
:1015F00001D3012030BD21F07F40401E4FF0E0229A
:10160000506150170F22002807DA13071D0E094BEF
:1016100000F00F04241F1D5503E013071C0E064B9A
:101620001C5400BF00204FF0E022906107201061A1
:101630000020DFE718ED00E000E400E031B51048DD
:1016400000684FF47A71B0FBF1F52846FFF7CCFF44
:10165000002408E000BF4FF0E020006900F4803073
:101660000028F8D0641C00988442F3D30448006832
:10167000C821B0FBF1F52846FFF7B6FF38BD0000E2
:101680000000002000200CE0074931F8101031B1B3
:10169000054931F81010491E034A22F81010411C68
:1016A000C8B20228F0DB70472800002010B50748B8
:1016B0000068C821B0FBF1F42046FFF795FF20B188
:1016C00003A000F06BF900BFFEE710BD0000002092
:1016D0005379735469636B5F436F6E6669675F45E7
:1016E00052524F520000000010B51348006840F0FD
:1016F00001001149086008464068104908400E4939
:101700004860084600680E4908400B4908600846D2
:10171000006820F4802008600846406820F4FE003D
:1017200048604FF41F008860FFF7E9FE4FF000604B
:101730000449086010BD0000001002400000FFF8DE
:10174000FFFFF6FE08ED00E010B540F22551064817
:1017500000F065F838B1044800F0F8F8C4B221464A
:10176000014800F0F8F810BD0038014021B182892D
:1017700042F40052828104E082894DF6FF731A40E0
:101780008281704700B585B001210420FFF74CFD30
:1017900001218803FFF748FD4FF40070ADF81000F9
:1017A00018208DF8130003208DF8120004A91348A7
:1017B000FFF79CF84FF48060ADF8100004208DF81E
:1017C000130004A90D48FFF791F84FF4E1300090A1
:1017D0000020ADF80400ADF80600ADF80800ADF843
:1017E0000C000C20ADF80A006946054800F042F8EC
:1017F00001210348FFF7BAFF05B000BD0008014012
:101800000038014002460020B1F5007F00D100BF42
:1018100013880B400BB1012000E00020704770B529
:101820000246002400230025002040F66A16B1423B
:1018300000D100BFC1F3421501F01F03012606FAD3
:1018400003F3012D02D19689334006E0022D02D127
:10185000168A334001E0968A33400C12012606FABC
:1018600004F41688344013B10CB1012000E00020CC
:1018700070BD00002DE9F04786B005460E460024F5
:10188000A24600BFA1460027B08900B100BF2F4685
:101890002C8A4CF6FF700440F08804432C82AC89FB
:1018A0004EF6F3100440B08831890843718908432B
:1018B0000443AC81AC8A4FF6FF400440B089044336
:1018C000AC8201A8FFF7C0FC1F48874202D1DDF8B7
:1018D00010A001E0DDF80CA0A88900F4004040B1A0
:1018E0000AEBCA0000EB0A1031684900B0FBF1F8BE
:1018F00007E00AEBCA0000EB0A1031688900B0FB70
:10190000F1F86420B8FBF0F004012009642101FB28
:101910001089A88900F4004040B1322000EBC900D2
:10192000B0FBF1F000F00700044308E0322000EBC8
:1019300009106421B0FBF1F000F00F0004432C818A
:1019400006B0BDE8F08700000038014001468888F5
:10195000C0F308007047C1F308028280704700BFDF
:10196000FEE7000008B501210820FFF75DFC01201B
:101970008DF8020010208DF803004001ADF8000042
:1019800069460548FEF7B2FF00F068FD4FF40070AD
:1019900001491431086008BD000C01400FB4054B2B
:1019A00010B503A9044A029800F0DAF810BC5DF8FB
:1019B00014FB0000A92200083400002002E008C83F
:1019C000121F08C1002AFAD170477047002001E0B9
:1019D00001C1121F002AFBD1704700002DE9FF5FF3
:1019E00082B00021DDE90430020DDDF840B0034390
:1019F00018D044F61050A2F2FF3242431514119849
:101A000001281FD0A5EB0B00401C5FEA000A4FF035
:101A100000064E4FDFF83891B046504615D5CAF152
:101A2000000413E0119801244AA3012801D16FEAB0
:101A30000B010298119AC0E90031C0E9024206B0D8
:101A4000BDE8F09FCBF10000DFE704460021404AEB
:101A5000491842EB0450CDE9001012E0E00707D02E
:101A600032463B4640464946FEF7B0FD8046894631
:101A700032463B4610461946FEF7A8FD06460F467D
:101A80006410002CEAD1DDE90401DDE90023BAF19C
:101A9000000F06DAFEF79AFD42464B46FEF796FD2A
:101AA00005E0FEF7E8FB42464B46FEF7E4FB044642
:101AB0000E460022284BFEF713FE03D84FF0FF30EE
:101AC000014607E00022254B20463146FEF72CFB5D
:101AD000FEF7EEFD102409E0002C0ADB0A220023A9
:101AE000FEF78EFC039B30321A55641E50EA010249
:101AF000F2D1641C039AC4F111031444119A012A0F
:101B000003D0012208430DD10AE0084304D000208D
:101B10004FF0110B119072E7A3EB0B056D1E0DE05A
:101B20005B4504DD4FF0000205F1010504E003DA36
:101B30004FF00002A5F10105002AECD0029811999E
:101B4000C0E90231C0E9004579E700000000144017
:101B50000000F03F300000000000F0430000E03FD4
:101B60002DE9FF4F95B09A46884606460025EEE1DE
:101B7000252877D100242746F94A0121039400E063
:101B8000044316F8013F203B01FA03F01042F7D15D
:101B900030782A2811D06FF02F033078A0F130026E
:101BA000092A16D8039A44F0020402EB820203EBDE
:101BB00042021044761C0390EFE758F8042B03927E
:101BC000002A03DA504244F40054039044F0020423
:101BD000761C30782E2816D116F8010F44F0040434
:101BE0002A280DD06FF02F023078A0F13003092B96
:101BF00009D807EB870302EB4303C718761CF3E70A
:101C000058F8047B761C30786C280FD006DC4C2802
:101C100017D068280DD06A2814D104E0742810D099
:101C20007A280FD10DE044F400140AE044F4801443
:101C300001E044F440147278824202D104F5801429
:101C4000761C761C307866280BD013DC582877D0A9
:101C500009DC002875D04528F6D04628F4D047285E
:101C60001AD193E118E0632835D0642879D065282B
:101C700012D18BE1702873D008DC6728F1D0692875
:101C80006FD06E280DD06F2806D1ACE073282CD011
:101C9000752874D0782853D05246179990476D1CF8
:101CA00054E1C4F30250022809D003280DD0D8F81B
:101CB000001004280DD00D6008F1040846E1D8F8A2
:101CC0000010EA17C1E90052F6E7D8F800100D80BD
:101CD000F2E70D70F0E718F8041B8DF800100020F3
:101CE0008DF80100EB46012003E058F804BB4FF0EB
:101CF000FF3061074FF0000102D40DE009F101014E
:101D00008946B9420FDA8145F8DB1BF80910002932
:101D1000F4D108E009F1010189468142FADB1BF8A0
:101D200009100029F6D103985346A0EB0907214674
:101D30003846179A00F080FA284400EB090507E0BE
:101D400044E008E10DE01BF8010B5246179990475B
:101D5000B9F10109F7D2534621463846179AF2E005
:101D600039E00A21C4F302524FF0000B0091022A1D
:101D700006D058F8040BC117032A09D00AE023E063
:101D800008F1070020F00702F2E80201904605E0A2
:101D900000B2C117042A01D140B2C117002906DAE6
:101DA0000A460021404261EB02012D2202E0220599
:101DB00004D52B228DF80420012203E0E20701D094
:101DC0002022F7E7914657E00A2100E010214FF06A
:101DD000000B00910BE010214FF0000B44F00404C5
:101DE0000827009103E008204FF0000B0090C4F397
:101DF0000252022A05D058F8040B0021032A08D009
:101E000008E008F1070020F00702F2E8020190461E
:101E100003E080B2042A00D1C0B24FF000092207CB
:101E20002AD53278702A07D0DDF800C08CF0100C6B
:101E30005CEA0B0C05D00EE040228DF80420012254
:101E400008E050EA010306D030238DF804308DF805
:101E5000052002229146009B83F0080353EA0B03FE
:101E60000AD150EA010201D1620705D530228DF86E
:101E700004204FF001097F1E3278582A04D039A27D
:101E80000C920CAA02920BE03BA2F9E75B46009A87
:101E9000FEF7B6FA0C9B9B5C029A521E02921370DC
:101EA00050EA0102F2D1029804A9081A00F1200BAD
:101EB000600702D524F4803400E001275F4502DD8D
:101EC000A7EB0B0000E0002000EB0B010090039853
:101ED0004944401A0390E00306D453462146179A1A
:101EE000039800F0A9F90544002706E001A852462E
:101EF000C05D179990476D1C7F1C4F45F6DBE003D2
:101F00000CD553462146179A039800F095F90544DD
:101F100004E030205246179990476D1C0099481EE6
:101F200000900029F5DC08E00298029952460078FA
:101F3000491C0291179990476D1CBBF10001ABF150
:101F4000010BF1DC5BE100F065F90544761C3078AB
:101F500000287FF40DAE19B02846BDE8F08F0000D0
:101F6000092801003031323334353637383961626F
:101F70006364656600000000303132333435363733
:101F8000383941424344454600000000600700D410
:101F9000062708F1070020F00700F0E8022380463A
:101FA00003F0004C5FEA0C0001D097A009E0200587
:101FB00001D596A005E0E00701D095A001E0AFF2C1
:101FC0004C001390307823F0004365280CD006DCD9
:101FD000452809D046281DD047287FD13BE06628F8
:101FE00018D067287AD136E00021112F01DB1120AB
:101FF00000E0781CCDE9000104A90CA8FFF7EEFC75
:10200000DDE90D010C9A4FF0000B07F10109109268
:1020100000914EE04FF000400097CDE9011004A977
:102020000CA8FFF7DBFCDDE90D020C9B0F994FF0CC
:10203000000B91461093009211B9791C00EB010935
:10204000B7EB090003D4C0F1FF3B07F10109A9EB8D
:102050000700019042E0012F00DA01270021112F33
:1020600001DD112000E03846CDE9000104A90CA8EB
:10207000FFF7B4FCDDE90D010C9A00914FF0000B65
:10208000B946109221070FD4009A4A4503DA9146C7
:1020900001E0A9F10109B9F1010F05DD109AA9F1DB
:1020A0000101515C3029F4D0B84202DA10F1040F7A
:1020B00003DA0121CDE9011010E0002803DC83449C
:1020C000A9EB000102E0411C494500DD8946A0EB77
:1020D0000B00401C01904FF000400290200705D4F7
:1020E0000198484502DB4FF0FF30019000208DF849
:1020F0004B0002980DF14B07B0F1004F25D00220A4
:102100000C902B200D90029800280CDA404202908F
:102110002D200D9007E00A210298FEF75BF930317F
:10212000029007F8011D0C99481E0C900029F2DC62
:1021300002980028EFD1791E0D980870307800F0D1
:10214000200040F0450007F8020D11A8C01BC01D7B
:1021500002901398007800B1012000EB090101986A
:1021600001EBE071029801440398401A401E03906D
:10217000E00306D453462146179A039800F05CF812
:1021800005441398007818B15246179990476D1C72
:10219000E00323D553462146179A039800F04CF8E4
:1021A00005441BE0BBF1000F07DB0098584504DD38
:1021B0001098179910F80B0001E01799302052463B
:1021C000904701980BF1010B401E05F101050190AC
:1021D00004D12E205246179990476D1CB9F1000189
:1021E000A9F10109DEDC05E017F8010B5246179949
:1021F00090476D1C0299481E02900029F4DC53465A
:102200002146179A03989EE62D0000002B0000003F
:10221000200000002DE9F041044600251E46174627
:10222000880404D405E039462020B0476D1C641EA4
:10223000F9D52846BDE8F0812DE9F0410446002596
:102240001E469046C80301D5302700E020278804A9
:1022500004D505E041463846B0476D1C641EF9D5EB
:102260002846BDE8F081032000E000BF011EA0F178
:102270000102D0B2F9D17047022000E000BF011E78
:10228000A0F10102D0B2F9D17047002106E005218A
:1022900000BF0A1EA1F10103D9B2FAD1021EA0F1BA
:1022A0000100F4D17047000070B504460D46E1B25C
:1022B0000548FFF750FB00BF80210348FFF7A2FA53
:1022C0000028F9D0204670BD0038014070B586B0B6
:1022D0000024FEF7A7FCFFF755FAFFF743FBFFF7D3
:1022E000E5F9FEF785FEFEF7C5FE35A0FFF756FBC4
:1022F00039A0FFF753FBFEF7EFFC012855D1FEF79D
:10230000CFFA51E03C48008880B92CB100223F212F
:102310001046FFF72FF804E0002211461046FFF7A1
:1023200029F8C8203449088084F0010432484088E4
:10233000002839D131480078002835D0304800686D
:1023400020F020002E49086004A8FEF785FCBDF9A6
:102350001430BDF91220BDF910102AA0FFF71EFBA2
:1023600002A8FEF799FCBDF90C30BDF90A20BDF9B1
:10237000081029A0FFF712FB01A8FEF7B3FE019891
:10238000FDF7F9FF05462A460B4628A0FFF706FB96
:10239000142019494880002018490870184800681E
:1023A00040F0200016490860ACE724A0FFF7F6FAD9
:1023B000002211463F20FEF7DDFF002006B070BD71
:1023C0000ACED2CAC74B656C65652EC4E3BAC35347
:1023D000544D3332210A00000A4865726520697342
:1023E000204B656C65652E48656C6C6F2053544DB1
:1023F0003332210D0A0A0000280000202C000020A2
:1024000000040140BCD3CBD9B6C8A3BA2538642593
:10241000386425386400000009CDD3C2DDD2C72559
:1024200038642538642538640000000009CEC2B63F
:10243000C825382E32660D0A000000000D0AC3BB05
:10244000D3D0BCECB2E2B5BD4D505536303530B4CA
:10245000ABB8D0C6F7A3A10D0A00000010B500224A
:1024600011461046FEF786FF002211461046FEF781
:1024700081FF002211461046FEF77CFF0022114624
:102480001046FEF777FF6420FFF7FFFE10BD000047
:102490003C3C2D4D5055363035302D4552524F5223
:1024A0002D3E3E204D5055363035302064656374E6
:1024B0006563746564206572726F72210ABCECB248
:1024C000E2B2BBB5BD4D505536303530C4A3BFE97F
:1024D000A3ACC7EBBCECB2E9C4A3BFE9D3EBBFAA82
:1024E000B7A2B0E5B5C4BDD3CFDF0D0A0A00000026
:1024F000102500080000002038000000BC1900086A
:10250000482500083800002000040000CC1900080D
:1025100000A24A04000000000000000001020304C1
:102520000607080900000000010203040102030479
:102530000607080902040608000000000000000069
:08254000000001000000000092
:04000005080000ED02
:00000001FF
