:020000040800F2
:100000001804002005010008FD0400080904000888
:10001000F90400084D010008790B000800000000F9
:10002000000000000000000000000000B50600080D
:100030005101000800000000BD050008810900080A
:100040001F0100081F0100081F0100081F01000810
:100050001F0100081F010008550100087901000870
:100060001F0100081F0100081F0100081F010008F0
:100070001F0100081F0100081F0100081F010008E0
:100080001F0100081F0100081F0100081F010008D0
:100090001F0100081F0100081F0100081F010008C0
:1000A0001F0100081F0100081F0100081F010008B0
:1000B0001F0100081F0100081F0100081F010008A0
:1000C0001F0100081F0100081F0100081F01000890
:1000D0001F0100081F0100081F0100081F01000880
:1000E0001F0100081F0100081F010008DFF810D0E1
:1000F00000F01AF800480047690C0008AFF30080D0
:10010000180400200648804706480047FEE7FEE73F
:10011000FEE7FEE7FEE7FEE7FEE7FEE7FEE7FEE7B7
:1001200085090008ED000008064C074D06E0E06870
:1001300040F0010394E8070098471034AC42F6D32E
:10014000FFF7D8FF800D0008A00D000800BFFEE7F4
:100150007047000010B5012000F040F8012808D1D8
:100160000448006880F4807002490860012000F0B3
:100170002FF810BD0C0C014010B5022000F02EF835
:10018000012808D104A000F015FD09A000F012FD1F
:10019000022000F01DF810BD0ACED2CAC74B656C14
:1001A00065652EC4E3BAC353544D3332210A0000AF
:1001B0000A48657265206973204B656C65652E4839
:1001C000656C6C6F2053544D3332210A00000000DF
:1001D00001490860704700001404014001460020F6
:1001E0000022074B1B6803EA0102054B14331B680E
:1001F0000B4013B10AB1012000E00020704700005D
:1002000000040140002123498279002A3AD00A469D
:10021000126803689A430B461A600A1D1268036845
:100220009A430B1D1A60027911440A6803681A4345
:100230000A60184A0832126803689A43154B08335B
:100240001A601A1D126803689A43124B0C331A6025
:100250004279102A0ED11A1F126803681A430D4BF7
:1002600008331A601A1D126803681A43094B0C33CD
:100270001A600DE00749427911440A6803681A437D
:100280000A6005E0027911440A6803689A430A602B
:10029000704700000004014030B500228B071C0F9E
:1002A0000F2303FA04F20B4B8C1053F824309343C2
:1002B000084C8D1044F8253023468C1053F8243018
:1002C0008C07240F00FA04F42343024C8D1044F8E9
:1002D000253030BD080001402DE9F04102460025DF
:1002E0000026002000230024002791F803C00CF012
:1002F0000F0591F803C00CF0100CBCF1000F03D0F7
:1003000091F802C04CEA050591F800C0BCF1000F5D
:1003100031D0146800202BE04FF0010C0CFA00F3F0
:10032000B1F800C00CEA03069E4220D183004FF0D2
:100330000F0C0CFA03F7BC4305FA03FC4CEA040467
:1003400091F803C0BCF1280F06D14FF0010C0CFA54
:1003500000FCC2F814C00AE091F803C0BCF1480FD9
:1003600005D14FF0010C0CFA00FCC2F810C0401C83
:100370000828D1D31460B1F800C0BCF1FF0F34DD00
:10038000546800202EE000F1080C4FF0010808FA34
:100390000CF3B1F800C00CEA03069E4221D18300A1
:1003A0004FF00F0C0CFA03F7BC4305FA03FC4CEAC0
:1003B000040491F803C0BCF1280F05D100F1080C2A
:1003C00008FA0CF8C2F8148091F803C0BCF1480F89
:1003D00007D100F1080C4FF0010808FA0CF8C2F838
:1003E0001080401C0828CED35460BDE8F08102463E
:1003F000002093680B400BB1012000E00020704703
:10040000416170470161704700BFFEE770B5044667
:100410000D4629462046FFF7EAFF40B900BF2946AE
:100420002046FFF7E4FF0028F9D0002070BD01202E
:10043000FCE700000EB500F062F80121142000F086
:10044000BFF804208DF80B00C002ADF8080002A927
:100450001A48FFF741FF0120ADF8080002A918482B
:10046000FFF73AFF00210846FFF716FF0120009032
:1004700008208DF8050000208DF8040001208DF87B
:1004800006006846FFF7BEFE0220ADF8080002A98C
:100490000B48FFF721FF01210020FFF7FDFE02209E
:1004A000009008208DF8050000208DF80400012040
:1004B0008DF806006846FFF7A5FE0EBD001001404E
:1004C0000008014008B50121082000F079F801205A
:1004D0008DF8020010208DF803000001ADF8000037
:1004E00069460448FFF7F8FE4FF480700149143163
:1004F000086008BD000C014000BFFEE7704708B56A
:100500000121084600F05CF84FF4C06000F04CF8A0
:1005100001208DF801008DF802008DF803000620FF
:100520008DF80000684600F007F807208DF80000FD
:10053000684600F001F808BD70B5002100230F22C5
:10054000C47804B3154C246804F4E064C4F5E06492
:10055000210AC1F10403CA40447804FA03F1847803
:100560001440214309010E4C0678A155047804F08B
:100570001F050124AC4005786D11AD0005F1E025A3
:10058000C5F8004109E0047804F01F050124AC40DF
:10059000044D0678761145F8264070BD0CED00E05C
:1005A00000E400E080E100E002490143024A1160FA
:1005B000704700000000FA050CED00E070470000F5
:1005C00029B1064A92690243044B9A6104E0034A46
:1005D00092698243014B9A6170470000001002400B
:1005E00030B500210022002400232D4D6D6805F058
:1005F0000C0121B1042905D0082923D105E0294D9A
:10060000056022E0274D05601FE0254D6D6805F46B
:100610007012234D6D6805F48034022505EB92427B
:100620001CB9214D554305600BE01D4D6D6805F467
:1006300000351DB11C4D5543056002E0194D554371
:10064000056002E0174D056000BF00BF144D6D68E6
:1006500005F0F0010909154D6B5C0568DD4045604A
:100660000F4D6D6805F4E061090A104D6B5C45683B
:10067000DD4085600A4D6D6805F46051C90A0B4D77
:100680006B5C4568DD40C560054D6D6805F4404113
:10069000890B074D6B5CC568B5FBF3F5056130BD93
:1006A0000010024000127A0000093D000000002006
:1006B000100000207047000010B54FF4007106488C
:1006C000FFF7A0FE00BF4FF400710348FFF798FE4C
:1006D00000F098FA10BD0000000C014010B54FF476
:1006E00000710948FFF78EFE00F095FA4FF4007193
:1006F0000548FFF785FE00BF00BF00BF00BF00BF79
:1007000000BF00BF00BF10BD000C014070B5044623
:100710000E46154606F0800010B9FFF7CDFF01E048
:10072000FFF7DCFF06F0400010B9FFF7C5FF01E05E
:10073000FFF7D4FF06F0200010B9FFF7BDFF01E07E
:10074000FFF7CCFF06F0100010B9FFF7B5FF01E08E
:10075000FFF7C4FF06F0080010B9FFF7ADFF01E096
:10076000FFF7BCFF06F0040010B9FFF7A5FF01E09A
:10077000FFF7B4FF06F0020010B9FFF79DFF01E09C
:10078000FFF7ACFF06F0010010B9FFF795FF01E09D
:10079000FFF7A4FF04F0800010B9FFF78DFF01E020
:1007A000FFF79CFF04F0400010B9FFF785FF01E060
:1007B000FFF794FF04F0200010B9FFF77DFF01E080
:1007C000FFF78CFF04F0100010B9FFF775FF01E090
:1007D000FFF784FF04F0080010B9FFF76DFF01E098
:1007E000FFF77CFF04F0040010B9FFF765FF01E09C
:1007F000FFF774FF04F0020010B9FFF75DFF01E09E
:10080000FFF76CFF04F0010010B9FFF755FF01E09E
:10081000FFF764FF05F0800010B9FFF74DFF01E01E
:10082000FFF75CFF05F0400010B9FFF745FF01E05E
:10083000FFF754FF05F0200010B9FFF73DFF01E07E
:10084000FFF74CFF05F0100010B9FFF735FF01E08E
:10085000FFF744FF05F0080010B9FFF72DFF01E096
:10086000FFF73CFF05F0040010B9FFF725FF01E09A
:10087000FFF734FF05F0020010B9FFF71DFF01E09C
:10088000FFF72CFF05F0010010B9FFF715FF01E09D
:10089000FFF724FF70BD10B500F002F810BD000096
:1008A0000CB50020019000903348006840F480307F
:1008B0003149086000BF3048006800F40030009003
:1008C0000198401C0190009818B90198B0F5A06FEC
:1008D000F1D12948006800F4003010B101200090E7
:1008E00001E0002000900098012843D123480068CF
:1008F00040F01000214908600846006820F0070019
:1009000008600846006840F0020008601A48406825
:10091000194948600846406848600846406840F405
:10092000806048600846406820F47C1048600846B3
:10093000406840F4E81048600846006840F0807065
:10094000086000BF0C48006800F000700028F9D073
:100950000948406820F0030007494860084640689D
:1009600040F00200486000BF0348406800F00C00FF
:100970000828F9D10CBD0000001002400020024000
:100980007047000010B51348006840F0010011499D
:10099000086008464068104908400E49486008460B
:1009A00000680E4908400B4908600846006820F4BA
:1009B000802008600846406820F4FE0048604FF43C
:1009C0001F008860FFF767FF4FF000600449086070
:1009D00010BD0000001002400000FFF8FFFFF6FE0F
:1009E00008ED00E021B1828942F40052828104E0E6
:1009F00082894DF6FF731A408281704700B585B039
:100A000001210420FFF7DCFD01218803FFF7D8FD59
:100A10004FF40070ADF8100018208DF8130003207B
:100A20008DF8120004A91348FFF756FC4FF48060BC
:100A3000ADF8100004208DF8130004A90D48FFF74D
:100A40004BFC4FF4E13000900020ADF80400ADF80D
:100A50000600ADF80800ADF80C000C20ADF80A0057
:100A60006946054800F018F801210348FFF7BAFF6E
:100A700005B000BD000801400038014002460020DA
:100A8000B1F5007F00D100BF13880B400BB10120EE
:100A900000E00020704700002DE9F04786B00546D1
:100AA0000E460024A24600BFA1460027B08900B12F
:100AB00000BF2F462C8A4CF6FF700440F088044398
:100AC0002C82AC894EF6F3100440B088318908437B
:100AD000718908430443AC81AC8A4FF6FF4004405F
:100AE000B0890443AC8201A8FFF77AFD1F48874212
:100AF00002D1DDF810A001E0DDF80CA0A88900F417
:100B0000004040B10AEBCA0000EB0A10316849000E
:100B1000B0FBF1F807E00AEBCA0000EB0A103168FD
:100B20008900B0FBF1F86420B8FBF0F00401200963
:100B3000642101FB1089A88900F4004040B13220F3
:100B400000EBC900B0FBF1F000F00700044308E03F
:100B5000322000EB09106421B0FBF1F000F00F002F
:100B600004432C8106B0BDE8F08700000038014046
:100B7000C1F308028280704700BFFEE708B501217B
:100B80000820FFF71DFD01208DF8020010208DF8D0
:100B900003004001ADF8000069460548FFF79CFBE3
:100BA00000F0D4F84FF4007001491431086008BD1A
:100BB000000C0140014A024900F013B8450C00083E
:100BC0001400002002E008C8121F08C1002AFAD150
:100BD00070477047002001E001C1121F002AFBD1BD
:100BE00070472DE9F04116460F460446002503E004
:100BF0003946B047641C6D1C20780028F8D128467F
:100C0000BDE8F081032000E000BF011EA0F1010259
:100C1000D0B2F9D17047022000E000BF011EA0F160
:100C20000102D0B2F9D17047002106E0052100BFD2
:100C30000A1EA1F10103D9B2FAD1021EA0F10100EE
:100C4000F4D1704770B504460D46E1B20548FFF790
:100C50008FFF00BF80210348FFF710FF0028F9D065
:100C6000204670BD003801400024FFF72BFCFFF741
:100C700085FFFFF7C3FEFFF7DDFB25A0FFF79AFF17
:100C800027A0FFF797FF2AA0FFF794FF3EE04FF45D
:100C900000512D48FFF7BAFB002837D1601CC4B2C1
:100CA000062C00DD0124072C29D2DFE804F02804FB
:100CB0000A10161C2200002211463F20FFF726FDD5
:100CC00023E000223F211046FFF720FD1DE03F22D8
:100CD00000210846FFF71AFD17E000223F210846D1
:100CE000FFF714FD11E03F2200211046FFF70EFD33
:100CF0000BE03F2211460020FFF708FD05E000222F
:100D000011461046FFF702FD00BF00BFBFE700001D
:100D10000A4B313ABFD8D6C65753323831320A005F
:100D20000A4B323ABFD8D6C64D4F544F520A000034
:100D30000A4B333ABFD8D6C6B4AEBFDAB7A2CBCDD2
:100D4000CAFDBEDD0A0000000010014010B50022FF
:100D500011461046FFF7DAFC002211461046FFF755
:100D6000D5FC002211461046FFF7D0FC00221146A8
:100D70001046FFF7CBFC6420FFF756FF10BD0000C4
:100D8000A00D00080000002018000000C40B00089F
:100D9000B80D00081800002000040000D40B000863
:100DA0000000000001020304010203040607080911
:080DB000020406080000000027
:04000005080000ED02
:00000001FF
