:020000040800F2
:100000004804002005010008A50500086705000850
:10001000A105000879010008AB0E000800000000EF
:100020000000000000000000000000009D06000825
:100030003504000800000000A7050008450B000873
:100040001F0100081F0100081F0100081F01000810
:100050001F0100081F0100081F0100081F01000800
:100060001F0100081F0100081F0100081F010008F0
:100070001F0100081F0100081F0100081F010008E0
:100080001F0100081F0100081F0100081F010008D0
:100090001F0100081F0100081F0100081F010008C0
:1000A0001F0100081F0100081F0100081F010008B0
:1000B0001F0100081F0100081F0100081F010008A0
:1000C0001F0100081F0100081F0100081F01000890
:1000D0001F010008950C00081F0100081F010008FF
:1000E0001F0100081F0100081F010008DFF810D0E1
:1000F00000F030F800480047B5120008AFF3008068
:10010000480400200648804706480047FEE7FEE70F
:10011000FEE7FEE7FEE7FEE7FEE7FEE7FEE7FEE7B7
:100120001D0C0008ED00000830B50B46014600200C
:100130002022012409E021FA02F59D4205D303FAA9
:1001400002F5491B04FA02F52844151EA2F101022A
:10015000F1DC30BD064C074D06E0E06840F00103DD
:1001600094E8070098471034AC42F6D3FFF7C2FF7B
:10017000781400089814000800BFFEE707480068DC
:1001800040F0807005490860002005494860084635
:10019000006840F00100086070470000FCED00E0DE
:1001A000001000E00148406870470000001000E0C7
:1001B00070B50446002310480068104EB0FBF6F0FE
:1001C00000FB04F500BFFFF7EDFF024611E0FFF76B
:1001D000E9FF014691420CD0914202D9881A0344AA
:1001E00003E0C2F1FF30084403440A46AB4200D3A7
:1001F00000E0ECE700BF70BD0000002040420F00AF
:1002000008B50121042000F0CFF94FF48050ADF87B
:10021000000014208DF8030003208DF802006946C9
:10022000014800F008F908BD0008014010B5FFF7CB
:10023000E7FF4FF48051034800F093F902A000F06B
:10024000F9FE10BD000801403C3C2D4448543131BA
:100250002D494E464F2D3E3E2044485431312049D1
:100260006E697420535543434553530A0000000000
:1002700070B50025002444E04FF480502349086005
:100280000AE022490868411E204A116020B9002076
:1002900000F0B0F8C0B270BD4FF480511C4800F0BF
:1002A00055F90028EDD02820FFF782FF4FF4805148
:1002B000174800F04BF901281CD1000313490860CE
:1002C0000AE012490868411E104A116020B9012055
:1002D00000F090F8C0B2DEE74FF480510C4800F017
:1002E00035F90128EDD0C4F1070101208840C0B2E2
:1002F000054304E0C4F10701012088408543601CE8
:10030000C4B2082CB8DB2846C5E700003400002042
:100310000008014010B504464FF48051334800F006
:100320001EF944F62060FFF743FF4FF480512F4839
:1003300000F017F91E20FFF73BFF4FF480512B48C8
:1003400000F004F900284FD14FF48050284908608C
:100350000AE027490868411E254A116020B9022099
:1003600000F048F8C0B210BD4FF480511F4800F0B3
:10037000EDF80028EDD04FF480501D4908600AE0E8
:100380001B490868411E1A4A116020B9032000F079
:1003900031F8C0B2E7E74FF48051144800F0D6F8C6
:1003A0000128EDD0FFF764FF2070FFF761FF607058
:1003B000FFF75EFFA070FFF75BFFE070FFF758FFED
:1003C00020714FF48051094800F0CBF82078617813
:1003D0000844A1780844E17808442179884201D191
:1003E0000120C0E70020BEE70020BCE70008014074
:1003F0003400002010B50446214602A000F01AFE89
:10040000002010BD3C3C2D44485431312D45525202
:100410004F522D3E3E204448543131B5C8B4FDB34F
:10042000ACCAB1216572726F72436F6465203D2062
:1004300025640A0070472DE9F04102460025002698
:10044000002000230024002791F803C00CF00F05C2
:1004500091F803C00CF0100CBCF1000F03D091F820
:1004600002C04CEA050591F800C0BCF1000F31D084
:10047000146800202BE04FF0010C0CFA00F3B1F8E7
:1004800000C00CEA03069E4220D183004FF00F0CFF
:100490000CFA03F7BC4305FA03FC4CEA040491F898
:1004A00003C0BCF1280F06D14FF0010C0CFA00FC80
:1004B000C2F814C00AE091F803C0BCF1480F05D19E
:1004C0004FF0010C0CFA00FCC2F810C0401C0828C8
:1004D000D1D31460B1F800C0BCF1FF0F34DD546813
:1004E00000202EE000F1080C4FF0010808FA0CF390
:1004F000B1F800C00CEA03069E4221D183004FF000
:100500000F0C0CFA03F7BC4305FA03FC4CEA040495
:1005100091F803C0BCF1280F05D100F1080C08FACE
:100520000CF8C2F8148091F803C0BCF1480F07D151
:1005300000F1080C4FF0010808FA0CF8C2F810801E
:10054000401C0828CED35460BDE8F081024600204C
:1005500093680B400BB1012000E00020704741611F
:1005600070470161704700BFFEE7000008B5012138
:10057000082000F019F801208DF8020010208DF8F5
:1005800003000001ADF8000069460448FFF753FF7F
:100590004FF4807001491431086008BD000C01401F
:1005A00000BFFEE77047704729B1064A92690243CF
:1005B000044B9A6104E0034A92698243014B9A61B9
:1005C000704700000010024030B5002100220024D6
:1005D00000232D4D6D6805F00C0121B1042905D0D3
:1005E000082923D105E0294D056022E0274D05604B
:1005F0001FE0254D6D6805F47012234D6D6805F4FC
:100600008034022505EB92421CB9214D554305600B
:100610000BE01D4D6D6805F400351DB11C4D5543B3
:10062000056002E0194D5543056002E0174D056075
:1006300000BF00BF144D6D6805F0F0010909154DAC
:100640006B5C0568DD4045600F4D6D6805F4E06149
:10065000090A104D6B5C4568DD4085600A4D6D6888
:1006600005F46051C90A0B4D6B5C4568DD40C560FF
:10067000054D6D6805F44041890B074D6B5CC568FD
:10068000B5FBF3F5056130BD0010024000127A00A1
:1006900000093D00140000202400002070470000E5
:1006A00010B54FF400710648FFF75BFF00BF4FF431
:1006B00000710348FFF753FF00F0B8FD10BD0000C4
:1006C000000C014010B54FF400710948FFF749FFD5
:1006D00000F0B5FD4FF400710548FFF740FF00BF83
:1006E00000BF00BF00BF00BF00BF00BF00BF10BD04
:1006F000000C014070B504460E46154606F0800019
:1007000010B9FFF7CDFF01E0FFF7DCFF06F0400076
:1007100010B9FFF7C5FF01E0FFF7D4FF06F0200096
:1007200010B9FFF7BDFF01E0FFF7CCFF06F01000A6
:1007300010B9FFF7B5FF01E0FFF7C4FF06F00800AE
:1007400010B9FFF7ADFF01E0FFF7BCFF06F00400B2
:1007500010B9FFF7A5FF01E0FFF7B4FF06F00200B4
:1007600010B9FFF79DFF01E0FFF7ACFF06F00100B5
:1007700010B9FFF795FF01E0FFF7A4FF04F0800038
:1007800010B9FFF78DFF01E0FFF79CFF04F0400078
:1007900010B9FFF785FF01E0FFF794FF04F0200098
:1007A00010B9FFF77DFF01E0FFF78CFF04F01000A8
:1007B00010B9FFF775FF01E0FFF784FF04F00800B0
:1007C00010B9FFF76DFF01E0FFF77CFF04F00400B4
:1007D00010B9FFF765FF01E0FFF774FF04F00200B6
:1007E00010B9FFF75DFF01E0FFF76CFF04F00100B7
:1007F00010B9FFF755FF01E0FFF764FF05F0800037
:1008000010B9FFF74DFF01E0FFF75CFF05F0400076
:1008100010B9FFF745FF01E0FFF754FF05F0200096
:1008200010B9FFF73DFF01E0FFF74CFF05F01000A6
:1008300010B9FFF735FF01E0FFF744FF05F00800AE
:1008400010B9FFF72DFF01E0FFF73CFF05F00400B2
:1008500010B9FFF725FF01E0FFF734FF05F00200B4
:1008600010B9FFF71DFF01E0FFF72CFF05F00100B5
:1008700010B9FFF715FF01E0FFF724FF70BD10B5B9
:1008800000F002F810BD00000CB5002001900090AF
:100890003348006840F480303149086000BF304878
:1008A000006800F4003000900198401C019000980E
:1008B00018B90198B0F5A06FF1D12948006800F48B
:1008C000003010B10120009001E00020009000985D
:1008D000012843D12348006840F0100021490860F6
:1008E0000846006820F0070008600846006840F0ED
:1008F000020008601A484068194948600846406884
:1009000048600846406840F4806048600846406897
:1009100020F47C1048600846406840F4E8104860C5
:100920000846006840F08070086000BF0C4800680E
:1009300000F000700028F9D00948406820F003005A
:10094000074948600846406840F00200486000BF20
:100950000348406800F00C000828F9D10CBD0000E5
:10096000001002400020024010B513A000F062FB0E
:100970004FF4E13113A000F05DFB17A000F05AFB2B
:100980001CA000F057FB22A000F054FB27A000F0B1
:1009900051FB2DA000F04EFB32A000F04BFB38A025
:1009A00000F048FB3DA000F045FB43A000F042FBF7
:1009B00048A000F03FFB10BD0A504C5A2073656EF2
:1009C000643A0A0020205553415254A3BA256420AA
:1009D000382D4E2D31200A00202020434D44202068
:1009E000202D2D2D2D2D2D2020202052474220203E
:1009F000200A00002020202031202020202D2D2D15
:100A00002D2D2D202020205245442020200A00009A
:100A10002020202032202020202D2D2D2D2D2D2076
:100A20002020475245454E20200A0000202020204B
:100A300033202020202D2D2D2D2D2D202020204233
:100A40004C554520200A0000202020203420202062
:100A5000202D2D2D2D2D2D20202059454C4C4F572C
:100A6000200A00002020202035202020202D2D2DA0
:100A70002D2D2D202020505552504C45200A00008D
:100A80002020202036202020202D2D2D2D2D2D2002
:100A90002020204359414E20200A00002020202001
:100AA00037202020202D2D2D2D2D2D202020574882
:100AB00049544520200A00002020202038202020F2
:100AC000202D2D2D2D2D2D2020205247424F4E2000
:100AD000200A00002020202039202020202D2D2D2C
:100AE0002D2D2D2020205247424F4646200A0D0032
:100AF00030B50146B1F1807F01D3012030BD21F036
:100B00007F40401E4FF0E022506150170F22002816
:100B100007DA13071D0E094B00F00F04241F1D55A3
:100B200003E013071C0E064B1C5400BF00204FF0BF
:100B3000E0229061072010610020DFE718ED00E05F
:100B400000E400E008B500F099F818480078401C6F
:100B50001649087008460078C82825D14FF0E020D3
:100B6000006920F001004FF0E021086100200F49EA
:100B700008700F48FFF7CEFB01280AD10C48C07857
:100B800000900B488378427801780A4800F052FAC6
:100B900002E009A000F04EFA4FF0E020006940F0BA
:100BA00001004FF0E021086108BD00002D00002089
:100BB00028000020301400083C3C2D4448543131BA
:100BC0002D494E464F2D3E3E2052656164204448DB
:100BD000543131204552524F52210D0A0A00000073
:100BE00010B507480068C821B0FBF1F42046FFF7B4
:100BF0007FFF20B103A000F01DFA00BFFEE710BD8B
:100C0000000000205379735469636B5F436F6E6615
:100C100069675F4552524F520000000010B51348FB
:100C2000006840F00100114908600846406810491A
:100C300008400E494860084600680E4908400B49C4
:100C400008600846006820F4802008600846406874
:100C500020F4FE0048604FF41F008860FFF70FFE8D
:100C60004FF000600449086010BD00000010024011
:100C70000000FFF8FFFFF6FE08ED00E00448006802
:100C800020B103480068401E014908607047000019
:100C90003800002010B540F22551064800F065F8F4
:100CA00038B1044800F0F8F8C4B22146014800F019
:100CB000F8F810BD0038014021B1828942F4005299
:100CC000828104E082894DF6FF731A408281704769
:100CD00000B585B001210420FFF766FC01218803DF
:100CE000FFF762FC4FF40070ADF8100018208DF88B
:100CF000130003208DF8120004A91348FFF79BFB93
:100D00004FF48060ADF8100004208DF8130004A9A2
:100D10000D48FFF790FB4FF4E13000900020ADF854
:100D20000400ADF80600ADF80800ADF80C000C208A
:100D3000ADF80A006946054800F042F80121034871
:100D4000FFF7BAFF05B000BD0008014000380140C0
:100D500002460020B1F5007F00D100BF13880B4090
:100D60000BB1012000E00020704770B5024600245E
:100D700000230025002040F66A16B14200D100BFD2
:100D8000C1F3421501F01F03012606FA03F3012DFA
:100D900002D19689334006E0022D02D1168A3340F3
:100DA00001E0968A33400C12012606FA04F41688F4
:100DB000344013B10CB1012000E0002070BD0000F0
:100DC0002DE9F04786B005460E460024A24600BF36
:100DD000A1460027B08900B100BF2F462C8A4CF6EF
:100DE000FF700440F08804432C82AC894EF6F31067
:100DF0000440B08831890843718908430443AC81B9
:100E0000AC8A4FF6FF400440B0890443AC8201A88D
:100E1000FFF7DAFB1F48874202D1DDF810A001E09E
:100E2000DDF80CA0A88900F4004040B10AEBCA002C
:100E300000EB0A1031684900B0FBF1F807E00AEB5B
:100E4000CA0000EB0A1031688900B0FBF1F8642099
:100E5000B8FBF0F004012009642101FB1089A88986
:100E600000F4004040B1322000EBC900B0FBF1F0CB
:100E700000F00700044308E0322000EB0910642171
:100E8000B0FBF1F000F00F0004432C8106B0BDE888
:100E9000F08700000038014001468888C0F3080050
:100EA0007047C1F308028280704700BFFEE7000070
:100EB00070B505460C464E48048010E04C4B1A783D
:100EC0004C4B19784C4B1878FFF714FC284600F06F
:100ED000BFF948480088401C00B246490880454890
:100EE000B0F90000A042E9DD4248048010E0404B28
:100EF0001A78404B1978404B1878FFF7FBFB2846CF
:100F000000F0A6F93A480088401E00B2384908802F
:100F10003748B0F900000028E9DA00203449088099
:100F200010E0334B1A78334B1978334B1878FFF7AE
:100F3000E1FB284600F08CF92F480088401C00B2E5
:100F40002D4908802C48B0F90000A042E9DD2A486C
:100F5000048010E0264B1A78264B1978264B187817
:100F6000FFF7C8FB284600F073F922480088401EAE
:100F700000B2204908801F48B0F900000028E9DAD3
:100F800000201C49088010E0194B1A78194B197879
:100F9000194B1878FFF7AEFB284600F059F91448B2
:100FA0000088401C00B2124908801148B0F90000C6
:100FB000A042E9DD0E48048010E00D4B1A780D4B7D
:100FC00019780D4B1878FFF795FB284600F040F98B
:100FD00009480088401E00B2074908800648B0F959
:100FE00000000028E9DA00200349088070BD0000F5
:100FF00032000020300000202E00002008B5012122
:101000000820FFF7D1FA01208DF8020010208DF89A
:1010100003004001ADF8000069460548FFF70BFAF0
:1010200000F0ECF94FF4007001491431086008BD7C
:10103000000C01400FB4054B10B503A9044A0298F7
:1010400000F018F810BC5DF814FB00008D120008C9
:101050004000002002E008C8121F08C1002AFAD18F
:1010600070477047002001E001C1121F002AFBD128
:10107000704700002DE9FF4F8BB09A460F4605469A
:10108000002606E025280BD052460D9990476D1C8E
:10109000761C28780028F5D10FB03046BDE8F08FD7
:1010A0000024A0460122604900E0044315F8013FF6
:1010B000203B02FA03F00842F7D128782E2817D1F6
:1010C00015F8010F44F004042A280ED06FF02F0207
:1010D0002878A0F1300109290AD808EB880102EB31
:1010E000410100EB01086D1CF2E757F8048B6D1C01
:1010F000287869283ED006DC0028CDD063280BD0A4
:10110000642804D136E0732810D075284BD052469D
:101110000D999047761C85E017F8040B8DF80000B8
:1011200000208DF80100E946012003E057F8049BF8
:101130004FF0FF3061074FF0000401D40AE0641C57
:1011400044450DDA8442FADB19F804100029F6D17F
:1011500006E0641C8442FCDB19F804100029F8D175
:10116000264404E019F8010B52460D999047641E7D
:10117000F8D257E001CF4FF00A0B002802DA4042C4
:101180002D2102E0210504D52B218DF82410012109
:1011900003E0E10705D02021F7E70DF120090891D0
:1011A0000CE00021F9E701CF4FF00A0BF9E75946AF
:1011B000FEF7BAFF01F1300209F8012D0028F6D13F
:1011C000ADEB090000F1200B600701D44FF00108DE
:1011D000D84502DDA8EB0B0000E00020804600248B
:1011E00006E009A85246005D0D999047641C761CE4
:1011F00008988442F5DB04E0302052460D99904770
:10120000761CB8F10001A8F10108F5DC05E019F839
:10121000010B52460D999047761CBBF10001ABF1D2
:10122000010BF4DC6D1C34E709280100032000E009
:1012300000BF011EA0F10102D0B2F9D17047022017
:1012400000E000BF011EA0F10102D0B2F9D1704749
:10125000002106E0052100BF0A1EA1F10103D9B259
:10126000FAD1021EA0F10100F4D1704710B5044676
:1012700000BF20210448FFF76BFD0028F9D0024889
:10128000FFF70AFE10BD00000038014070B50446AB
:101290000D46E1B20548FFF704FE00BF8021034878
:1012A000FFF756FD0028F9D0204670BD00380140F8
:1012B000FFF7DCBF0024FFF759F9FFF709FDFFF73F
:1012C0009DFEFEF75BFFFEF7B1FF35A0FFF7B2FE14
:1012D00039A0FFF7AFFE4048FEF76AFF4FF4807178
:1012E0003E48FFF73EF93C48FEF762FF4FF480713D
:1012F0003A48FFF734F9FFF737FB3948FEF758FF54
:10130000FFF76EFC4BE03748FFF7D2FFC4B221462F
:1013100035A0FFF78FFEA4F1310009283BD2DFE8AA
:1013200000F0050B11171D23292F34000022114650
:101330003F20FFF7DFF931E000223F211046FFF7A1
:10134000D9F92BE03F2200210846FFF7D3F925E029
:1013500000223F210846FFF7CDF91FE03F22002180
:101360001046FFF7C7F919E03F2211460020FFF7AA
:10137000C1F913E03F2211461046FFF7BBF90DE01B
:101380000F211D48FFF794FD08E00022114610468A
:10139000FFF7B0F902E0FFF7E7FA00BF00BFB2E7DE
:1013A0000ACED2CAC74B656C65652EC4E3BAC35377
:1013B000544D3332210A00000A4865726520697372
:1013C000204B656C65652E48656C6C6F2053544DE1
:1013D0003332210A00000000E0930400000C0140B9
:1013E00080841E003C0000200A52656365697665B2
:1013F000A3BA25630A000000A086010010B50022F0
:1014000011461046FFF776F9002211461046FFF705
:1014100071F9002211461046FFF76CF900221146BF
:101420001046FFF767F96420FFF712FF10BD0000B8
:101430003C3C2D44485431312D494E464F2D3E3EC3
:1014400020B6C1C8A14448543131B3C9B9A621203E
:101450002D2D2D2DCAAAB6C83A25642E2564A3A524
:10146000524820CEC2B6C83A25642E2564A1E62D86
:101470002D2D2D200A0000009814000800000020E7
:101480004400000054100008DC1400084400002050
:10149000040400006410000800A24A0400000000D8
:1014A0000000000001020304060708090000000014
:1014B00001020304010203040607080902040608E6
:1014C00000000000000000000000FF0000A000007D
:0C14D00000000000000000000000000010
:04000005080000ED02
:00000001FF
