:020000040800F2
:1000000020040020050100086112000827090008EB
:100010005D120008C9060008DF1600080000000095
:10002000000000000000000000000000791300083C
:10003000CD060008000000006312000865140008E7
:100040001F0100081F0100081F0100081F01000810
:100050001F0100081F0100081F0100081F01000800
:100060001F0100081F0100081F0100081F010008F0
:100070001F0100081F0100081F0100081F010008E0
:100080001F0100081F0100081F0100081F010008D0
:100090001F0100081F0100081F0100081F010008C0
:1000A0001F0100081F0100081F0100081F010008B0
:1000B0001F0100081F0100081F0100081F010008A0
:1000C0001F0100081F0100081F0100081F01000890
:1000D0001F010008C91400081F0100081F010008C3
:1000E0001F0100081F0100081F010008DFF810D0E1
:1000F00000F0C8FA00480047F51F0008AFF3008081
:10010000200400200648804706480047FEE7FEE737
:10011000FEE7FEE7FEE7FEE7FEE7FEE7FEE7FEE7B7
:1001200069140008ED00000840EA01039B0703D0B2
:1001300009E008C9121F08C0042AFAD203E011F826
:10014000013B00F8013B521EF9D27047D2B201E0E8
:1001500000F8012B491EFBD270470022F6E710B5CC
:1001600013460A4604461946FFF7F0FF204610BD25
:100170002DE9FE4F804681EA0300C00F0C46009037
:1001800021F0004123F00045B8EB0200A94105D25F
:100190004046214690461C460B46024623F000404E
:1001A000104347D0270DC7F30A00C3F30A5102904A
:1001B000401A019040286BDAC3F3130040F4801B0F
:1001C0000098924620B10023D2EB030A63EB0B0B9D
:1001D00001985946C0F14002504600F0C4F8064666
:1001E0000D4650465946019A00F0CCF810EB080035
:1001F0006141002487EA115284EAE7731A4340D030
:10020000009A62B3019A012A4FEA075215DC001BDB
:1002100061EB02014FF0004202EA0752CDE90042D1
:10022000001C41F5801132462B4600F0CCF803B09B
:10023000BDE8F08F40462146F9E7001B61EB020163
:10024000001C41F5801300185B412018A2F500172F
:1002500047EB030140EAD570B6196D4111E06D0816
:100260004FEA360645EAC0754FEA0752001B61EBBC
:100270000201001C41F5801149084FEA30000019C5
:10028000514132462B4603B0BDE8F04F00F08CB828
:100290000098012240000023D0EB020263EBE073E0
:1002A000009821464FEAE074B8EB000061EB0401CE
:1002B000E9E783F000435BE781F0004158E70EB5C2
:1002C00040F2334102910021CDE900110A460B466C
:1002D00000F079F803B000BD30B50B4601460020B0
:1002E0002022012409E021FA02F59D4205D303FAF8
:1002F00002F5491B04FA02F52844151EA2F1010279
:10030000F1DC30BD2DE9F05F0546002092469B46AA
:1003100088460646814640241BE02846414647461B
:10032000224600F0C1F953465A46C01A914110D3F3
:1003300011461846224600F016F82D1A67EB010800
:100340004F4622460120002100F00DF817EB00096E
:100350004E41201EA4F10104DFDC484631462A4606
:100360004346BDE8F09F202A04DB203A00FA02F160
:10037000002070479140C2F1200320FA03F3194393
:1003800090407047202A06DBCB17203A41FA02F052
:1003900043EAE07306E041FA02F3D040C2F12002E2
:1003A000914008431946704710B5141E73F10004BC
:1003B00008DA401C41F1000192185B411A4301D157
:1003C00020F0010010BD2DE9F04D92469B4611B181
:1003D000B1FA81F202E0B0FA80F220329046FFF7E3
:1003E000C2FF04460F4640EA0A0041EA0B015346A9
:1003F0005A46084313D0114653EA010019D0C8F1F8
:100400004002504600F050F905460E465046594607
:100410004246FFF7A8FF084305D0012004E020462C
:100420003946BDE8F08D0020054346EAE0762C43CE
:1004300037430A986305E40AA0EB08000022FD0A8E
:1004400044EA47540A3002D500200146E9E7010595
:1004500010196941DDE9084500196941BDE8F04D11
:10046000A2E72DE9FE4F81EA030404F0004421F0E5
:10047000004100944FF0000B23F0004350EA0104C8
:100480005ED052EA03045BD0C3F30A54C1F30A55A9
:100490002C44A4F2F3340194A0FB0254C1F31301E1
:1004A00041F48011C3F3130343F4801301FB0244AE
:1004B00000FB034E840A970A44EA815447EA8357B3
:1004C000A4FB076802958D0A05FB07854FEA932C6C
:1004D00004FB0C542705029D4FEA065847EA1637DD
:1004E000B5EB08056EEB070C870E920E47EA8117F5
:1004F00042EA8312A7FB0201B6EB0B0164EB000496
:100500002B0D43EA0C335E1844EB1C50DA4651467F
:10051000E7FB0201C5F313044FEA0B3343EA14531C
:100520004FEA0432019C43EA0603A4F10C0402944E
:10053000009CCDE900B4FFF746FF03B0BDE8F08FA3
:1005400000200146F9E72DE9F04D81EA030404F0AB
:10055000004B21F0004514464FF0000A23F0004103
:1005600050EA050220D054EA01021DD0C5F30A5713
:100570000246C5F31303C1F31300C1F30A5640F456
:10058000801543F48013A7EB0608101BD64608F22B
:10059000FD3873EB050002D308F1010801E0921861
:1005A0005B41B8F1000F03DA00200146BDE8F08D91
:1005B00000204FF48011064684460EE0171B73EBB3
:1005C000050705D3121B63EB050306434CEA010C38
:1005D00049084FEA300092185B4150EA0107EDD11B
:1005E00052EA030012D082EA040083EA05010843BC
:1005F00005D0101BAB4106D20122002306E00022E9
:100600004FF0004302E06FF0010253101AEB0600B6
:100610004CEB085110EB0A0041EB0B01BDE8F04D2B
:10062000FFF7C2BEC1F30A52C1F3130140F2FF3318
:1006300041F480119A4202DA00200146704740F2EC
:1006400033439A42A2F2334202DC524200F02CB809
:10065000FFF789BE30B5041E71F1000404DB4FF0D2
:100660000044404264EB0101141E73F1000405DBF9
:100670001C464FF00043524263EB0403994208BF0B
:10068000904230BD064C074D06E0E06840F00103A3
:1006900094E8070098471034AC42F6D3FFF72AFDE0
:1006A0000023000820230008202A04DB203A21FA36
:1006B00002F00021704721FA02F3D040C2F120027B
:1006C000914008431946704700BFFEE7704700009D
:1006D00010B54FF480501F49086009E01D490868B3
:1006E000411E1C4A116018B9192000F07DFD10BD93
:1006F0004FF40031184800F0DDFC0028EED100BFB7
:100700000121154800F0BEFC4FF4805011490860EB
:1007100009E010490868411E0E4A116018B91A20F4
:1007200000F062FDE3E70D490B4800F0C3FC002830
:10073000EFD0A021084800F055FD0849491C0648A3
:1007400000F0B8FC0028DBD00121034800F0A6FC33
:100750000120CCE7140000200058004001000010E8
:1007600000B585B00121880500F07CFD012108203D
:1007700000F088FD01208DF8120010208DF8130084
:100780000220ADF8100004A91C4800F03DF8032039
:100790008DF812001C208DF813004FF48060ADF826
:1007A000100004A9154800F02FF84FF40060ADF8D0
:1007B000100004A9114800F027F80020ADF804004B
:1007C0004BF6FF70ADF806000A20ADF808004FF4B4
:1007D0008060ADF80A000001ADF80C0008480090F8
:1007E0006946084800F084FC0121064800F0BEF884
:1007F0000221024800F093F805B000BD000C014052
:10080000801A0600005800402DE9F04102460025FC
:100810000026002000230024002791F803C00CF0DC
:100820000F0591F803C00CF0100CBCF1000F03D0C1
:1008300091F802C04CEA050591F800C0BCF1000F28
:1008400031D0146800202BE04FF0010C0CFA00F3BB
:10085000B1F800C00CEA03069E4220D183004FF09D
:100860000F0C0CFA03F7BC4305FA03FC4CEA040432
:1008700091F803C0BCF1280F06D14FF0010C0CFA1F
:1008800000FCC2F814C00AE091F803C0BCF1480FA4
:1008900005D14FF0010C0CFA00FCC2F810C0401C4E
:1008A0000828D1D31460B1F800C0BCF1FF0F34DDCB
:1008B000546800202EE000F1080C4FF0010808FAFF
:1008C0000CF3B1F800C00CEA03069E4221D183006C
:1008D0004FF00F0C0CFA03F7BC4305FA03FC4CEA8B
:1008E000040491F803C0BCF1280F05D100F1080CF5
:1008F00008FA0CF8C2F8148091F803C0BCF1480F54
:1009000007D100F1080C4FF0010808FA0CF8C2F802
:100910001080401C0828CED35460BDE8F0814161AE
:1009200070470161704700BFFEE721B1028842F4C1
:100930008062028004E002884FF6FF331A40028092
:10094000704770B502460024002500230020958AD8
:10095000138B1B0445EA030626F07F4404EA0106D4
:100960008E4201D1012000E0002070BD21B102883B
:1009700042F00102028004E002884FF6FE731A4042
:100980000280704770B504460E4615464FF48050FD
:100990006549086009E064490868411E624A1160BF
:1009A00018B9122000F020FC70BD4FF400315F48F0
:1009B00000F080FB0028EED101215C4800F062FBD2
:1009C0004FF480505849086009E057490868411EB3
:1009D000554A116018B9132000F006FCE4E75449A9
:1009E0005248FFF7AEFF0028EFD0A02040EAE41005
:1009F00000F0A6014D4800F0F5FB4FF480504A4945
:100A0000086009E048490868411E474A116018B962
:100A1000142000F0E9FBC7E746494448FFF791FF7F
:100A20000028EFD0E1B2414800F0DCFB4FF48050E9
:100A30003D49086009E03C490868411E3A4A116096
:100A400018B9152000F0D0FBAEE73A49891C3748A9
:100A5000FFF777FF0028EED00121344800F012FBA9
:100A60004FF480503049086009E02F490868411E62
:100A70002D4A116018B9162000F0B6FB94E72C49F6
:100A80002A48FFF75EFF0028EFD0A02040EAE410DC
:100A900000F0A600411C254800F0A4FB4FF4805054
:100AA0002149086009E020490868411E1E4A11607A
:100AB00018B9172000F098FB76E71D49491C1B4820
:100AC000FFF73FFF0028EED026E0012D07D10021DF
:100AD0001648FFF72AFF0121144800F0DFFA4FF40F
:100AE00080501149086009E00F490868411E0E4A0C
:100AF000116018B9182000F077FB55E70C493F3119
:100B00000A48FFF71EFF0028EED0084800F066FBF9
:100B10003070761C681E85B2002DD6D101210348A5
:100B2000FFF703FF01203FE71400002000580040BA
:100B300001000300820007002DE9F04705460F463B
:100B400014464FF00008C146C24600262846E91761
:100B500005EB11710911A5EB011101F0FF0ACAF1B2
:100B60001000C6B22046E11704EB1171C1F307185B
:100B7000E11704EB11710911A4EB011101F0FF0958
:100B8000BAF1000F28D1B8F1000F07D14A46394613
:100B9000284600F0CBF9FFF79BFD60E00AE0102249
:100BA0003946284600F0C2F9FFF792FD05F1100022
:100BB00085B21037B8F10000A8F1010101F0FF087B
:100BC000EDD1B9F1000F4AD04A463946284600F027
:100BD000ADF9FFF77DFD42E0B8F1000F07D14A46BD
:100BE0003946284600F0A2F9FFF772FD37E0A01B56
:100BF00084B22046E11704EB1171C1F30718E11725
:100C000004EB11710911A4EB011101F0FF094EB1C0
:100C100032463946284600F089F9FFF759FDA819F0
:100C200085B237440AE010223946284600F07EF9A2
:100C3000FFF74EFD05F1100085B21037B8F1000046
:100C4000A8F1010101F0FF08EDD1B9F1000F06D0C4
:100C50004A463946284600F069F9FFF739FDBDE8F4
:100C6000F087000070B5044600254FF480506249BB
:100C7000086009E060490868411E5F4A116018B9C0
:100C8000002000F0B1FA70BD4FF400315B4800F075
:100C900011FA0028EED10121584800F0F3F94FF481
:100CA00080505549086009E053490868411E524A7E
:100CB000116018B9012000F097FAE4E750494F4855
:100CC000FFF73FFE0028EFD0A02040EAE41000F03C
:100CD000A6014A4800F086FA4FF480504649086061
:100CE00009E045490868411E434A116018B90220CD
:100CF00000F07AFAC7E743494048FFF722FE002890
:100D0000EFD0E1B23D4800F06DFA4FF480503A491F
:100D1000086009E038490868411E374A116018B96F
:100D2000032000F061FAAEE73649891C3348FFF72B
:100D300008FE0028EED00121304800F0A3F94FF45E
:100D400080502D49086009E02B490868411E2A4A55
:100D5000116018B9042000F047FA94E728492748A1
:100D6000FFF7EFFD0028EFD0A02040EAE41000F0EC
:100D7000A600411C214800F035FA4FF480501E496E
:100D8000086009E01C490868411E1B4A116018B937
:100D9000052000F029FA76E71949491C1748FFF7A2
:100DA000D0FD0028EED000211448FFF7BEFD4FF41F
:100DB00080501149086009E00F490868411E0E4A39
:100DC000116018B9062000F00FFA5CE70C493F31BA
:100DD0000A48FFF7B6FD0028EED0084800F0FEF9FB
:100DE00005460121054800F059F901210348FFF7A4
:100DF0009CFD284647E700001400002000580040F2
:100E0000010003008200070070B504460D464FF450
:100E100080504249086009E040490868411E3F4A45
:100E2000116018B9072000F0DFF970BD4FF40031F0
:100E30003B4800F03FF90028EED10121384800F08E
:100E400021F94FF480503549086009E033490868BA
:100E5000411E324A116018B9082000F0C5F9E4E7D4
:100E600030492F48FFF76DFD0028EFD0A02040EA61
:100E7000E41000F0A6012A4800F0B4F94FF48050C5
:100E80002649086009E025490868411E234A116087
:100E900018B9092000F0A8F9C7E723492048FFF74F
:100EA00050FD0028EFD0E1B21D4800F09BF94FF44F
:100EB00080501A49086009E018490868411E174A1D
:100EC000116018B90A2000F08FF9AEE71649891EA3
:100ED0001348FFF736FD0028EED02978104800F0BF
:100EE00081F94FF480500D49086009E00B4908680A
:100EF000411E0A4A116018B90B2000F075F994E7F9
:100F00000949891C0648FFF71CFD0028EED0012185
:100F1000034800F0C3F8012087E700001400002018
:100F200000580040010003008200070070B504462D
:100F30000D4616464FF480504E49086009E04D4971
:100F40000868411E4B4A116018B90C2000F04CF99A
:100F500070BD4FF40031484800F0ACF80028EED1E5
:100F60000121454800F08EF84FF480504149086057
:100F700009E040490868411E3E4A116018B90D2039
:100F800000F032F9E4E73D493B48FFF7DAFC00287E
:100F9000EFD0A02040EAE41000F0A601364800F0AF
:100FA00021F94FF480503349086009E0314908685D
:100FB000411E304A116018B90E2000F015F9C7E73C
:100FC0002F492D48FFF7BDFC0028EFD0E1B22A4899
:100FD00000F008F94FF480502649086009E02549DF
:100FE0000868411E234A116018B90F2000F0FCF870
:100FF000AEE72349891E2048FFF7A3FC0028EED066
:101000001AE029781C4800F0EDF86D1C4FF4805070
:101010001849086009E017490868411E154A11601F
:1010200018B9102000F0E0F892E71549891E12481F
:10103000FFF787FC0028EED0301EA6F10101CEB2EA
:10104000DFD109E00B490868411E0A4A116018B94E
:10105000112000F0C9F87BE70949891C0648FFF711
:1010600070FC0028EED00121034800F017F80120A1
:101070006EE700001400002000580040010003004B
:101080008200070021B1028842F48072028004E0ED
:1010900002884FF6FF631A400280704721B1028830
:1010A00042F40072028004E002884FF6FF531A40B7
:1010B000028070470CB50246002000230193009384
:1010C00000920B0F019321F07F41019B1BB1009B0C
:1010D0001433009303E0090C009B18330093009B2A
:1010E0001B680B400BB1012000E000200CBD00008C
:1010F0002DE9F04385B004460D460026B14604278D
:10110000DFF8CC80A6884FF6C0700640684600F035
:10111000C9F8DDF808802F48B8FBF0F01FFA80F915
:1011200046EA0906A68020884FF6FE710840208016
:1011300000262949286888420CD828684000B8FB56
:10114000F0F087B2042F00DA04273E4309F10100D2
:10115000208427E0E8884BF6FF71884206D1286892
:1011600000EB4000B8FBF0F087B209E0286800EB24
:10117000C00101EB0010B8FBF0F087B247F48047E4
:10118000C7F30B0008B947F0010747F400400643D6
:101190004FF4967009FB00F04FF47A7190FBF1F078
:1011A000401C2084A683208840F0010020802688EF
:1011B0004FF6F5300640A888698908430643268023
:1011C000A88929890843208105B0BDE8F083000083
:1011D00000127A0040420F00A08601000146088AF2
:1011E000C0B270470182704710B50446214602A084
:1011F00000F078FA002010BD3C3C2D454550524F80
:101200004D2D4552524F522D3E3E20493243B5C8D6
:10121000B4FDB3ACCAB1216572726F72436F64657D
:10122000203D2025640A000008B50121082000F0B7
:1012300029F801208DF8020010208DF8030000012C
:10124000ADF8000069460448FFF7DEFA4FF48070FD
:1012500001491431086008BD000C014000BFFEE7E1
:101260007047704729B1064AD2690243044BDA61DC
:1012700004E0034AD2698243014BDA6170470000FF
:101280000010024029B1064A92690243044B9A6158
:1012900004E0034A92698243014B9A61704700005F
:1012A0000010024030B500210022002400232D4D03
:1012B0006D6805F00C0121B1042905D0082923D15E
:1012C00005E0294D056022E0274D05601FE0254D12
:1012D0006D6805F47012234D6D6805F480340225A5
:1012E00005EB92421CB9214D554305600BE01D4DA5
:1012F0006D6805F400351DB11C4D5543056002E0D5
:10130000194D5543056002E0174D056000BF00BF51
:10131000144D6D6805F0F0010909154D6B5C056809
:10132000DD4045600F4D6D6805F4E061090A104D20
:101330006B5C4568DD4085600A4D6D6805F4605161
:10134000C90A0B4D6B5C4568DD40C560054D6D6895
:1013500005F44041890B074D6B5CC568B5FBF3F59F
:10136000056130BD0010024000127A0000093D0006
:101370000000002010000020704710B500F002F8B7
:1013800010BD00000CB500200190009033480068AB
:1013900040F480303149086000BF3048006800F4F4
:1013A000003000900198401C0190009818B90198F5
:1013B000B0F5A06FF1D12948006800F4003010B1F9
:1013C0000120009001E0002000900098012843D106
:1013D0002348006840F01000214908600846006872
:1013E00020F0070008600846006840F0020008602E
:1013F0001A484068194948600846406848600846ED
:10140000406840F4806048600846406820F47C10E2
:1014100048600846406840F4E810486008460068A4
:1014200040F08070086000BF0C48006800F0007059
:101430000028F9D00948406820F0030007494860B7
:101440000846406840F00200486000BF034840681A
:1014500000F00C000828F9D10CBD0000001002407B
:10146000002002407047000010B51348006840F0AB
:1014700001001149086008464068104908400E49BB
:101480004860084600680E4908400B490860084655
:10149000006820F4802008600846406820F4FE00C0
:1014A00048604FF41F008860FFF767FF4FF000604F
:1014B0000449086010BD0000001002400000FFF861
:1014C000FFFFF6FE08ED00E010B540F2255106489A
:1014D00000F065F838B1044800F0F8F8C4B22146CD
:1014E000014800F0F8F810BD0038014021B18289B0
:1014F00042F40052828104E082894DF6FF731A4063
:101500008281704700B585B001210420FFF7BAFE43
:1015100001218803FFF7B6FE4FF40070ADF810000C
:1015200018208DF8130003208DF8120004A9134829
:10153000FFF76AF94FF48060ADF8100004208DF8D1
:10154000130004A90D48FFF75FF94FF4E130009054
:101550000020ADF80400ADF80600ADF80800ADF8C5
:101560000C000C20ADF80A006946054800F042F86E
:1015700001210348FFF7BAFF05B000BD0008014094
:101580000038014002460020B1F5007F00D100BFC5
:1015900013880B400BB1012000E00020704770B5AC
:1015A0000246002400230025002040F66A16B142BE
:1015B00000D100BFC1F3421501F01F03012606FA56
:1015C00003F3012D02D19689334006E0022D02D1AA
:1015D000168A334001E0968A33400C12012606FA3F
:1015E00004F41688344013B10CB1012000E000204F
:1015F00070BD00002DE9F04786B005460E46002478
:10160000A24600BFA1460027B08900B100BF2F4607
:101610002C8A4CF6FF700440F08804432C82AC897D
:101620004EF6F3100440B0883189084371890843AD
:101630000443AC81AC8A4FF6FF400440B0890443B8
:10164000AC8201A8FFF72EFE1F48874202D1DDF8C9
:1016500010A001E0DDF80CA0A88900F4004040B122
:101660000AEBCA0000EB0A1031684900B0FBF1F840
:1016700007E00AEBCA0000EB0A1031688900B0FBF2
:10168000F1F86420B8FBF0F004012009642101FBAB
:101690001089A88900F4004040B1322000EBC90055
:1016A000B0FBF1F000F00700044308E0322000EB4B
:1016B00009106421B0FBF1F000F00F0004432C810D
:1016C00006B0BDE8F0870000003801400146888878
:1016D000C0F308007047C1F308028280704700BF62
:1016E000FEE700000FB4054B10B503A9044A0298A9
:1016F00000F0DAF810BC5DF814FB0000D11F000800
:101700001800002002E008C8121F08C1002AFAD100
:1017100070477047002001E001C1121F002AFBD171
:10172000704700002DE9FF5F82B00021DDE9043041
:10173000020DDDF840B0034318D044F61050A2F279
:10174000FF3242431514119801281FD0A5EB0B005E
:10175000401C5FEA000A4FF000064E4FDFF8389158
:10176000B046504615D5CAF1000413E01198012483
:101770004AA3012801D16FEA0B010298119AC0E92E
:101780000031C0E9024206B0BDE8F09FCBF1000095
:10179000DFE704460021404A491842EB0450CDE9F6
:1017A000001012E0E00707D032463B46404649466B
:1017B000FEF757FE8046894632463B46104619469C
:1017C000FEF74FFE06460F466410002CEAD1DDE915
:1017D0000401DDE90023BAF1000F06DAFEF741FE4D
:1017E00042464B46FEF73DFE05E0FEF7ACFE4246A4
:1017F0004B46FEF7A8FE04460E460022284BFEF795
:1018000029FF03D84FF0FF30014607E00022254BA7
:1018100020463146FEF7ACFCFEF704FF102409E039
:10182000002C0ADB0A220023FEF76CFD039B3032FA
:101830001A55641E50EA0102F2D1641C039AC4F1E5
:1018400011031444119A012A03D0012208430DD137
:101850000AE0084304D000204FF0110B119072E70A
:10186000A3EB0B056D1E0DE05B4504DD4FF00002A0
:1018700005F1010504E003DA4FF00002A5F10105CE
:10188000002AECD002981199C0E90231C0E9004564
:1018900079E70000000014400000F03F3000000035
:1018A0000000F0430000E03F2DE9FF4F95B09A465D
:1018B000884606460025EEE1252877D100242746F4
:1018C000F94A0121039400E0044316F8013F203B4C
:1018D00001FA03F01042F7D130782A2811D06FF0C6
:1018E0002F033078A0F13002092A16D8039A44F069
:1018F000020402EB820203EB42021044761C0390C6
:10190000EFE758F8042B0392002A03DA504244F41C
:101910000054039044F00204761C30782E2816D12F
:1019200016F8010F44F004042A280DD06FF02F029E
:101930003078A0F13003092B09D807EB870302EBBD
:101940004303C718761CF3E758F8047B761C3078FD
:101950006C280FD006DC4C2817D068280DD06A28D8
:1019600014D104E0742810D07A280FD10DE044F48B
:1019700000140AE044F4801401E044F44014727846
:10198000824202D104F58014761C761C30786628D9
:101990000BD013DC582877D009DC002875D04528F7
:1019A000F6D04628F4D047281AD193E118E06328EE
:1019B00035D0642879D0652812D18BE1702873D096
:1019C00008DC6728F1D069286FD06E280DD06F2809
:1019D00006D1ACE073282CD0752874D0782853D069
:1019E0005246179990476D1C54E1C4F302500228E7
:1019F00009D003280DD0D8F8001004280DD00D60B0
:101A000008F1040846E1D8F80010EA17C1E90052CD
:101A1000F6E7D8F800100D80F2E70D70F0E718F83F
:101A2000041B8DF8001000208DF80100EB4601200A
:101A300003E058F804BB4FF0FF3061074FF000019E
:101A400002D40DE009F101018946B9420FDA81455E
:101A5000F8DB1BF809100029F4D108E009F10101B5
:101A600089468142FADB1BF809100029F6D1039858
:101A70005346A0EB090721463846179A00F080FA32
:101A8000284400EB090507E044E008E10DE01BF8FD
:101A9000010B524617999047B9F10109F7D2534605
:101AA00021463846179AF2E039E00A21C4F302527F
:101AB0004FF0000B0091022A06D058F8040BC11712
:101AC000032A09D00AE023E008F1070020F007020A
:101AD000F2E80201904605E000B2C117042A01D1E4
:101AE00040B2C117002906DA0A460021404261EBE4
:101AF00002012D2202E0220504D52B228DF80420BC
:101B0000012203E0E20701D02022F7E7914657E0E7
:101B10000A2100E010214FF0000B00910BE0102192
:101B20004FF0000B44F004040827009103E0082064
:101B30004FF0000B0090C4F30252022A05D058F86F
:101B4000040B0021032A08D008E008F1070020F068
:101B50000702F2E80201904603E080B2042A00D1B5
:101B6000C0B24FF0000922072AD53278702A07D078
:101B7000DDF800C08CF0100C5CEA0B0C05D00EE018
:101B800040228DF80420012208E050EA010306D02B
:101B900030238DF804308DF8052002229146009BF9
:101BA00083F0080353EA0B030AD150EA010201D182
:101BB000620705D530228DF804204FF001097F1E01
:101BC0003278582A04D039A20C920CAA02920BE067
:101BD0003BA2F9E75B46009AFEF794FB0C9B9B5CEB
:101BE000029A521E0292137050EA0102F2D1029838
:101BF00004A9081A00F1200B600702D524F48034F0
:101C000000E001275F4502DDA7EB0B0000E00020AC
:101C100000EB0B01009003984944401A0390E00345
:101C200006D453462146179A039800F0A9F90544B3
:101C3000002706E001A85246C05D179990476D1C29
:101C40007F1C4F45F6DBE0030CD553462146179A1F
:101C5000039800F095F9054404E0302052461799A6
:101C600090476D1C0099481E00900029F5DC08E0A3
:101C70000298029952460078491C029117999047A0
:101C80006D1CBBF10001ABF1010BF1DC5BE100F07D
:101C900065F90544761C307800287FF40DAE19B044
:101CA0002846BDE8F08F00000928010030313233AA
:101CB0003435363738396162636465660000000088
:101CC0003031323334353637383941424344454672
:101CD00000000000600700D4062708F1070020F08C
:101CE0000700F0E80223804603F0004C5FEA0C0096
:101CF00001D097A009E0200501D596A005E0E007F6
:101D000001D095A001E0AFF24C001390307823F0A1
:101D1000004365280CD006DC452809D046281DD094
:101D200047287FD13BE0662818D067287AD136E073
:101D30000021112F01DB112000E0781CCDE900010A
:101D400004A90CA8FFF7EEFCDDE90D010C9A4FF099
:101D5000000B07F10109109200914EE04FF0004096
:101D60000097CDE9011004A90CA8FFF7DBFCDDE921
:101D70000D020C9B0F994FF0000B914610930092AF
:101D800011B9791C00EB0109B7EB090003D4C0F1CC
:101D9000FF3B07F10109A9EB0700019042E0012F89
:101DA00000DA01270021112F01DD112000E0384663
:101DB000CDE9000104A90CA8FFF7B4FCDDE90D0191
:101DC0000C9A00914FF0000BB946109221070FD4E6
:101DD000009A4A4503DA914601E0A9F10109B9F1F7
:101DE000010F05DD109AA9F10101515C3029F4D0F1
:101DF000B84202DA10F1040F03DA0121CDE9011033
:101E000010E0002803DC8344A9EB000102E0411C40
:101E1000494500DD8946A0EB0B00401C01904FF0C6
:101E200000400290200705D40198484502DB4FF09E
:101E3000FF30019000208DF84B0002980DF14B0708
:101E4000B0F1004F25D002200C902B200D9002986D
:101E500000280CDA404202902D200D9007E00A2164
:101E60000298FEF739FA3031029007F8011D0C99FB
:101E7000481E0C900029F2DC02980028EFD1791E50
:101E80000D980870307800F0200040F0450007F809
:101E9000020D11A8C01BC01D02901398007800B15C
:101EA000012000EB0901019801EBE0710298014467
:101EB0000398401A401E0390E00306D4534621467F
:101EC000179A039800F05CF805441398007818B14D
:101ED0005246179990476D1CE00323D5534621467F
:101EE000179A039800F04CF805441BE0BBF1000F73
:101EF00007DB0098584504DD1098179910F80B007F
:101F000001E0179930205246904701980BF1010BE0
:101F1000401E05F10105019004D12E20524617996B
:101F200090476D1CB9F10001A9F10109DEDC05E063
:101F300017F8010B5246179990476D1C0299481EDD
:101F400002900029F4DC53462146179A03989EE636
:101F50002D0000002B000000200000002DE9F041C2
:101F6000044600251E461746880404D405E0394679
:101F70002020B0476D1C641EF9D52846BDE8F081CD
:101F80002DE9F041044600251E469046C80301D5C0
:101F9000302700E02027880404D505E04146384674
:101FA000B0476D1C641EF9D52846BDE8F0810021BC
:101FB00007E042F6E06100BF0A1EA1F1010399B2F9
:101FC000FAD1021EA0F1010398B2F2D170470000CD
:101FD00070B504460D46E1B20548FFF77CFB00BF33
:101FE00080210348FFF7CEFA0028F9D0204670BDC3
:101FF00000380140ACB000BF00202A905EA2D2E9B8
:1020000000109268CDE9280227911C225DA120A82A
:10201000FEF78AF81C2262A119A8FEF785F867A2CC
:10202000D2E900109268CDE91702169130210AA872
:10203000FEF793F8644903C9CDE908011C2101A802
:10204000FEF78BF8FFF7F0F8FFF75CFAFEF788FB76
:102050004FF480715D48FEF764FCC820FFF7A7FFCE
:102060004FF480715948FEF75AFC59A0FFF73AFB2C
:102070005DA0FFF737FB9DF8A800FEF7F3FDC0B2A7
:102080002A909DF8A800CD284CD05EA0FFF72AFB2F
:10209000CD202A902AA90020FEF7B6FE002417E0E2
:1020A0002046FEF70CF90546664A674BFEF760F8D6
:1020B00008AA02EBC40203C204EB4400C0EBC41044
:1020C000012101EB800001A941F82400601CC4B289
:1020D000072CE5DBFEF7FCFA382208A90820FEF7FA
:1020E0002BFD1C2201A94020FEF726FD57A0FFF77B
:1020F000F9FA002410E008A800EBC400D0E900536E
:102100002A4657A0FFF7EEFA01A850F8241058A06D
:10211000FFF7E8FA601CC4B2072CECDB58A0FFF70D
:10212000E1FA26E060A0FFF7DDFAFEF7D1FA3822E7
:1021300008A90820FEF726FC1C2201A94020FEF772
:1021400021FC5EA0FFF7CEFA002410E008A800EB07
:10215000C401D1E900532A465EA0FFF7C3FA01A8E3
:1021600050F8241060A0FFF7BDFA601CC4B2072C21
:10217000ECDB00BFFEE70000303132333435363758
:10218000383900006162636465666768696A6B6C10
:102190006D6E6F707172737475767778797A0000EE
:1021A000414243444546474849474B4C4D4E4F50AA
:1021B0005152535455565758595A000053544D33A1
:1021C00032BAC3B9F3B0A100F8220008000C0140F4
:1021D0000ACED2CAC74B656C65652EC4E3BAC35339
:1021E000544D3332210A000048657265206973201E
:1021F0004B656C65652E48656C6C6F2053544D3390
:1022000032210A000D0AC3BBD3D0BCECB2E2B5BD8B
:10221000CAFDBEDDB1EAD6BEA3AC464C415348C3AD
:10222000BBD3D0B4E6B4A2CAFDBEDDA3ACBCB4BD82
:10223000ABBDF8D0D0D0A1CAFDD0B4C8EBCAB5D1DF
:10224000E90D0A009A9999999999B93FCFF2D0BEB0
:10225000C6ACD0B4C8EBCAFDBEDDA3BA0A0000000C
:10226000D0A1CAFD7478203D20254C460D0A0000FF
:10227000D5FBCAFD7478203D2025640D0A000000BE
:102280000D0AC7EBB8B4CEBBBFAAB7A2B0E5A3ACEA
:10229000D2D4B6C1C8A1CAFDBEDDBDF8D0D0BCEC59
:1022A000D1E90D0A000000000D0ABCECB2E2B5BD98
:1022B000CAFDBEDDB1EAD6BE0D0A00000D0AB4D3D8
:1022C000D0BEC6ACB6C1B5BDCAFDBEDDA3BA0D0A4F
:1022D00000000000D0A1CAFD207278203D20254CCE
:1022E00046200D0A00000000D5FBCAFD20727820B0
:1022F0003D202564200D0A000000000000000000C1
:1023000020230008000000201C0000000417000823
:102310003C2300081C0000200404000014170008DF
:10232000000000000102030401020304060708097B
:0C2330000204060800100000000000007D
:04000005080000ED02
:00000001FF
